:020000040800F2
:10000000C80600246D030008BB150008051500088C
:10001000B915000873040008191C0008000000004E
:1000200000000000000000000000000003160008AF
:1000300075040008000000000116000805160008FD
:100040008703000887030008870300088703000868
:100050008703000887030008870300088703000858
:100060008703000887030008870300088703000848
:100070008703000887030008870300088703000838
:100080008703000887030008870300088703000828
:100090008703000887030008870300088703000818
:1000A0008703000887030008870300088703000808
:1000B00087030008870300088703000887030008F8
:1000C00087030008870300088703000887030008E8
:1000D00087030008870300088703000887030008D8
:1000E000870300088703000800000000870300085A
:1000F00087030008870300088703000887030008B8
:1001000087030008870300088703000887030008A7
:100110008703000887030008870300088703000897
:100120008703000887030008870300088703000887
:100130008703000887030008870300088703000877
:1001400000000000000000000000000000000000AF
:100150008703000887030008870300088703000857
:100160008703000887030008870300088703000847
:1001700087030008870300088703000800000000C9
:100180008703000887030008870300088703000827
:100190008703000887030008870300088703000817
:1001A0008703000887030008870300080000000099
:1001B00087030008870300088703000887030008F7
:1001C000870300088703000800000000000000000B
:1001D000000000000000000087030008000000008D
:1001E000000000000000000000000000000000000F
:1001F00000000000000000008703000887030008DB
:100200008703000887030008000000008703000838
:100210008703000887030008870300088703000896
:1002200087030008000000008703000800000000AA
:100230008703000887030008000000008703000808
:100240008703000887030008870300088703000866
:100250008703000887030008870300088703000856
:100260008703000887030008870300088703000846
:1002700087030008870300088703000800000000C8
:100280008703000887030008870300088703000826
:10029000000000008703000887030008000000003A
:1002A0000000000087030008870300088703000898
:1002B00087030008870300088703000887030008F6
:1002C00087030008870300088703000800F002F88E
:1002D00000F03CF80AA090E8000C82448344AAF1A4
:1002E0000107DA4501D100F031F8AFF2090EBAE8A2
:1002F0000F0013F0010F18BFFB1A43F0010318475A
:10030000342D0000542D0000103A24BF78C878C165
:10031000FAD8520724BF30C830C144BF04680C600B
:10032000704700000023002400250026103A28BF53
:1003300078C1FBD8520728BF30C148BF0B60704757
:100340001FB502F06AFE1FBD10B510BD00F058F8D1
:100350001146FFF7F5FF02F055FE00F076F803B402
:10036000FFF7F2FF03BC00F07DF80000094880476A
:1003700009480047FEE7FEE7FEE7FEE7FEE7FEE787
:10038000FEE7FEE7FEE7FEE704480549054A064B9F
:1003900070470000A1160008CD020008C800002424
:1003A000C8060024C8020024C80200244FF000023E
:1003B00000B5134694469646203922BFA0E80C505B
:1003C000A0E80C50B1F12001BFF4F7AF090728BF36
:1003D000A0E80C5048BF0CC05DF804EB890028BFB2
:1003E00040F8042B08BF704748BF20F8022B11F0DB
:1003F000804F18BF00F8012B704770477047704757
:10040000754600F02BF8AE4605006946534620F0CD
:100410000700854618B020B5FFF7B6FFBDE82040BD
:100420004FF000064FF000074FF000084FF0000BB0
:1004300021F00701AC46ACE8C009ACE8C009ACE863
:10044000C009ACE8C0098D46704710B50446AFF34B
:1004500000802046BDE81040FFF781BF004870478C
:100460006400002401491820ABBEFEE7260002000C
:100470007047FEE7704772B6FEE7000070B50446AD
:1004800000F01CF90546601C02D0044800780444C2
:1004900000F014F9401BA042FAD370BD0400002400
:1004A0002DE9F84F03247A4D00234FF001094FF056
:1004B000B04B4FF00F0AE4E009FA03F6324078D06F
:1004C0000F7907F00307012F01D0022F1AD1876897
:1004D0004FEA430ED1F80CC004FA0EF827EA0807D9
:1004E0000CFA0EFC4CEA070CC0F808C0476891F8FB
:1004F00004C0B743CCF3001C0CFA03FC4CEA070C15
:10050000C0F804C00E79F643B6070BD0C6684FEAB0
:1005100043088F6804FA08FC26EA0C0607FA08F775
:100520003743C7600E7906F00306022E12D1DE08AB
:100530000F694FEA437C00EB8606B646366A4FEAFF
:10054000DC6C0AFA0CF807FA0CF726EA08063743BF
:10055000CEF820700F7906684FEA430807F00307CA
:1005600004FA08FC07FA08F726EA0C063743076086
:100570004E6816F4403F1CD0464E376847F00207DD
:10058000376036689F0706F00206009623F00306E0
:1005900006F1B046B6463F0FD6F80864DFF8F8809B
:1005A0000AFA07FC404526EA0C0603D14FF0000C7E
:1005B0003AE065E0DFF8E4C0604502D14FF0010C9D
:1005C00032E0DFF8DCC0604502D14FF0020C2BE0D6
:1005D000DFF8D0C0604502D14FF0030C24E0DFF813
:1005E000C8C0604502D14FF0040C1DE0DFF8BCC06C
:1005F000604502D14FF0050C16E0DFF8B4C060454D
:1006000002D14FF0060C0FE0DFF8A8C0604502D120
:100610004FF0070C08E0DFF8A0C0604502D14FF0B2
:10062000090C01E04FF00A0C0CFA07FC4CEA060C2E
:10063000CEF808C44F68DBF80060FF0226EA020625
:1006400000D516435F46CBF80060D1F804C0DBF854
:1006500004605FEA8C2C26EA020600D516437E6011
:100660006E684F6826EA0206BF0300D516436E6027
:100670002E684F6826EA0206FF0300D516432E6057
:100680005B1C0A6832FA03F67FF416AFBDE8F88FF8
:1006900080000058F4440258000002580004025838
:1006A00000080258000C02580010025800140258AA
:1006B00000180258001C02580024025801488068A3
:1006C0007047000004000024024881680278114449
:1006D0008160704704000024032010B500F078F812
:1006E00000F0E0F90F4A104914681368C4F30322BC
:1006F00003F00F038A5CC95C02F01F0201F01F01C6
:10070000D0400A4A20FA01F11160094908600F201F
:1007100000F010F808B1012010BD00F02BF8002007
:1007200010BD0000184402582430000814000024B2
:100730001000002470B50D4D04462878A0B14FF488
:100740007A71B1FBF0F00A490968B1FBF0F000F0F2
:10075000D8FC48B9102C07D200222146501E00F0C8
:1007600017F800206C6070BD012070BD04000024EB
:1007700010000024054808B5016841F0020101603D
:10078000006800F00200009008BD0000F444025828
:100790000E4BF0B41B680D46C3F30223C3F10706EA
:1007A000042E00D90426191D072901D2002300E0D8
:1007B000DB1E012404FA06F19C40491E2940641EF8
:1007C000994014402143F0BC01F027BA0CED00E041
:1007D000064900F0070210B54FF6FF040868044B05
:1007E000204040EA02201843086010BD0CED00E0F4
:1007F0000000FA05134970B50A68D243520705D5BF
:10080000096801F00701814213D118E00A6822F05B
:10081000070202430A60FFF751FF0A4D4FF47A7650
:100820000446083D07E000BFFFF748FF001BB04249
:1008300001D9012070BD2868C0438004F4D4002091
:1008400070BD00000C4802582DE9F05F04000F460F
:100850007ED0DFF83882D8F8000000F00F00B842F0
:100860000CD2D8F8001021F00F013943C8F800105D
:10087000D8F8000000F00F00B84269D12078844D0C
:1008800040070AD52069296801F07001884204D91F
:10089000296821F070010143296020787C4E361DC3
:1008A00000070AD56069316801F07001884204D9F7
:1008B000316821F07001014331602078C0060AD50B
:1008C000A069316801F4E061884204D9316821F4FB
:1008D000E061014331602078DFF8B4B180060BF1AC
:1008E000080B0CD5E1695846DBF8002002F07002D5
:1008F000914204D9026822F070020A430260207813
:1009000080070AD5E068296801F00F01884204D900
:10091000296821F00F01014329602078C0073ED0EB
:100920005B49A2682868183920F470601043286079
:100930006068022818D0032819D00968012819D046
:10094000490700294ADADFF848A1AAF1080A00E0BD
:1009500044E0DAF8002022F007020243CAF800203F
:10096000FFF7ACFE814612E009688903E9E70968F0
:100970008901E6E7C905E4E7FFF7A0FEA0EB09015E
:1009800041F28830814202D90320BDE8F09F6168BE
:10099000DAF8000000F03800B0EBC10FECD120789D
:1009A00080070AD5E068296801F00F01884204D267
:1009B000296821F00F0101432960D8F80010404652
:1009C00001F00F01B9420BD9016821F00F01394341
:1009D0000160006800F00F00B84201D00120D4E7A8
:1009E000207840070AD52069296801F07001884203
:1009F00004D2296821F070010143296020780007A2
:100A00000AD56069316801F07001884204D231680A
:100A100021F07001014331602078C0060AD5A06939
:100A2000316801F4E061884204D2316821F4E06168
:100A300001433160207880060CD5E1695846DBF827
:100A4000002002F07002914204D2026822F070028B
:100A50000A43026000F026F80E492A682B68C2F3A8
:100A6000032203F00F038A5CC95C02F01F0201F04D
:100A70001F01D040084A20FA01F1116007490860BF
:100A800007480068BDE8F05FFFF754BE0020005241
:100A900018440258243000081400002410000024D8
:100AA00008000024454970B545480968434B103B90
:100AB00011F0380208D00111082A03D0102A0BD0F7
:100AC000182A0BD0084670BD19688906FBD519682D
:100AD000C1F3C101C84070BD3A4870BD3749374DB8
:100AE00018310C1D24350A68096826682D6802F043
:100AF000030406F00102C1F30511C5F3CC0515FB93
:100B000002F200EE102AB8EE400AE9B32F4ADFEDF8
:100B10002E0AB7EE001A6CB1DFED2D1A012C01D0B0
:100B2000022C43D002EE101A1068F8EE422A81EE31
:100B3000A22A1EE01C68A40611D51B6801EE901ABB
:100B40001168C3F3C103F8EE612AD84001EE900AA0
:100B5000C1F30800F8EE611A81EEA22A0BE001EE63
:100B6000901ADFED1C2A00BFF8EE611A106882EEC1
:100B7000A12AC0F3080001EE900AF8EE611A40EED7
:100B8000201A31EE810A00E015E022EE000A10681A
:100B9000C0F34620401C00EE900AF8EE600A80EE9A
:100BA000201ABCEEC10A10EE100A70BD01EE901AB8
:100BB000DFED092AD8E7002070BD0000104402587C
:100BC0000090D00300366E01000000393044025816
:100BD0000024744A0024744C001BB74B2DE9F05FCD
:100BE00004007DD0FF4F2078FE4D1837DFF8F483E6
:100BF000103DC00748D0D8F80000396800F0380030
:100C0000102815D0182803D101F0030002280FD0B6
:100C10006068B0F5803F12D010B1B0F5A02F18D0A9
:100C2000286820F480302860286820F4802009E0BB
:100C30002868800328D560680028D2D024E028687E
:100C400040F480302860606888B1FFF737FD0646C1
:100C500009E0286840F480202860F0E7FFF72EFDC7
:100C6000801B64287ED828688003F7D50CE0FFF746
:100C700025FD064605E000BFFFF720FD801B642828
:100C8000F0D828688003F7D42078800756D5D8F8A4
:100C90000000DFF85093396810F03800A9F10C0912
:100CA0000ED0182801D188070AD0E068A8B32968B7
:100CB00021F0190101432960FFF700FD064628E0F5
:100CC0002868400702D5E06800288AD0E1682868D3
:100CD00020F0190008432860FFF7F0FC064606E004
:100CE000D2E000BFFFF7EAFC801B0228BAD82868D0
:100CF0004007F7D5217CD9F8002022F0FE4242EAD5
:100D00000161C9F8001019E0FFF7D8FC801B022828
:100D1000A8D828684007F7D5ECE7FFE7286820F057
:100D200001002860FFF7CAFC064604E0FFF7C6FC96
:100D3000801B022896D828684007F7D42078C00680
:100D400046D5D8F80000DFF89C92396800F03800EA
:100D5000A9F10409082812D0182805D101F00300D0
:100D6000012800E0CEE00AD0E0690028286820D001
:100D700040F080002860FFF7A1FC064615E02868D7
:100D8000C00502D5E06980287ED194F82010D9F8FA
:100D9000002022F07C5242EA0161C9F8001017E0FD
:100DA000FFF78CFC801B0228A0D82868C005F7D567
:100DB000EBE720F080002860FFF780FC064604E0A7
:100DC000FFF77CFC801B022890D82868C005F7D468
:100DD0002078000729D5834861696430002981465D
:100DE000016811D041F001010160FFF767FC064680
:100DF00005E000BFFFF762FC801B022888D8D9F805
:100E000000008007F6D510E021F001010160FFF736
:100E100055FC064605E000BFFFF750FC801B02288A
:100E200070D8D9F800008007F6D42078800623D542
:100E3000A0690028286810D040F480502860FFF78F
:100E40003DFC064605E000BFFFF738FC801B02288A
:100E500058D828688004F7D50EE020F48050286028
:100E6000FFF72CFC064604E0FFF728FC801B022855
:100E700048D828688004F7D42078400751D5DFF897
:100E80006891D9F8001000E015E141F48071C9F8CB
:100E90000010FFF713FC064605E000BFFFF70EFC4D
:100EA000801B64282ED8D9F80000C005F6D54D4E19
:100EB000A068603601280AD008B1052813D0306830
:100EC00020F001003060306820F0040002E030685B
:100ED00040F001003060A06841F2883A98B1FFF715
:100EE000EDFB81460AE0306840F004003060EEE738
:100EF000FFF7E4FBA0EB0901514503D830688007F8
:100F0000F6D50EE072E0FFF7D9FB814606E000BFA0
:100F1000FFF7D4FBA0EB0901514567D83068800783
:100F2000F6D4606A00287CD0DFF8B8A0D8F80010AA
:100F30000AF1200A4FF6F87B0AF10408C1F3C20156
:100F40000329AAF104096DD00228286820F08070D6
:100F5000286003D0FFF7B2FB044681E0FFF7AEFB49
:100F6000064604E0FFF7AAFB801B022875D8286814
:100F70008001F7D4E26A40F2F331386854F8283F30
:100F8000884340EA021018433860217B4FF4FE0C7E
:100F900022894FF0FE47208A4902267D521E401EBC
:100FA000A1F5007189B2C2F308021143761E0CEA62
:100FB00000400143484607EA06621143CAF80010A0
:100FC000D9F8001021F00101C9F80010D8F800305C
:100FD000266A23EA0B0343EAC601C8F80010D9F8D1
:100FE000001004E0104402580048025835E0A2699D
:100FF00021F00C011143C9F800100168E26921F0E9
:10100000020111430160016841F48031016001680F
:1010100041F400310160016841F480210160016800
:1010200001E06CE020E041F001010160286840F03F
:1010300080702860FFF742FB044604E0FFF73EFBA8
:10104000001B022809D828688001F7D557E000BFA7
:10105000FFF734FB001B022802D90320BDE8F09FF4
:1010600028688001F4D44AE039680128DAF80000E1
:1010700021D0A26A01F0030393421CD1E26AC1F3BA
:1010800005118A4217D1216BC0F30802491E8A421A
:1010900011D1616BC0F34622491E91420BD1A16B65
:1010A000C0F30642491E914205D1E16BC0F30660D0
:1010B000491E814201D00120D0E7A16C4646D8F8F4
:1010C0000000C0F3CC00814219D0D9F800004D4691
:1010D00020F00100C9F80000FFF7F0FA4FEA00071E
:1010E000FFF7ECFAB842FBD0A26C306820EA0B00A4
:1010F00040EAC2003060286840F00100286000200B
:10110000ACE7401EB0F1807F10B501D3012010BDC7
:101110004FF0E02460610F21601700F07EFD002099
:10112000A0610721216110BDF0B590F83C20012A93
:1011300041D0224E012480F83C40022280F83D201C
:1011400002681F4D5368B242D2F808C001D0AA42CB
:1011500003D14F6823F470033B430F6823F07003FF
:101160001F4357600268B24219D0B2F1804F16D0C7
:10117000144B9A4213D0144B9A4210D0134B9A42FC
:101180000DD0AA420BD0124B9A4208D0114B9A4272
:1011900005D0114B9A4202D0104B9A4204D1896873
:1011A0002CF0800319439160002180F83D4080F8C5
:1011B0003C100846F0BD0220F0BD000000000140D8
:1011C000000401400004004000080040000C004002
:1011D000001800400040014000E0004000E40040F2
:1011E00010B586B0044614216846FFF7DFF80D49B4
:1011F0002068884214D10C48016841F00201016066
:101200000068002100F00200059002208203009295
:10121000CDE90101CDE9031004486946FFF740F923
:1012200006B010BD00180040E04402580004025807
:1012300070B5044690F83C0000260D4601280BD0FE
:10124000012084F83C000C2A4AD007DC82B1042A31
:1012500020D0082A06D131E0022070BD102A53D0D8
:10126000142A63D00126002084F83C00304670BD6B
:10127000206800F0EFFA2068816941F0080181617F
:101280002068816921F00401816120682A698169EF
:10129000114311E0206800F031FB2068816941F4BE
:1012A000006181612068816921F480618161206829
:1012B0002969826942EA01218161D4E7206800F04E
:1012C00069FB2068C16941F00801C1612068C169FA
:1012D00021F00401C16120682A69C169114311E04C
:1012E000206800F0A3FB2068C16941F40061C1617E
:1012F0002068C16921F48061C16120682969C269DF
:1013000042EA0121C161AEE7206800F0CBFB206812
:10131000416D41F0080141652068416D21F00401F3
:10132000416520682A69416D114311E0206800F091
:10133000F3FB2068416D41F4006141652068416D17
:1013400021F48061416520682969426D42EA0121EA
:10135000416588E710B5040003D094F83D0010B152
:1013600007E0012010BD002084F83C00204600F07A
:1013700023F8022084F83D002068211D00F0F0F9D8
:10138000012084F8480084F83E0084F83F0084F887
:10139000400084F8410084F8420084F8430084F857
:1013A000440084F8450084F8460084F8470084F837
:1013B0003D00002010BD000008B5006806498842C5
:1013C00008D10648016841F040010160006800F062
:1013D0004000009008BD000000180040E84402589A
:1013E00030B504464FF0020269B1042912D0082931
:1013F00017D00C291CD0102921D094F843000128C3
:1014000024D0012030BD94F83E000128F9D184F8A1
:101410003E201DE094F83F000128F2D184F83F20DF
:1014200016E094F840000128EBD184F840200FE04A
:1014300094F841000128E4D184F8412008E094F8B0
:1014400042000128DDD184F8422001E084F84320E5
:101450000122206800F0F0F91E4920681E4A1F4B47
:10146000884209D0904207D0984205D01C4DA8422E
:1014700002D01C4DA84203D1456C45F4004545649B
:101480002068884218D0B0F1804F15D016498842A4
:1014900012D0164988420FD0154988420CD090428C
:1014A0000AD01449884207D0984205D01249884290
:1014B00002D01249884207D18168114A1140062999
:1014C00006D0B1F5803F03D0016841F00101016011
:1014D000002030BD000001400004014000400140F8
:1014E0000044014000480140000400400008004062
:1014F000000C00400018004000E0004000E4004004
:1015000007000100FEE700000D4808B5016841F042
:1015100080010160016801F080010091016841F0E3
:1015200002010160016801F002010091016841F0CF
:1015300001010160006800F00100009008BD00009A
:10154000E044025810B58AB0002468461C21079474
:1015500008940994FEF72AFF164840F2CF7117222B
:10156000134BC0E9024104618461C0E90032FFF716
:10157000F1FE08B1FEF77FFF0E4807A90794099412
:10158000FFF7D2FD08B1FEF776FF60204FF47A71C5
:101590008DE813000748042269460494FFF748FECB
:1015A00008B1FEF768FF0348FFF71AFE0AB010BD46
:1015B0000018004018000024FEE7FEE710B50D49B2
:1015C00002460D482DED028BB0EE408A91ED000AE7
:1015D000042100F0DBFA9FED090A28EE000ABDECB9
:1015E000028BBCEEC00ABDE8104010EE100AFEF7F8
:1015F00045BF0000000000241800002400004843FC
:1016000070477047FFF760B870B59CB04C216846D2
:10161000FEF7CCFE202113A8FEF7C8FE0220FFF73C
:10162000E9F81E48016821F4404101600168002486
:1016300001F440411B9101688904FCD502200A9005
:1016400028230990C20301210D910425CDE9001240
:10165000CDE90B030C261294CDE90E50CDE91064B0
:101660006846FFF7BBFA08B172B6FEE740201A9051
:1016700008230501CDE9163013ABCDE918053F214C
:10168000032283E8160013A81146FFF7DDF80028AF
:1016900001D072B6FEE71CB070BD000018480258B9
:1016A0002748F0B5274A016841F4700101601068CD
:1016B00000F00F00072804D2106820F00F00C01DB2
:1016C000106021490020204C10340B681F4D43F05E
:1016D00001030B6020600B682B400B60136803F064
:1016E0000F03072B04D9136823F00F03DB1D1360CE
:1016F000154C174A1834174B261D371D2060124C05
:10170000154D28343060261D3860371D23603B1D81
:1017100035601C1D3A60251D2E1D1860331D22608A
:101720002860326018600A6843F2D204064B0B4D01
:1017300022F4802260330A6018602C60F0BD000043
:1017400088ED00E000200052004402587FEDF6EAE8
:1017500080020101000202020000FF01004000526D
:101760002DE9F0472A4B4FF0804A2A4D02689842F3
:10177000294E2A4F2A4C09D0504507D0A84205D0FF
:10178000B04203D0B84201D0A04205D1D1F804C084
:1017900022F070024CEA0202DFF888C0DFF888808D
:1017A0009842DFF8889015D0504513D0A84211D048
:1017B000B0420FD0B8420DD0A0420BD0604509D046
:1017C000404507D0484505D0194DA84202D0194DD3
:1017D000A84203D1CD6822F440722A434D6922F019
:1017E00080022A43026098428A68C2620A68826262
:1017F00007D0A04205D0604503D0404501D0484500
:1018000001D10969016301214161BDE8F087000050
:10181000000001400004004000080040000C0040AF
:1018200000040140004001400044014000480140E4
:1018300000E0004000E4004010B5046A012301F01C
:101840001F018B409C4304628A40016A114301627C
:1018500010BD00002DE9F04F026ADFF88880DFF844
:10186000889022F00102DFF884A0DFF884B0214FD5
:101870000262DFF884C0066A4268836926F00206C5
:101880000D68B8428C6803EA0C0323F0030344EAB2
:10189000060445EA030507D0404505D0484503D076
:1018A000504501D0584505D1CB6824F008042343A6
:1018B00023F00404B84207D0404505D0484503D082
:1018C000504501D0584505D122F44076D1E9053282
:1018D00033431A4342608561496841630462BDE84D
:1018E000F08F00000004014000400140004401402E
:1018F00000480140000001408FFFFEFFF0B5026A82
:101900001E4E1F4C22F01002DFF878E00262056ADA
:101910004368826925F02005D1F808C0A0420F680D
:1019200002EA060222F4407245EA0C1542EA072256
:1019300001D0704506D1CE6825F0800545EA061530
:1019400025F04005A0420AD0704508D00E4CA042B8
:1019500005D00E4CA04202D00D4CA04207D1D1E9D7
:10196000054623F4406343EA840343EA8603436065
:101970008261496881630562F0BD0000FF8FFFFE50
:1019800000000140000401400040014000440140CB
:1019900000480140F0B5026A1E4F1F4E22F48072CB
:1019A000DFF878E00262056A4368C26925F40075D1
:1019B000D1F808C0B0420C6802EA070222F0030224
:1019C00045EA0C2544EA020401D0704506D1CF68EF
:1019D00025F4006242EA072222F48065B0420AD070
:1019E000704508D00E4A904205D00E4A904202D06F
:1019F0000D4A904207D123F44052D1E9053642EA1C
:101A0000031242EA06134360C4614968C163056278
:101A1000F0BD00008FFFFEFF000001400004014008
:101A2000004001400044014000480140F0B5026A16
:101A3000174B164F22F4805298420262046A4268A1
:101A4000C36924F400548E680D6803EA070323F485
:101A5000407344EA063443EA05230BD00D4DA842F7
:101A600008D00D4DA84205D00C4DA84202D00C4D17
:101A7000A84204D14D6922F4804242EA85124260B4
:101A8000C361496801640462F0BD0000FF8FFFFE7E
:101A900000000140000401400040014000440140BA
:101AA00000480140F0B5026ADFF854C022F48032E9
:101AB0000262056A4268446D25F400350E8960456E
:101AC000104F0B6804EA070445EA064543EA04039D
:101AD0000BD00D4CA04208D00C4CA04205D00C4CB1
:101AE000A04202D00B4CA04204D14C6922F48032B7
:101AF00042EA042242604365496881650562F0BD9F
:101B0000000001408FFFFEFF000401400040014043
:101B10000044014000480140F0B5026ADFF854C0BB
:101B200022F480120262046A4268436D24F40014B5
:101B30000E896045104F0D6803EA070344EA065416
:101B400043EA05230BD00D4DA84208D00C4DA84206
:101B500005D00C4DA84202D00B4DA84204D14D69CE
:101B600022F4802242EA8522426043654968C165C9
:101B70000462F0BD00000140FF8FFFFE0004014041
:101B8000004001400044014000480140002A30B4B8
:101B900039D0B5EEC00AF1EE10FA34D310EE103A97
:101BA0001A4CA3422FDC1B4B9FED191AB3FBF2F228
:101BB0000468C0EE010AE26200EE102AC260B8EECC
:101BC000400A20EE800ABCEEC00A10EE102A61B175
:101BD00004290DD008290ED00C290FD00368102934
:101BE0000FD0DA6530BCFFF7FBBB03685A63F9E737
:101BF00003689A63F6E70368DA63F3E703681A6435
:101C0000F0E79A65EEE730BC704700000000C8427C
:101C10000000C842009F2400FEE7090700284FEAA1
:101C2000116104DB00F1E02080F80014704700F03F
:101C30000F0000F1E02080F8141D70472DE9F05FDF
:101C40002DED028B9FEDFE8A4FF4F774B7EE000A7C
:101C50002046FFF7B3FC4FF4C475B7EE000A2846E0
:101C6000FFF7ACFCB0EE000A2046FFF7A7FCB7EE8A
:101C7000000A2846FFF7A2FCB0EE000A2046FFF754
:101C80009DFCB7EE000A2846FFF798FC40F24B2671
:101C9000B0EE000A3046FFF791FCB7EE000A284686
:101CA000FFF78CFC40F20B27B7EE000A3846FFF72F
:101CB00085FCB7EE000A3846FFF780FCB7EE000A55
:101CC0002846FFF77BFCB7EE000A2046FFF776FCBC
:101CD000B7EE000A3846FFF771FCB7EE000A20465F
:101CE000FFF76CFCB7EE000A2846FFF767FCB0EE82
:101CF000000A2046FFF762FCB7EE000A2846FFF70D
:101D00005DFCB0EE000A2046FFF758FCB7EE000A73
:101D10002846FFF753FCB0EE000A3046FFF74EFCB2
:101D2000B7EE000A2846FFF749FCB7EE000A38462E
:101D3000FFF744FCB7EE000A3846FFF73FFCB7EE6A
:101D4000000A2846FFF73AFCB7EE000A2046FFF7E4
:101D500035FCB7EE000A3846FFF730FCB7EE000A54
:101D60002046FFF72BFCB7EE000A2846FFF726FCBB
:101D7000B0EE000A2046FFF721FCB7EE000A284625
:101D8000FFF71CFCB0EE000A2046FFF717FCB7EE89
:101D9000000A2846FFF712FCB0EE000A3046FFF7B3
:101DA0000DFCB7EE000A2846FFF708FCB7EE000A64
:101DB0003846FFF703FCB7EE000A3846FFF7FEFB94
:101DC000B7EE000A2846FFF7F9FBB7EE000A2046F7
:101DD000FFF7F4FBB7EE000A3846FFF7EFFBB7EE6C
:101DE000000A2046FFF7EAFBB7EE000A2846FFF795
:101DF000E5FBB0EE000A2046FFF7E0FBB7EE000A75
:101E00002846FFF7DBFBB0EE000A2046FFF7D6FBC3
:101E1000B7EE000A2846FFF7D1FBB0EE000A3046C5
:101E2000FFF7CCFBB7EE000A2846FFF7C7FBB7EE7B
:101E3000000A3846FFF7C2FBB7EE000A3846FFF744
:101E4000BDFBB7EE000A2846FFF7B8FB4FF49378C6
:101E5000B0EE000A4046FFF7B1FB4FF4A57AB1EEB1
:101E6000080A5046FFF7AAFBB0EE000A4046FFF70B
:101E7000A5FBB0EE000A5046FFF7A0FBB0EE000A4B
:101E80004046FFF79BFBB0EE000A5046FFF796FB7B
:101E9000B1EE000A2846FFF791FBB1EE000A384682
:101EA000FFF78CFBB1EE000A2046FFF787FBB1EE8F
:101EB000000A5046FFF782FBB0EE000A4046FFF7EB
:101EC0007DFBB1EE080A5046FFF778FBB0EE000A42
:101ED0004046FFF773FBB0EE000A5046FFF76EFB7B
:101EE000B0EE000A4046FFF769FBB0EE000A50462C
:101EF000FFF764FBB2EE000A3846FFF75FFBB0EE77
:101F0000000A2046FFF75AFBB1EE000A3046FFF701
:101F100055FBB2EE040A5046FFF750FBB0EE000A44
:101F20004046FFF74BFBB0EE000A5046FFF746FB7A
:101F3000B0EE000A4046FFF741FBB0EE000A504603
:101F4000FFF73CFBB1EE000A2046FFF737FBB1EE8E
:101F5000000A3846FFF732FBB1EE000A2046FFF7D1
:101F60002DFBB1EE000A5046FFF728FBB0EE000A49
:101F70004046FFF723FBB1EE080A5046FFF71EFB71
:101F8000B0EE000A4046FFF719FBB0EE000A5046DB
:101F9000FFF714FBB0EE000A4046FFF70FFBB0EE70
:101FA000000A5046FFF70AFBB1EE000A2046FFF791
:101FB00005FBB1EE000A3846FFF700FBB2EE040A5B
:101FC0003046FFF7FBFA0020B1EE000AFFF7F6FA01
:101FD000B0EE000A5046FFF7F1FA0020B0EE480AD2
:101FE000FFF7ECFAB0EE000A5046FFF7E7FAB7EE5B
:101FF000000A4046FFF7E2FAB0EE080A5046FFF743
:10200000DDFAB0EE000A4046FFF7D8FAB0EE000A5B
:102010005046FFF7D3FAB0EE000A2846FFF7CEFA93
:102020000020B0EE000AFFF7C9FAB0EE000A5046F1
:10203000FFF7C4FA0020B0EE480AFFF7BFFA01E04C
:10204000CDCC4C3EB0EE000A5046FFF7B7FAB7EEE3
:10205000000A4046FFF7B2FAB0EE080A5046FFF712
:10206000ADFAB0EE000A4046FFF7A8FAB0EE000A5B
:102070005046FFF7A3FAB1EE000A2846FFF79EFA92
:102080004FF48379B1EE080A4846FFF797FA00202B
:10209000B0EE000AFFF792FAB0EE000A5046FFF7E2
:1020A0008DFA0020B0EE480AFFF788FAB0EE000A79
:1020B0005046FFF783FAB7EE000A4046FFF77EFA74
:1020C000B0EE080A5046FFF779FAB0EE000A404633
:1020D000FFF774FAB0EE000A4846FFF76FFAB0EE69
:1020E000000A4046FFF76AFA0020B0EE000AFFF748
:1020F00065FAB0EE000A5046FFF760FA0020B0EE35
:10210000480AFFF75BFAB0EE000A5046FFF756FAAE
:10211000B7EE000A4046FFF751FAB0EE080A504603
:10212000FFF74CFAB0EE000A4046FFF747FAB0EE70
:10213000000A5046FFF742FAB0EE000A2846FFF7C1
:102140003DFA0020B0EE000AFFF738FAB0EE000AC0
:102150005046FFF733FA0020B0EE480AFFF72EFA98
:10216000B0EE000A5046FFF729FAB7EE000A4046E3
:10217000FFF724FAB0EE080A5046FFF71FFAB0EE58
:10218000000A4046FFF71AFAB0EE000A5046FFF781
:1021900015FAB1EE000A3846FFF710FAB1EE080A58
:1021A0004846FFF70BFA0020B0EE000AFFF706FAE8
:1021B000B0EE000A5046FFF701FA0020B0EE480AE0
:1021C000FFF7FCF9B0EE000A5046FFF7F7F9B7EE5B
:1021D000000A4046FFF7F2F9B0EE080A5046FFF752
:1021E000EDF9B0EE000A4046FFF7E8F9F720B0EE4F
:1021F000000AFFF7E3F9DC20B7EE000AFFF7DEF98B
:10220000C420B1EE040AFFF7D9F90020B7EE000AA6
:10221000FFF7D4F9C420B7EE000AFFF7CFF900208A
:10222000B0EE480AFFF7CAF9C420B7EE000AFFF77C
:10223000C5F90020B0EE480AFFF7C0F9C420B7EE98
:10224000000AFFF7BBF9B1EE000A2846FFF7B6F91E
:10225000B0EE080A5046FFF7B1F9B7EE000A404663
:10226000FFF7ACF9B0EE000A4846FFF7A7F90020E7
:10227000B0EE480AFFF7A2F9B1EE000A4846FFF7B0
:102280009DF90020B7EE000AFFF798F9B0EE000ABA
:102290004846FFF793F99FEDFE0A0020FFF78EF9FD
:1022A000B0EE000A4846FFF789F9B0EE000A404652
:1022B000FFF784F9B0EE000A5046FFF77FF9DC2003
:1022C000B1EE080AFFF77AF90020B0EE000AFFF736
:1022D00075F9DC20B0EE000AFFF770F9B0EE000AE5
:1022E0005046FFF76BF9B0EE000A4046FFF766F97B
:1022F000B0EE000A4846FFF761F9B1EE080A404621
:10230000FFF75CF90020B0EE000AFFF757F9B1EED5
:10231000000A5046FFF752F9B1EE000A40F25D1094
:10232000FFF74CF9B1EE080AAB462846FFF746F92D
:10233000B0EE000A5046FFF741F9B0EE000A5846E9
:10234000FFF73CF9B7EE000A5046FFF737F9B0EE59
:10235000080A5846FFF732F9B1EE000AA2462046B5
:10236000FFF72CF9B1EE080A3846FFF727F9B0EE6F
:10237000000A4C464846FFF721F9B0EE000A4546F0
:102380004046FFF71BF9B0EE000A4FF4A570FFF7C7
:1023900015F9B1EE000A5846FFF710F94FF4DC7852
:1023A000B1EE000A4046FFF709F9B7EE000A5846B9
:1023B000FFF704F9B0EE080A4046FFF7FFF8B7EE62
:1023C000000A5846FFF7FAF8DFEDB28A0020B0EEB7
:1023D000680AFFF7F3F8B0EE080A5846FFF7EEF880
:1023E0000020B0EE680AFFF7E9F8B1EE000A58469F
:1023F000FFF7E4F8B2EE000A2846FFF7DFF8B1EE87
:10240000000A4FF4A570FFF7D9F8B1EE000A40F2C8
:102410005D10FFF7D3F8B1EE080A5846FFF7CEF883
:10242000B0EE000A4FF4A570FFF7C8F8B0EE000A4E
:102430005846FFF7C3F8B7EE000A4FF4A570FFF750
:10244000BDF8B0EE080A5846FFF7B8F8B1EE000A3A
:102450005046FFF7B3F8B1EE080A3846FFF7AEF87A
:10246000B0EE000A2046FFF7A9F8B0EE000A2846B1
:10247000FFF7A4F8B0EE000A4FF4A570FFF79EF83E
:10248000B1EE000A5046FFF799F8B1EE080A40464F
:10249000FFF794F80020B0EE480AFFF78FF8B0EE8F
:1024A000000A4046FFF78AF8B7EE000A5846FFF7E1
:1024B00085F8B0EE080A4046FFF780F8B1EE000A52
:1024C0003846FFF77BF8B1EE080A3046FFF776F89A
:1024D0000020B0EE000AFFF771F8B0EE000A58468F
:1024E000FFF76CF8B0EE000A3846FFF767F8B7EE72
:1024F000000A5046FFF762F8B2EE080A3846FFF7C6
:102500005DF80020B1EE000AFFF758F80020B0EEA9
:10251000000AFFF753F8B0EE000A4FF4A570FFF77A
:102520004DF80020B0EE480AFFF748F8B0EE000A78
:102530004FF4A570FFF742F8B7EE000A2846FFF700
:102540003DF8B0EE080A4FF4A570FFF737F8B0EE8B
:10255000000A2846FFF732F8B0EE000A4FF4A570E3
:10256000FFF72CF8B0EE000A5846FFF727F80020D6
:10257000B0EE000AFFF722F8B0EE000A4FF4A570A3
:10258000FFF71CF80020B0EE480AFFF717F8B0EE8E
:10259000000A4FF4A570FFF711F8B7EE000A2846BD
:1025A000FFF70CF8B0EE080A4FF4A570FFF706F835
:1025B000B0EE000A2846FFF701F8B0EE000A4FF42B
:1025C000A570FEF7FBFFB1EE000A5846FEF7F6FFD6
:1025D000B1EE080A2046FEF7F1FF0020B0EE000A37
:1025E000FEF7ECFFB0EE000A4FF4A570FEF7E6FF31
:1025F0000020B0EE480AFEF7E1FFB0EE000A4FF40B
:10260000A570FEF7DBFFB7EE000A2846FEF7D6FFFF
:10261000B0EE080A4FF4A570FEF7D0FFB0EE000A46
:102620002846FEF7CBFFB0EE000A2046FEF7C6FFB5
:10263000B0EE000A2846FEF7C1FF0020B0EE000A07
:10264000FEF7BCFFB0EE000A4FF4A570FEF7B6FF30
:10265000B0EE000A4FF4A570FEF7B0FFB7EE000A27
:102660002846FEF7ABFFB0EE080A4FF4A570FEF760
:10267000A5FFB0EE000A2846FEF7A0FFB0EE000A64
:102680004FF4A570FEF79AFFB0EE000A584603E03B
:10269000CDCC4C3DCDCCCC3DFEF790FF0020B0EE34
:1026A000000AFEF78BFFB0EE000A4FF4A570FEF7AC
:1026B00085FF0020B0EE480AFEF780FFB0EE000A6A
:1026C0004FF4A570FEF77AFFB7EE000A2846FEF732
:1026D00075FFB0EE080A4FF4A570FEF76FFFB0EE7D
:1026E000000A2846FEF76AFFB0EE000A4FF4A57014
:1026F000FEF764FFB1EE000A3846FEF75FFFB1EE69
:10270000080A2046FEF75AFF0020B0EE000AFEF746
:1027100055FFB0EE000A4FF4A570FEF74FFFB0EE84
:10272000000A4FF4A570FEF749FFB7EE000A2846ED
:10273000FEF744FFB0EE080A4FF4A570FEF73EFF27
:10274000B0EE000A2846FEF739FFF720B0EE000A87
:10275000FEF734FFDC20B7EE000AFEF72FFFC4209F
:10276000B1EE040AFEF72AFF0020B7EE000AFEF7DA
:1027700025FFC420B7EE000AFEF720FF0020B0EED0
:10278000480AFEF71BFFC420B7EE000AFEF716FF4B
:102790000020B0EE480AFEF711FFC420B7EE000A91
:1027A000FEF70CFFB1EE000A5846FEF707FFB0EE49
:1027B000080A4FF4A570FEF701FFB7EE000A28469D
:1027C000FEF7FCFEB0EE000A2046FEF7F7FE002002
:1027D000B0EE480AFEF7F2FEB1EE000A2046FEF720
:1027E000EDFE0020B7EE000AFEF7E8FEB0EE000AAC
:1027F0002046FEF7E3FE0020B0EE480AFEF7DEFEBC
:10280000B0EE000A2046FEF7D9FEB0EE000A2846D8
:10281000FEF7D4FEB0EE000A4FF4A570FEF7CEFE30
:10282000DC20B1EE080AFEF7C9FE0020B0EE000A77
:10283000FEF7C4FEDC20B0EE000AFEF7BFFEB0EEED
:10284000000A4FF4A570FEF7B9FEB0EE000A284664
:10285000FEF7B4FEB0EE000A2046FEF7AFFEB2EE81
:10286000040A2846FEF7AAFE0020B1EE000AFEF791
:10287000A5FEB1EE000A4FF4A570FEF79FFEB1EE83
:10288000000A40F25D10FEF799FEB1EE080A5846C4
:10289000FEF794FEB0EE000A4FF4A570FEF78EFE30
:1028A000B0EE000A5846FEF789FEB7EE000A4FF474
:1028B000A570FEF783FEB0EE080A5846FEF77EFECE
:1028C000B1EE000A5046FEF779FEB1EE080A38462E
:1028D000FEF774FEB0EE000A2046FEF76FFEB0EE83
:1028E000000A2846FEF76AFEB0EE000A4FF4A57013
:1028F000FEF764FEB1EE000A5846FEF75FFEB1EE49
:10290000040A4046FEF75AFEB7EE000A5846FEF7A4
:1029100055FEB0EE000A4046FEF750FEB7EE000A44
:102920005846FEF74BFE0020B0EE480AFEF746FE82
:10293000B0EE080A5846FEF741FE0020B0EE680AE5
:10294000FEF73CFEB0EE000A2846FEF737FE0020F8
:10295000B0EE680AFEF732FEB2EE000A2846FEF735
:102960002DFEB1EE000A4FF4A570FEF727FEB1EE82
:10297000000A40F25D10FEF721FEB1EE000A584653
:10298000FEF71CFE0020B6EE000AFEF717FEB0EEC2
:10299000000A5846FEF712FEB7EE000A4FF4A57083
:1029A000FEF70CFEB0EE080A5846FEF707FEB1EE41
:1029B000000A3046FEF702FEB1EE080A3846FEF77E
:1029C000FDFDB0EE000A2046FEF7F8FDB0EE000A6D
:1029D0002846FEF7F3FDB0EE000A4FF4A570FEF7AF
:1029E000EDFDB1EE000A3846FEF7E8FDB1EE040A4F
:1029F0004046FEF7E3FDB7EE000A5846FEF7DEFD5F
:102A0000B0EE000A4046FEF7D9FDB7EE000A584680
:102A1000FEF7D4FDB0EE080A4046FEF7CFFDB1EE5A
:102A2000000A3846FEF7CAFDB1EE080A3046FEF746
:102A3000C5FD0020B0EE000AFEF7C0FDB0EE000AB2
:102A40002846FEF7BBFDB0EE000A4FF4A570FEF776
:102A5000B5FDB7EE000A2846FEF7B0FDB2EE080A53
:102A60002046FEF7ABFD0020B1EE000AFEF7A6FD02
:102A7000B1EE000A4FF4A570FEF7A0FDB1EE000A1A
:102A800040F25D10FEF79AFDB1EE080A5846FEF7D7
:102A900095FDB0EE000A4FF4A570FEF78FFDB0EE85
:102AA000000A5846FEF78AFDB7EE000A4FF4A570FB
:102AB000FEF784FDB0EE080A5846FEF77FFDB1EE42
:102AC000000A5046FEF77AFDB1EE080A3846FEF7D6
:102AD00075FDB0EE000A2046FEF770FDB0EE000A6C
:102AE0002846FEF76BFDB0EE000A4FF4A570FEF726
:102AF00065FDB1EE000A5846FEF760FDB1EE040A2E
:102B00004046FEF75BFDB7EE000A5846FEF756FD5D
:102B1000B0EE000A4046FEF751FDB7EE000A5846F7
:102B2000FEF74CFD0020B0EE680AFEF747FDB0EE60
:102B3000080A5846FEF742FD0020B0EE680AFEF78C
:102B40003DFDB1EE000A5846FEF738FDB2EE000A30
:102B50002846FEF733FDB1EE000A4FF4A570FEF7EC
:102B60002DFDB1EE000A40F25D10FEF727FDB1EE3B
:102B7000080A5846FEF722FDB0EE000A4FF4A57091
:102B8000FEF71CFDB0EE000A5846FEF717FDB7EE43
:102B9000000A4FF4A570FEF711FDB0EE080A584682
:102BA000FEF70CFDB1EE000A5046FEF707FDB1EE50
:102BB000080A3846FEF702FDB0EE000A2046FEF78E
:102BC000FDFCB0EE000A2846FEF7F8FCB0EE000A65
:102BD0004FF4A570FEF7F2FCB1EE000A3846FEF79E
:102BE000EDFCB1EE080A4046FEF7E8FC0020B0EE2E
:102BF000480AFEF7E3FCB0EE000A4046FEF7DEFCB2
:102C0000B7EE000A5846FEF7D9FCB0EE080A404677
:102C1000FEF7D4FCB1EE000A3846FEF7CFFCB1EE69
:102C2000080A3046FEF7CAFCB1EE000A4FF4A57060
:102C3000FEF7C4FCB1EE000A40F25D10FEF7BEFCE8
:102C4000B1EE080A5846FEF7B9FCB0EE000A4FF4A0
:102C5000A570FEF7B3FCB0EE000A5846FEF7AEFCD6
:102C6000B7EE000A4FF4A570FEF7A8FCB0EE080A14
:102C70005846FEF7A3FCB1EE000A5046FEF79EFC54
:102C8000B1EE080A3846FEF799FCB0EE000A20467D
:102C9000FEF794FCB0EE000A2846FEF78FFCB0EE7B
:102CA000000A4FF4A570FEF789FCB1EE000A584601
:102CB000FEF784FCB1EE040A4046FEF77FFCB7EE57
:102CC000000A5846FEF77AFCB0EE000A4046FEF7CE
:102CD00075FCB7EE000A5846FEF770FC0020B0EE17
:102CE000680AFEF76BFCB0EE080A5846FEF766FC71
:102CF0000020B0EE680AFEF761FCB1EE000A58460B
:102D0000FEF75CFCB2EE000A2846FEF757FCB1EE77
:102D1000000A4FF4A570FEF751FCB1EE000A40F234
:102D20005D10FEF74BFCB1EE000A5846FEF746FC7C
:102D30000020B7EE000AFEF741FCB0EE000A58464C
:102D4000FEF73CFCB7EE000A4FF4A570FEF736FC28
:102D5000B0EE080A5846FEF731FCB1EE000A3046E4
:102D6000FEF72CFCB1EE080A3846FEF727FCB0EE61
:102D7000000A2046FEF722FCB0EE000A2846FEF7C5
:102D80001DFCB0EE000A4FF4A570FEF717FCB1EE83
:102D9000000A3846FEF712FCB1EE040A4046FEF780
:102DA0000DFCB7EE000A5846FEF708FCB0EE000A2C
:102DB0004046FEF703FCB7EE000A5846FEF7FEFB5E
:102DC000B0EE080A4046FEF7F9FBB1EE000A3846BD
:102DD000FEF7F4FBB1EE080A3046FEF7EFFB0020E9
:102DE000B0EE000AFEF7EAFBB0EE000A5846FEF726
:102DF000E5FBB0EE000A3846FEF7E0FBB7EE000A4E
:102E00005046FEF7DBFBB2EE080A3846FEF7D6FB6B
:102E10000020B1EE000AFEF7D1FBB1EE000A4FF43C
:102E2000A570FEF7CBFBB1EE000A2846FEF7C6FB05
:102E3000B1EE000A2046FEF7C1FBB1EE000A58468B
:102E4000FEF7BCFBB1EE000A2046FEF7B7FBB1EE81
:102E5000000A2846FEF7B2FBB1EE000A4FF4A57057
:102E6000FEF7ACFBB1EE000A40F25D10FEF7A6FBE8
:102E7000B1EE000A5846FEF7A1FBB1EE000A40F29F
:102E80005D10FEF79BFBB1EE000A4FF4A570FEF754
:102E900095FBB1EE000A2846FEF790FBB1EE000A62
:102EA0002046FEF78BFBB1EE000A2846FEF786FBB4
:102EB000B1EE000A4FF4A570FEF780FBB1EE000AF8
:102EC00040F25D10FEF77AFBB1EE000A4FF4A570F8
:102ED000FEF774FBB1EE000A2846FEF76FFBB1EE79
:102EE000000A2046FEF76AFBB1EE000A5846FEF7DC
:102EF00065FBB1EE000A4FF4A570FEF75FFBB1EE83
:102F0000000A2846FEF75AFBB1EE000A4FF4A570FE
:102F1000FEF754FBB1EE000A40F25D10FEF74EFBE7
:102F2000B1EE000A5846FEF749FBB1EE000A40F246
:102F30005D10FEF743FBB1EE000A4FF4A570FEF7FB
:102F40003DFBB1EE000A2846FEF738FBB1EE000A61
:102F50004FF4A570FEF732FBB1EE000A2846FEF7EB
:102F60002DFBB1EE000A4FF4A570FEF727FBB1EE82
:102F7000000A40F25D10FEF721FBB1EE000A4FF4AB
:102F8000A570FEF71BFBB1EE000A2846FEF716FB04
:102F9000B1EE000A2046FEF711FBB1EE000A5846DA
:102FA000FEF70CFBB1EE000A2046FEF707FBB1EE80
:102FB000000A2846FEF702FBB1EE000A4FF4A570A6
:102FC000FEF7FCFAB1EE000A40F25D10FEF7F6FAE9
:102FD000B1EE000A5846FEF7F1FAB1EE000A40F2EF
:102FE0005D10FEF7EBFAB1EE000A4FF4A570FEF7A4
:102FF000E5FABDEC028B2846B1EE000ABDE8F05FB1
:10300000FEF7DCBAFDF768FBFEF7FEFAFEF77CFA86
:10301000FEF798FAFEF712FEFEE74FF04070E1EE81
:10302000100A7047000000000102030401020304BB
:1030300006070809543000080000002418000000AA
:10304000080300086C30000818000024B0060000D7
:10305000240300080000803F010000001000000071
:0C306000000000000090D0030090D0039E
:04000005080002CD20
:00000001FF
