S31508000000D00600206D0300080F16000859150008D1
S315080000100D16000873040008611C000800000000A3
S315080000200000000000000000000000004B16000859
S315080000307504000800000000491600084D1600085F
S31508000040870300088703000887030008870300085A
S31508000050870300088703000887030008870300084A
S31508000060870300088703000887030008870300083A
S31508000070870300088703000887030008870300082A
S31508000080870300088703000887030008870300081A
S31508000090870300088703000887030008870300080A
S315080000A087030008870300088703000887030008FA
S315080000B087030008870300088703000887030008EA
S315080000C087030008870300088703000887030008DA
S315080000D087030008870300088703000887030008CA
S315080000E0870300088703000800000000870300084C
S315080000F087030008870300088703000887030008AA
S315080001008703000887030008870300088703000899
S315080001108703000887030008870300088703000889
S315080001208703000887030008870300088703000879
S315080001308703000887030008870300088703000869
S3150800014000000000000000000000000000000000A1
S315080001508703000887030008870300088703000849
S315080001608703000887030008870300088703000839
S3150800017087030008870300088703000800000000BB
S315080001808703000887030008870300088703000819
S315080001908703000887030008870300088703000809
S315080001A0870300088703000887030008000000008B
S315080001B087030008870300088703000887030008E9
S315080001C087030008870300080000000000000000FD
S315080001D0000000000000000087030008000000007F
S315080001E00000000000000000000000000000000001
S315080001F000000000000000008703000887030008CD
S31508000200870300088703000800000000870300082A
S315080002108703000887030008870300088703000888
S31508000220870300080000000087030008000000009C
S3150800023087030008870300080000000087030008FA
S315080002408703000887030008870300088703000858
S315080002508703000887030008870300088703000848
S315080002608703000887030008870300088703000838
S3150800027087030008870300088703000800000000BA
S315080002808703000887030008870300088703000818
S31508000290000000008703000887030008000000002C
S315080002A0000000008703000887030008870300088A
S315080002B087030008870300088703000887030008E8
S315080002C087030008870300088703000800F002F880
S315080002D000F03CF80AA090E8000C82448344AAF196
S315080002E00107DA4501D100F031F8AFF2090EBAE894
S315080002F00F0013F0010F18BFFB1A43F0010318474C
S31508000300803C0000A03C0000103A24BF78C878C1A1
S31508000310FAD8520724BF30C830C144BF04680C60FD
S31508000320704700000023002400250026103A28BF45
S3150800033078C1FBD8520728BF30C148BF0B60704749
S315080003401FB501F0AAFC1FBD10B510BD00F058F886
S315080003501146FFF7F5FF01F095FC00F076F803B4B7
S31508000360FFF7F2FF03BC00F07DF80000094880475C
S3150800037009480047FEE7FEE7FEE7FEE7FEE7FEE779
S31508000380FEE7FEE7FEE7FEE704480549054A064B91
S3150800039070470000E9160008CD020008D0000020CA
S315080003A0D0060020D0020020D00200204FF0000224
S315080003B000B5134694469646203922BFA0E80C504D
S315080003C0A0E80C50B1F12001BFF4F7AF090728BF28
S315080003D0A0E80C5048BF0CC05DF804EB890028BFA4
S315080003E040F8042B08BF704748BF20F8022B11F0CD
S315080003F0804F18BF00F8012B704770477047704749
S31508000400754600F02BF8AE4605006946534620F0BF
S315080004100700854618B020B5FFF7B6FFBDE82040AF
S315080004204FF000064FF000074FF000084FF0000BA2
S3150800043021F00701AC46ACE8C009ACE8C009ACE855
S31508000440C009ACE8C0098D46704710B50446AFF33D
S3150800045000802046BDE81040FFF781BF004870477E
S315080004606C00002001491820ABBEFEE726000200FA
S315080004707047FEE7704772B6FEE7000070B5114D8B
S315080004800F4C686804EB8001B1F9021011B934F811
S3150800049020205AB100EE101A34F92000B8EEC00A2E
S315080004A001F0B6F86868401C6860EBE7BDE8704084
S315080004B00122064804219FED040A01F08BBB0000C7
S315080004C0401E000800000020000000002000002058
S315080004D070B5044600F01CF90546601C02D00448B5
S315080004E00078044400F014F9401BA042FAD370BD0A
S315080004F0140000202DE9F84F03247A4D00234FF00D
S3150800050001094FF0B04B4FF00F0AE4E009FA03F681
S31508000510324078D00F7907F00307012F01D0022F58
S315080005201AD187684FEA430ED1F80CC004FA0EF8C0
S3150800053027EA08070CFA0EFC4CEA070CC0F808C0B4
S31508000540476891F804C0B743CCF3001C0CFA03FCC7
S315080005504CEA070CC0F804C00E79F643B6070BD070
S31508000560C6684FEA43088F6804FA08FC26EA0C06B0
S3150800057007FA08F73743C7600E7906F00306022E16
S3150800058012D1DE080F694FEA437C00EB8606B646B1
S31508000590366A4FEADC6C0AFA0CF807FA0CF726EA10
S315080005A008063743CEF820700F7906684FEA4308E5
S315080005B007F0030704FA08FC07FA08F726EA0C0608
S315080005C0374307604E6816F4403F1CD0464E3768DE
S315080005D047F00207376036689F0706F0020600965E
S315080005E023F0030606F1B046B6463F0FD6F8086470
S315080005F0DFF8F8800AFA07FC404526EA0C0603D11C
S315080006004FF0000C3AE065E0DFF8E4C0604502D13F
S315080006104FF0010C32E0DFF8DCC0604502D14FF044
S31508000620020C2BE0DFF8D0C0604502D14FF0030C76
S3150800063024E0DFF8C8C0604502D14FF0040C1DE085
S31508000640DFF8BCC0604502D14FF0050C16E0DFF8B4
S31508000650B4C0604502D14FF0060C0FE0DFF8A8C021
S31508000660604502D14FF0070C08E0DFF8A0C06045EE
S3150800067002D14FF0090C01E04FF00A0C0CFA07FC06
S315080006804CEA060CCEF808C44F68DBF80060FF0297
S3150800069026EA020600D516435F46CBF80060D1F875
S315080006A004C0DBF804605FEA8C2C26EA020600D553
S315080006B016437E606E684F6826EA0206BF0300D5B9
S315080006C016436E602E684F6826EA0206FF0300D5B9
S315080006D016432E605B1C0A6832FA03F67FF416AFDF
S315080006E0BDE8F88F80000058F4440258000002580C
S315080006F00004025800080258000C0258001002585C
S315080007000014025800180258001C02580024025807
S31508000710014880687047000014000020024881687C
S31508000720027811448160704714000020032010B538
S3150800073000F078F800F0E0F90F4A104914681368D9
S31508000740C4F3032203F00F038A5CC95C02F01F029C
S3150800075001F01F01D0400A4A20FA01F11160094947
S3150800076008600F2000F010F808B1012010BD00F055
S315080007702BF8002010BD000018440258703F0008EE
S31508000780100000200C00002070B50D4D0446287896
S31508000790A0B14FF47A71B1FBF0F00A490968B1FBD0
S315080007A0F0F000F0D8FC48B9102C07D200222146F8
S315080007B0501E00F017F800206C6070BD012070BD57
S315080007C0140000200C000020054808B5016841F017
S315080007D002010160006800F00200009008BD0000F8
S315080007E0F44402580E4BF0B41B680D46C3F30223BB
S315080007F0C3F10706042E00D90426191D072901D2BC
S31508000800002300E0DB1E012404FA06F19C40491E81
S315080008102940641E994014402143F0BC01F021BAD6
S315080008200CED00E0064900F0070210B54FF6FF048C
S315080008300868044B204040EA02201843086010BDAF
S315080008400CED00E00000FA05134970B50A68D243BA
S31508000850520705D5096801F00701814213D118E04E
S315080008600A6822F0070202430A60FFF751FF0A4DA1
S315080008704FF47A760446083D07E000BFFFF748FFC5
S31508000880001BB04201D9012070BD2868C04380040E
S31508000890F4D4002070BD00000C4802582DE9F05F22
S315080008A004000F467ED0DFF83882D8F8000000F042
S315080008B00F00B8420CD2D8F8001021F00F013943C6
S315080008C0C8F80010D8F8000000F00F00B84269D147
S315080008D02078844D40070AD52069296801F07001FF
S315080008E0884204D9296821F07001014329602078DB
S315080008F07C4E361D00070AD56069316801F0700123
S31508000900884204D9316821F07001014331602078AA
S31508000910C0060AD5A069316801F4E061884204D9A5
S31508000920316821F4E061014331602078DFF8B4B121
S3150800093080060BF1080B0CD5E1695846DBF8002058
S3150800094002F07002914204D9026822F070020A434A
S315080009500260207880070AD5E068296801F00F014F
S31508000960884204D9296821F00F01014329602078BB
S31508000970C0073ED05B49A2682868183920F4706021
S31508000980104328606068022818D0032819D009681F
S31508000990012819D0490700294ADADFF848A1AAF13F
S315080009A0080A00E044E0DAF8002022F007020243D1
S315080009B0CAF80020FFF7ACFE814612E009688903F1
S315080009C0E9E709688901E6E7C905E4E7FFF7A0FE54
S315080009D0A0EB090141F28830814202D90320BDE823
S315080009E0F09F6168DAF8000000F03800B0EBC10F3C
S315080009F0ECD1207880070AD5E068296801F00F0154
S31508000A00884204D2296821F00F0101432960D8F8E9
S31508000A100010404601F00F01B9420BD9016821F0D8
S31508000A200F0139430160006800F00F00B84201D099
S31508000A300120D4E7207840070AD52069296801F003
S31508000A407001884204D2296821F0700101432960A7
S31508000A50207800070AD56069316801F0700188427C
S31508000A6004D2316821F07001014331602078C00654
S31508000A700AD5A069316801F4E061884204D2316878
S31508000A8021F4E06101433160207880060CD5E169E4
S31508000A905846DBF8002002F07002914204D2026840
S31508000AA022F070020A43026000F026F80E492A680E
S31508000AB02B68C2F3032203F00F038A5CC95C02F0B9
S31508000AC01F0201F01F01D040084A20FA01F1116007
S31508000AD00749086007480068BDE8F05FFFF754BE9D
S31508000AE00020005218440258703F000810000020E9
S31508000AF00C00002018000020454970B545480968D3
S31508000B00434B103B11F0380208D00111082A03D0D4
S31508000B10102A0BD0182A0BD0084670BD196889060A
S31508000B20FBD51968C1F3C101C84070BD3A4870BD0C
S31508000B303749374D18310C1D24350A680968266867
S31508000B402D6802F0030406F00102C1F30511C5F38E
S31508000B50CC0515FB02F200EE102AB8EE400AE9B3FE
S31508000B602F4ADFED2E0AB7EE001A6CB1DFED2D1A0B
S31508000B70012C01D0022C43D002EE101A1068F8EEB0
S31508000B80422A81EEA22A1EE01C68A40611D51B681B
S31508000B9001EE901A1168C3F3C103F8EE612AD84032
S31508000BA001EE900AC1F30800F8EE611A81EEA22A56
S31508000BB00BE001EE901ADFED1C2A00BFF8EE611A71
S31508000BC0106882EEA12AC0F3080001EE900AF8EE3A
S31508000BD0611A40EE201A31EE810A00E015E022EE95
S31508000BE0000A1068C0F34620401C00EE900AF8EE92
S31508000BF0600A80EE201ABCEEC10A10EE100A70BD1B
S31508000C0001EE901ADFED092AD8E7002070BD000032
S31508000C10104402580090D00300366E0100000039D7
S31508000C20304402580024744A0024744C001BB74B05
S31508000C302DE9F05F04007DD0FF4F2078FE4D183770
S31508000C40DFF8F483103DC00748D0D8F800003968AB
S31508000C5000F03800102815D0182803D101F0030039
S31508000C6002280FD06068B0F5803F12D010B1B0F5F9
S31508000C70A02F18D0286820F480302860286820F42F
S31508000C80802009E02868800328D560680028D2D02B
S31508000C9024E0286840F480302860606888B1FFF74F
S31508000CA037FD064609E0286840F480202860F0E70A
S31508000CB0FFF72EFD801B64287ED828688003F7D5A9
S31508000CC00CE0FFF725FD064605E000BFFFF720FD0F
S31508000CD0801B6428F0D828688003F7D4207880071A
S31508000CE056D5D8F80000DFF85093396810F0380068
S31508000CF0A9F10C090ED0182801D188070AD0E06896
S31508000D00A8B3296821F0190101432960FFF700FDFE
S31508000D10064628E02868400702D5E06800288AD0F9
S31508000D20E168286820F0190008432860FFF7F0FCFE
S31508000D30064606E0D2E000BFFFF7EAFC801B022861
S31508000D40BAD828684007F7D5217CD9F8002022F0C0
S31508000D50FE4242EA0161C9F8001019E0FFF7D8FC23
S31508000D60801B0228A8D828684007F7D5ECE7FFE7D4
S31508000D70286820F001002860FFF7CAFC064604E050
S31508000D80FFF7C6FC801B022896D828684007F7D4C8
S31508000D902078C00646D5D8F80000DFF89C92396856
S31508000DA000F03800A9F10409082812D0182805D13E
S31508000DB001F00300012800E0CEE00AD0E06900282F
S31508000DC0286820D040F080002860FFF7A1FC06467E
S31508000DD015E02868C00502D5E06980287ED194F818
S31508000DE02010D9F8002022F07C5242EA0161C9F8A5
S31508000DF0001017E0FFF78CFC801B0228A0D8286893
S31508000E00C005F7D5EBE720F080002860FFF780FCE7
S31508000E10064604E0FFF77CFC801B022890D8286869
S31508000E20C005F7D42078000729D58348616964305E
S31508000E3000298146016811D041F001010160FFF7E0
S31508000E4067FC064605E000BFFFF762FC801B022828
S31508000E5088D8D9F800008007F6D510E021F00101FE
S31508000E600160FFF755FC064605E000BFFFF750FC9A
S31508000E70801B022870D8D9F800008007F6D420789D
S31508000E80800623D5A0690028286810D040F4805031
S31508000E902860FFF73DFC064605E000BFFFF738FC73
S31508000EA0801B022858D828688004F7D50EE020F45D
S31508000EB080502860FFF72CFC064604E0FFF728FC64
S31508000EC0801B022848D828688004F7D42078400771
S31508000ED051D5DFF86891D9F8001000E015E141F422
S31508000EE08071C9F80010FFF713FC064605E000BF3D
S31508000EF0FFF70EFC801B64282ED8D9F80000C00521
S31508000F00F6D54D4EA068603601280AD008B10528E6
S31508000F1013D0306820F001003060306820F00400FB
S31508000F2002E0306840F001003060A06841F2883A7B
S31508000F3098B1FFF7EDFB81460AE0306840F00400FF
S31508000F403060EEE7FFF7E4FBA0EB0901514503D853
S31508000F5030688007F6D50EE072E0FFF7D9FB8146C8
S31508000F6006E000BFFFF7D4FBA0EB0901514567D89F
S31508000F7030688007F6D4606A00287CD0DFF8B8A00D
S31508000F80D8F800100AF1200A4FF6F87B0AF104088F
S31508000F90C1F3C2010329AAF104096DD00228286801
S31508000FA020F08070286003D0FFF7B2FB044681E08A
S31508000FB0FFF7AEFB064604E0FFF7AAFB801B0228F4
S31508000FC075D828688001F7D4E26A40F2F3313868A8
S31508000FD054F8283F884340EA021018433860217BBA
S31508000FE04FF4FE0C22894FF0FE47208A4902267DDF
S31508000FF0521E401EA1F5007189B2C2F308021143C0
S31508001000761E0CEA00400143484607EA0662114389
S31508001010CAF80010D9F8001021F00101C9F800102B
S31508001020D8F80030266A23EA0B0343EAC601C8F853
S315080010300010D9F8001004E010440258004802587D
S3150800104035E0A26921F00C011143C9F800100168C6
S31508001050E26921F0020111430160016841F480311F
S315080010600160016841F400310160016841F48021A2
S315080010700160016801E06CE020E041F001010160D7
S31508001080286840F080702860FFF742FB044604E0B9
S31508001090FFF73EFB001B022809D828688001F7D510
S315080010A057E000BFFFF734FB001B022802D90320D4
S315080010B0BDE8F09F28688001F4D44AE03968012821
S315080010C0DAF8000021D0A26A01F0030393421CD18A
S315080010D0E26AC1F305118A4217D1216BC0F30802EF
S315080010E0491E8A4211D1616BC0F34622491E9142BC
S315080010F00BD1A16BC0F30642491E914205D1E16BA3
S31508001100C0F30660491E814201D00120D0E7A16CD8
S315080011104646D8F80000C0F3CC00814219D0D9F869
S3150800112000004D4620F00100C9F80000FFF7F0FA6C
S315080011304FEA0007FFF7ECFAB842FBD0A26C30681A
S3150800114020EA0B0040EAC2003060286840F001003F
S3150800115028600020ACE7401EB0F1807F10B501D3AF
S31508001160012010BD4FF0E02460610F21601700F0E8
S3150800117078FD0020A0610721216110BDF0B590F827
S315080011803C20012A41D0224E012480F83C4002220C
S3150800119080F83D2002681F4D5368B242D2F808C055
S315080011A001D0AA4203D14F6823F470033B430F686A
S315080011B023F070031F4357600268B24219D0B2F198
S315080011C0804F16D0144B9A4213D0144B9A4210D023
S315080011D0134B9A420DD0AA420BD0124B9A4208D012
S315080011E0114B9A4205D0114B9A4202D0104B9A42A3
S315080011F004D189682CF0800319439160002180F896
S315080012003D4080F83C100846F0BD0220F0BD0000C5
S3150800121000000140000401400004004000080040AE
S31508001220000C0040001800400040014000E000406B
S3150800123000E4004010B586B0044614216846FFF75E
S31508001240B5F80D492068884214D10C48016841F068
S31508001250020101600068002100F0020005900220EA
S3150800126082030092CDE90101CDE9031004486946DD
S31508001270FFF740F906B010BD00180040E0440258D8
S315080012800004025870B5044690F83C0000260D4646
S3150800129001280BD0012084F83C000C2A4AD007DC30
S315080012A082B1042A20D0082A06D131E0022070BD76
S315080012B0102A53D0142A63D00126002084F83C0053
S315080012C0304670BD206800F0E9FA2068816941F06F
S315080012D0080181612068816921F004018161206823
S315080012E02A698169114311E0206800F02BFB206808
S315080012F0816941F4006181612068816921F4806116
S31508001300816120682969826942EA01218161D4E7FD
S31508001310206800F063FB2068C16941F00801C161DB
S315080013202068C16921F00401C16120682A69C16980
S31508001330114311E0206800F09DFB2068C16941F463
S315080013400061C1612068C16921F48061C1612068BA
S315080013502969C26942EA0121C161AEE7206800F045
S31508001360C5FB2068416D41F0080141652068416D63
S3150800137021F00401416520682A69416D114311E095
S31508001380206800F0EDFB2068416D41F4006141657D
S315080013902068416D21F48061416520682969426DA4
S315080013A042EA0121416588E710B5040003D094F8A4
S315080013B03D0010B107E0012010BD002084F83C0074
S315080013C0204600F023F8022084F83D002068211DFD
S315080013D000F0EAF9012084F8480084F83E0084F811
S315080013E03F0084F8400084F8410084F8420084F8FD
S315080013F0430084F8440084F8450084F8460084F8DD
S31508001400470084F83D00002010BD000008B50068BC
S315080014100649884208D10648016841F04001016042
S31508001420006800F04000009008BD00000018004069
S31508001430E844025830B504464FF0020269B104295F
S3150800144012D0082917D00C291CD0102921D094F8BD
S315080014504300012824D0012030BD94F83E0001281D
S31508001460F9D184F83E201DE094F83F000128F2D116
S3150800147084F83F2016E094F840000128EBD184F860
S3150800148040200FE094F841000128E4D184F8412077
S3150800149008E094F842000128DDD184F8422001E0F2
S315080014A084F843200122206800F0EAF91E492068E2
S315080014B01E4A1F4B884209D0904207D0984205D051
S315080014C01C4DA84202D01C4DA84203D1456C45F4D8
S315080014D0004545642068884218D0B0F1804F15D081
S315080014E01649884212D0164988420FD015498842B3
S315080014F00CD090420AD01449884207D0984205D0A9
S315080015001249884202D01249884207D18168114A95
S315080015101140062906D0B1F5803F03D0016841F095
S3150800152001010160002030BD0000014000040140B7
S3150800153000400140004401400048014000040040CA
S3150800154000080040000C00400018004000E0004081
S3150800155000E4004007000100FEE700000D4808B55A
S31508001560016841F080010160016801F08001009185
S31508001570016841F002010160016801F00201009171
S31508001580016841F001010160006800F00100009067
S3150800159008BD0000E044025810B58AB00024684629
S315080015A01C21079408940994FEF700FF164840F298
S315080015B0CF711722134BC0E9024104618461C0E967
S315080015C00032FFF7F1FE08B1FEF755FF0E4807A9EE
S315080015D007940994FFF7D2FD08B1FEF74CFF602087
S315080015E04FF47A718DE8130007480422694604947B
S315080015F0FFF748FE08B1FEF73EFF0348FFF71AFE5D
S315080016000AB010BD0018004020000020FEE7FEE7E3
S3150800161010B50B4902460B482DED028BB0EE408AF9
S3150800162091ED000A042100F0D5FABCEEC80ABDEC1B
S31508001630028B10EE100ABDE81040FEF749BF000005
S31508001640000000202000002070477047FFF766B8AA
S3150800165070B59CB04C216846FEF7A8FE202113A859
S31508001660FEF7A4FE0220FFF7EFF81E48016821F4F2
S31508001670404101600168002401F440411B91016862
S315080016808904FCD502200A9028230990C203012167
S315080016900D910425CDE90012CDE90B030C26129411
S315080016A0CDE90E50CDE910646846FFF7C1FA08B1D6
S315080016B072B6FEE740201A9008230501CDE91630D8
S315080016C013ABCDE918053F21032283E8160013A8BA
S315080016D01146FFF7E3F8002801D072B6FEE71CB002
S315080016E070BD0000184802582748F0B5274A016817
S315080016F041F470010160106800F00F00072804D259
S31508001700106820F00F00C01D106021490020204CF1
S3150800171010340B681F4D43F001030B6020600B6803
S315080017202B400B60136803F00F03072B04D91368CB
S3150800173023F00F03DB1D1360154C174A1834174B9B
S31508001740261D371D2060124C154D28343060261D85
S315080017503860371D23603B1D35601C1D3A60251D0A
S315080017602E1D1860331D22602860326018600A68D2
S3150800177043F2D204064B0B4D22F4802260330A60F2
S3150800178018602C60F0BD000088ED00E000200052D3
S31508001790004402587FEDF6EA8002010100020202C7
S315080017A00000FF01004000522DE9F0472A4B4FF098
S315080017B0804A2A4D02689842294E2A4F2A4C09D057
S315080017C0504507D0A84205D0B04203D0B84201D050
S315080017D0A04205D1D1F804C022F070024CEA0202F8
S315080017E0DFF888C0DFF888809842DFF8889015D03F
S315080017F0504513D0A84211D0B0420FD0B8420DD0F0
S31508001800A0420BD0604509D0404507D0484505D0D1
S31508001810194DA84202D0194DA84203D1CD6822F429
S3150800182040722A434D6922F080022A430260984298
S315080018308A68C2620A68826207D0A04205D06045FB
S3150800184003D0404501D0484501D10969016301210A
S315080018504161BDE8F0870000000001400004004037
S3150800186000080040000C0040000401400040014010
S31508001870004401400048014000E0004000E4004008
S3150800188010B5046A012301F01F018B409C430462D2
S315080018908A40016A1143016210BD00002DE9F04F2C
S315080018A0026ADFF88880DFF8889022F00102DFF804
S315080018B084A0DFF884B0214F0262DFF884C0066A8C
S315080018C04268836926F002060D68B8428C6803EA06
S315080018D00C0323F0030344EA060445EA030507D08C
S315080018E0404505D0484503D0504501D0584505D157
S315080018F0CB6824F00804234323F00404B84207D035
S31508001900404505D0484503D0504501D0584505D136
S3150800191022F44076D1E9053233431A4342608561A1
S31508001920496841630462BDE8F08F00000004014085
S3150800193000400140004401400048014000000140C9
S315080019408FFFFEFFF0B5026A1E4E1F4C22F01002F2
S31508001950DFF878E00262056A4368826925F02005A7
S31508001960D1F808C0A0420F6802EA060222F44072C3
S3150800197045EA0C1542EA072201D0704506D1CE6821
S3150800198025F0800545EA061525F04005A0420AD04F
S31508001990704508D00E4CA04205D00E4CA04202D08D
S315080019A00D4CA04207D1D1E9054623F4406343EA2A
S315080019B0840343EA8603436082614968816305625A
S315080019C0F0BD0000FF8FFFFE00000140000401404B
S315080019D0004001400044014000480140F0B5026A59
S315080019E01E4F1F4E22F48072DFF878E00262056A05
S315080019F04368C26925F40075D1F808C0B0420C687E
S31508001A0002EA070222F0030245EA0C2544EA020428
S31508001A1001D0704506D1CF6825F4006242EA072254
S31508001A2022F48065B0420AD0704508D00E4A90422A
S31508001A3005D00E4A904202D00D4A904207D123F4AF
S31508001A404052D1E9053642EA031242EA06134360D8
S31508001A50C4614968C1630562F0BD00008FFFFEFFDF
S31508001A6000000140000401400040014000440140DC
S31508001A7000480140F0B5026A174B164F22F480520F
S31508001A8098420262046A4268C36924F400548E6864
S31508001A900D6803EA070323F4407344EA063443EA6D
S31508001AA005230BD00D4DA84208D00D4DA84205D0F0
S31508001AB00C4DA84202D00C4DA84204D14D6922F41F
S31508001AC0804242EA85124260C36149680164046241
S31508001AD0F0BD0000FF8FFFFE00000140000401403A
S31508001AE0004001400044014000480140F0B5026A48
S31508001AF0DFF854C022F480320262056A4268446DF7
S31508001B0025F400350E896045104F0B6804EA070472
S31508001B1045EA064543EA04030BD00D4CA04208D01B
S31508001B200C4CA04205D00C4CA04202D00B4CA04253
S31508001B3004D14C6922F4803242EA042242604365A9
S31508001B40496881650562F0BD000001408FFFFEFF10
S31508001B5000040140004001400044014000480140A3
S31508001B60F0B5026ADFF854C022F480120262046AF1
S31508001B704268436D24F400140E896045104F0D68C1
S31508001B8003EA070344EA065443EA05230BD00D4D3E
S31508001B90A84208D00C4DA84205D00C4DA84202D048
S31508001BA00B4DA84204D14D6922F4802242EA8522CF
S31508001BB0426043654968C1650462F0BD00000140A2
S31508001BC0FF8FFFFE00040140004001400044014031
S31508001BD000480140002A30B439D0B5EEC00AF1EE0B
S31508001BE010FA34D310EE103A1A4CA3422FDC1B4BD2
S31508001BF09FED191AB3FBF2F20468C0EE010AE2621D
S31508001C0000EE102AC260B8EE400A20EE800ABCEE4A
S31508001C10C00A10EE102A61B104290DD008290ED089
S31508001C200C290FD0036810290FD0DA6530BCFFF7EE
S31508001C3001BC03685A63F9E703689A63F6E7036821
S31508001C40DA63F3E703681A64F0E79A65EEE730BCEF
S31508001C50704700000000C8420000C842009F2400E8
S31508001C60FEE7090700284FEA116104DB00F1E020CE
S31508001C7080F80014704700F00F0000F1E02080F8AB
S31508001C80141D7047FEF752FDFFF7E2FCFFF766FCEE
S31508001C90FFF782FCFEF7F2FBFEE74FF04070E1EE3D
S31508001CA0100A7047B8011301930213019302130136
S31508001CB09302130193022602930213014B021301A6
S31508001CC00B0213010B0289004B0289000B02130158
S31508001CD0EE011301B8012602700313017003130104
S31508001CE070031301700313017003260270031301B6
S31508001CF010031301930213011003130110031301B8
S31508001D00BA02130193024C049302130170031301E0
S31508001D1070031301100313019302260293021301A1
S31508001D204B0213010B0213014B0213010B021301A1
S31508001D30EE011301B80126024A0126024A011301DF
S31508001D400B0213010B021301EE011301B80126025F
S31508001D50B8011301930213014B0213014B028900C8
S31508001D600B028900EE01130188011301B8014C0426
S31508001D70B80113019302130193021301930213018D
S31508001D8093022602930213014B0213010B0213015D
S31508001D900B0289004B0289000B021301EE011301A5
S31508001DA0B8012602700313017003130170031301AF
S31508001DB07003130170032602700313011003130145
S31508001DC0930213011003130110031301BA0213013E
S31508001DD093024C0493021301700313017003130159
S31508001DE01003130193022602930213014B021301F7
S31508001DF00B0213014B0213010B021301EE0113012F
S31508001E00B80126024A0126024A0113010B021301F0
S31508001E100B021301EE011301B8012602B8011301E2
S31508001E20930213014B0213014B0289000B0289002E
S31508001E30EE01130188011301B8014C0400000000EB
S31508001E407B010B007F010B0081010B0081010B0058
S31508001E507C010B0084010B0080010B0076010B004E
S31508001E6085010B0070000B0071000B0081000B0050
S31508001E7072000B006E010B006C010B0070010B0069
S31508001E8067010B0074000B0075000B0075000B0052
S31508001E9074000B0075000B0075000B0075000B0035
S31508001EA075000B0075000B0075000B0075000B0024
S31508001EB075000B0031010B00C4000B00C4000B00B9
S31508001EC03B000B003B000B003B000B003A000B00ED
S31508001ED03B000B003B000B003B000B0063000B00B4
S31508001EE094000B004A000B003B000B003B000B0064
S31508001EF04A000B003A000B003A000B0000000B00EA
S31508001F003A000B0075000B002A010B004D020B006E
S31508001F102D010B002A010B0029010B002B010B00D8
S31508001F2028010B0027010B002E010B0075000B0082
S31508001F3075000B00B2000B005A010B005F010B0085
S31508001F405E010B0060010B0059010B00B0000B008D
S31508001F50B6000B0057000B003A000B00AA000B0056
S31508001F60AB000B003B000B003B000B003A000B00DC
S31508001F703A000B0075000B0092000B0091000B0055
S31508001F8076000B0076000B0077000B0055020B005D
S31508001F9055020B004D020B0075000B0075000B0077
S31508001FA075000B002F010B002C010B002E010B00F6
S31508001FB033010B0039010B0040010B004B010B00EC
S31508001FC040010B0076000B00C3000B0049020B0012
S31508001FD04A020B0047020B0075000B0075000B0048
S31508001FE013020B0011020B000E020B000E020B006F
S31508001FF00F020B000E020B000E020B000B020B0069
S315080020000E020B0011020B000B020B000C020B0058
S315080020100E020B000D020B003F020B0049020B00DB
S3150800202046020B0049020B004C020B0045020B004E
S3150800203043020B0047020B0049020B0043020B0048
S3150800204044020B0049020B0046020B0048020B0033
S315080020504A020B0049020B0044020B004B020B001C
S315080020604F020B0047020B0075000B003B000B00EC
S3150800207097020B0099020B0096020B0092020B00C6
S315080020808F020B008F020B004B010B004C010B005B
S315080020908F020B0093020B0098020B0092020B00B2
S315080020A02B010B0042000B0042000B0015020B002F
S315080020B057000B0057000B0009010B00B1000B007D
S315080020C083000B0083000B0042000B0042000B004C
S315080020D041000B0084000B0083000B0083000B00FB
S315080020E083000B0083000B0084000B00AE000B007E
S315080020F083000B0083000B0083000B0083000B009A
S3150800210083000B0083000B0084000B0083000B0088
S3150800211084000B0083000B0083000B0084000B0077
S3150800212083000B00AA000B0084000B0041000B0083
S3150800213083000B0084000B0084000B0083000B0057
S3150800214083000B0083000B0083000B0083000B0049
S3150800215083000B0083000B0083000B0083000B0039
S3150800216083000B0083000B0083000B0083000B0029
S3150800217083000B0083000B0083000B0083000B0019
S3150800218083000B0083000B0083000B0083000B0009
S3150800219084000B0084000B0084000B0084000B00F5
S315080021A084000B0083000B0084000B0083000B00E7
S315080021B083000B0084000B0084000B0084000B00D6
S315080021C083000B0083000B0042000B0084000B0009
S315080021D083000B0042000B0042000B0042000B007C
S315080021E042000B0042000B0042000B0083000B006C
S315080021F083000B0083000B0083000B0083000B0099
S3150800220083000B0084000B0042000B004F020B00FA
S3150800221050020B0051020B004F020B004E020B003E
S315080022204D020B004D020B004E020B004E020B0036
S3150800223050020B004C020B004F020B005F020B0012
S3150800224071020B007A020B007E020B0083020B0060
S3150800225053000B0053000B0053000B006F020B00DA
S3150800226042000B0042000B0085000B0085000B00A6
S3150800227084000B0083000B0084000B0085000B0014
S3150800228084000B0083000B0084000B0083000B0006
S3150800229084000B0085000B0085000B0085000B00F1
S315080022A085000B0085000B0084000B0084000B00E2
S315080022B0A4000B0084000B0083000B00A4000B0095
S315080022C084000B0084000B006E000B006E000B00F0
S315080022D06F000B006E000B006E000B006E000B000B
S315080022E06E000B006E000B006E000B006F000B00FB
S315080022F06F000B006E000B006E000B006E000B00EB
S315080023006E000B006E000B006E000B006E000B00DB
S315080023106E000B006F000B006F000B006E000B00C9
S315080023206E000B006E000B006E000B006F000B00BA
S315080023306E000B006E000B006E000B006E000B00AB
S315080023406E000B006E000B006E000B006E000B009B
S315080023506E000B007D000B007D000B007D000B005E
S315080023607C000B007C000B007D000B007C000B0042
S315080023707D000B007D000B003E000B003E000B00AD
S3150800238078000B007B000B007D000B007C000B0027
S315080023907C000B007C000B007D000B007D000B0011
S315080023A07C000B007C000B003E000B003C000B0081
S315080023B07D000B007D000B007E000B007D000B00EE
S315080023C07D000B007E000B007F000B0082000B00D7
S315080023D06E000B0085000B0045000B0045000B0046
S315080023E045000B0046000B0046000B0046000B009C
S315080023F053000B0053000B0053000B0052000B0058
S315080024004A000B0045000B008A000B008A000B00EF
S31508002410A5000B00A5000B00A5000B004B010B0047
S315080024204B010B009A020B004C010B004D010B00EF
S315080024305E020B0056020B0055020B004F020B0002
S315080024404F020B0054020B0054020B004F020B0004
S315080024504D020B004F020B004C020B004A020B0008
S315080024604D020B006C020B0070000B006F000B0096
S315080024706F000B006F000B006F000B006F000B0066
S315080024806E000B006E000B006E000B006E000B005A
S315080024906E000B006E000B006E000B006E000B004A
S315080024A06E000B006E000B006F000B006E000B0039
S315080024B06D000B006E000B006E000B00CE020B00C9
S315080024C0C2020B00BF020B00BE020B00BC020B00CF
S315080024D0BE020B00BC020B00BF020B00C4020B00BD
S315080024E0BD020B00BF020B00C1020B00C6020B00A7
S315080024F08D000B004E000B0057000B0057000B0019
S3150800250057000B0057000B0057000B0057000B0035
S3150800251057000B0057000B0057000B0049000B0033
S315080025204A000B004B000B004A000B004A000B0048
S315080025304A000B004A000B004A000B004A000B0039
S315080025404A000B004A000B004A000B0047000B002C
S31508002550C5020B00C0020B00BE020B00C3020B0033
S31508002560C4020B00C3020B00BF020B00B9020B002A
S31508002570BA020B00C2020B0053000B0053000B00FB
S3150800258053000B0053000B0053000B0053000B00C5
S3150800259053000B0053000B0053000B0052000B00B6
S315080025A053000B0053000B0052000B0053000B00A6
S315080025B053000B0053000B0053000B0053000B0095
S315080025C052000B0053000B0053000B0053000B0086
S315080025D053000B0052000B005F000B005E000B005F
S315080025E052000B0052000B0052000B005E000B005D
S315080025F05D000B0053000B0053000B0055000B0049
S3150800260056000B0075000B0074000B0032010B001E
S3150800261075000B0056000B0056000B0056000B0009
S3150800262057000B0058000B0058000B0058000B0011
S3150800263058000B0058000B0058000B005A000B00FE
S3150800264058000B0057000B0058000B0058000B00F1
S3150800265058000B0058000B0057000B0058000B00E1
S315080026606F000B00BE010B00BD010B00BE010B0085
S31508002670BF010B00BD010B00BF010B00BC010B0025
S31508002680BB010B0094000B004A000B004A000B002C
S315080026904A000B0049000B004A000B004A000B00D9
S315080026A04A000B004A000B0049000B0056000B00BD
S315080026B04A000B0049000B0049000B0056000B00AE
S315080026C04A000B004A000B0049000B0049000B00AA
S315080026D049000B0049000B0049000B0049000B009C
S315080026E056000B0049000B0049000B0049000B007F
S315080026F049000B004A000B0049000B0049000B007B
S315080027004A000B0049000B004A000B004A000B0068
S3150800271076000B0057020B0051020B0075000B00E8
S3150800272075000B0075000B0075000B0075000B009B
S3150800273075000B0075000B0075000B0075000B008B
S3150800274074000B0075000B0027010B0026010B0017
S3150800275053020B004F020B0051020B0054020B00F0
S3150800276053020B0054020B004D020B004F020B00E4
S315080027704A020B0027010B0076000B0044020B00EF
S3150800278046020B0044020B0049020B0050020B00E4
S3150800279074000B0075000B002D010B0075000B0073
S315080027A075000B0075000B0075000B0075000B001B
S315080027B075000B0075000B0075000B0074000B000C
S315080027C075000B0075000B0075000B0075000B00FB
S315080027D076000B0047020B0042020B003E020B007C
S315080027E040020B003D020B0096000B0076000B0022
S315080027F03A000B0076000B0075000B0074000B0006
S3150800280075000B0074000B0075000B0077000B00B9
S315080028103A000B0075000B0057020B0055020B001F
S3150800282054020B0053020B0028010B0028010B0071
S3150800283075000B0075000B0075000B0028010B00D6
S31508002840C0000B0075000B002C010B0075000B0077
S3150800285075000B0075000B0075000B0075000B006A
S3150800286075000B0075000B00AF000B000D020B0086
S315080028700C020B000F020B000D020B000F020B00DF
S3150800288010020B000E020B000F020B000D020B00CC
S315080028900C020B000F020B000E020B000F020B00BE
S315080028A025020B0041020B0043020B0049020B00F4
S315080028B046020B0040020B0048020B0040020B00C8
S315080028C035020B003C020B003C020B0034020B00E5
S315080028D03A020B003D020B0037020B0032020B00D6
S315080028E027020B0026020B0023020B0009010B002E
S315080028F04B000B003B000B003B000B0097020B0044
S3150800290088020B008B020B0087020B0083020B0068
S315080029108F020B008B020B008B020B0090020B0040
S3150800292088020B0089020B0084000B0057000B007D
S3150800293008010B0009010B00AC000B00AC000B00F2
S315080029400A010B00AA000B0009010B0009010B0084
S3150800295083000B0083000B0010010B0083000B00A3
S31508002960AD000B00AF000B00AC000B00AC000B0079
S31508002970AD000B00AC000B00AC000B00AC000B006C
S31508002980AB000B00AE000B00AD000B00AA000B005D
S31508002990AB000B0083000B0083000B00AC000B00A0
S315080029A083000B0083000B0083000B0083000B00E1
S315080029B083000B0083000B0083000B0083000B00D1
S315080029C083000B0083000B0084000B0084000B00BF
S315080029D083000B0083000B0083000B0083000B00B1
S315080029E083000B0083000B0083000B0083000B00A1
S315080029F083000B0083000B0083000B0083000B0091
S31508002A0083000B0082000B0085000B004D010B00B4
S31508002A109D020B009D020B0099020B0098020B0009
S31508002A209C020B004C010B0083000B0084000B007A
S31508002A3084000B0084000B0087000B0049000B0084
S31508002A404A000B004A000B004A000B004E000B0020
S31508002A504E000B004E000B004F000B004A000B0007
S31508002A604E000B004E000B004E000B0049000B00F9
S31508002A704A000B004D000B004F000B004E000B00E8
S31508002A804A000B004A000B004D000B004A000B00E1
S31508002A90C4000B00C5000B005E020B005C020B00B5
S31508002AA0C4000B0093000B00C3000B0053020B007D
S31508002AB050020B0050020B0052020B0052020B0090
S31508002AC0A6000B00A5000B00A5000B00A6000B0036
S31508002AD0A5000B00A5000B00A5000B0053000B007A
S31508002AE0A5000B00A5000B0053000B0053000B00BC
S31508002AF053000B0053000B0053000B0053000B0050
S31508002B0053000B0052000B0052000B0052000B0042
S31508002B106F000B006F000B004A000B006F000B00E4
S31508002B206F000B0070000B0073000B006F000B00AA
S31508002B306F000B006F000B006F000B006F000B009F
S31508002B406F000B0049000B0049000B0057000B00F3
S31508002B504A000B004A000B0049000B0056000B0008
S31508002B6049000B0049000B0051000B0053000B00F5
S31508002B7052000B0051000B0051000B0049000B00DE
S31508002B8055000B0053000B0054000B0054000B00BB
S31508002B9054000B0053000B0048000B0049000B00C3
S31508002BA049000B0049000B0049000B0049000B00C7
S31508002BB049000B0049000B0049000B0049000B00B7
S31508002BC049000B0049000B0047000B00DD000B0015
S31508002BD057010B005A010B0046000B005B010B0066
S31508002BE05D010B005B010B0056010B0056010B0043
S31508002BF093000B0093000B0093000B0093000B004F
S31508002C0093000B0093000B0094000B0094000B003C
S31508002C10BB010B00B7010B00BA010B00BD010B008D
S31508002C204A000B004A000B0049000B0049000B0044
S31508002C3049000B0049000B0049000B0049000B0036
S31508002C4049000B0049000B004A000B0042000B002C
S31508002C5050000B0042000B0041000B0041000B0026
S31508002C6042000B0042000B0042000B0041000B0023
S31508002C7042000B005B010B0041000B0042000B00F9
S31508002C8042000B0041000B0041000B0041000B0005
S31508002C905C010B0061010B0069010B0074010B005C
S31508002CA07D010B0049000B0093000B0094000B00FC
S31508002CB093000B0093000B0093000B0092000B008F
S31508002CC049000B004A000B0049000B0049000B00A5
S31508002CD049000B0049000B0049000B0049000B0096
S31508002CE049000B0049000B0049000B0049000B0086
S31508002CF049000B0049000B0049000B0049000B0076
S31508002D0049000B0049000B0049000B0049000B0065
S31508002D1058000B0091000B0091000B0092000B006D
S31508002D20C2020B00C8020B00CA020B0063000B00AC
S31508002D3063000B00D6020B00E0020B00B0000B008C
S31508002D4092000B0091000B0091000B0090000B0005
S31508002D5091000B0092000B0092000B0093000B00F1
S31508002D6092000B0092000B0093000B0093000B00DF
S31508002D7093000B0093000B0093000B0093000B00CD
S31508002D8093000B0093000B0093000B0093000B00BD
S31508002D9093000B0093000B0093000B0093000B00AD
S31508002DA093000B0093000B0093000B0093000B009D
S31508002DB000000B0094000B0093000B0093000B001F
S31508002DC027010B0029010B0062000B0054000B00C1
S31508002DD054000B0054000B0054000B0051000B006C
S31508002DE051000B0053000B0051000B0054000B0060
S31508002DF050000B0051000B0051000B0049000B005E
S31508002E0051000B0052000B004A000B004A000B0051
S31508002E104A000B0057000B0058000B0049000B0036
S31508002E2049000B0049000B004A000B004A000B0042
S31508002E3049000B004A000B0049000B004A000B0032
S31508002E4047000B000E030B000F030B0017030B00C4
S31508002E509D000B0011030B009E000B001B030B00CB
S31508002E6011030B0023030B0024030B0016030B00AE
S31508002E701B030B009D000B00C5000B009D000B00FB
S31508002E809C000B009C000B009C000B0098000B009C
S31508002E9095000B0094000B0094000B0093000B00A8
S31508002EA0AF000B000B030B000D030B00E3000B0038
S31508002EB0B0000B00AF000B00AF000B00AF000B001B
S31508002EC0AE000B0093000B0004030B0003030B007A
S31508002ED015030B0057000B0056000B0056000B009D
S31508002EE056000B0056000B0056000B0056000B0050
S31508002EF056000B0056000B0056000B0056000B0040
S31508002F0056000B004D000B004D000B004E000B0049
S31508002F104D000B004E000B004F000B0050000B003D
S31508002F2050000B0050000B004F000B004F000B0029
S31508002F3050000B0050000B004F000B004F000B0019
S31508002F404F000B0075000B0076000B0076000B0097
S31508002F5076000B0075000B0075000B0093000B0044
S31508002F6056020B0055020B0093000B004E020B0095
S31508002F7051020B0075000B0076000B0075000B0064
S31508002F8075000B0076000B0093000B0092000B00F7
S31508002F9093000B003A000B003A000B003A000B00B6
S31508002FA063000B003A000B003A000B003A000B00D6
S31508002FB03A000B003A000B003A000B003B000B00EE
S31508002FC075000B0076000B0075000B0075000B00F2
S31508002FD075000B0075000B0075000B0075000B00E3
S31508002FE075000B0075000B0075000B0075000B00D3
S31508002FF075000B0075000B0052010B0057010B0002
S3150800300059010B005D010B0058010B0075000B0000
S3150800301094000B0094000B003A000B0076000B009E
S3150800302074000B0075000B008B000B003A000B00B8
S3150800303087000B0074000B0074000B0075000B0072
S315080030404B020B0052020B0054020B0028010B0026
S3150800305075000B0075000B0025010B0026010B00FF
S3150800306075000B0028010B0025010B0029010B0038
S3150800307075000B0076000B0075000B0075000B0041
S3150800308075000B0075000B0074000B0075000B0033
S3150800309077000B000E020B000E020B0010020B004D
S315080030A00E020B000F020B000F020B000F020B00A3
S315080030B010020B000C020B000F020B001C020B0087
S315080030C02F020B003F020B0041020B0043020B00CC
S315080030D046020B0040020B003A020B0043020B00AB
S315080030E042020B003D020B0042020B003D020B00A0
S315080030F039020B003A020B0069000B0042000B0074
S315080031004A000B003A000B0041000B003A000B0086
S315080031103A000B003B000B003B000B0097020B002C
S3150800312098020B00A6000B00A6000B006F000B0010
S3150800313090020B008C020B006E000B0084000B0043
S3150800314095020B0098020B0084000B0083000B000D
S3150800315083000B00AE000B00AD000B0083000B00D4
S31508003160AF000B00AF000B0083000B0083000B00C1
S3150800317083000B0083000B0083000B0084000B0008
S3150800318083000B0083000B0084000B0083000B00F8
S3150800319083000B0083000B0083000B0083000B00E9
S315080031A083000B0083000B0083000B0084000B00D8
S315080031B083000B0083000B0084000B0083000B00C8
S315080031C083000B0084000B0042000B0083000B00F9
S315080031D083000B0083000B0083000B0083000B00A9
S315080031E083000B0083000B0083000B0083000B0099
S315080031F083000B0083000B0083000B0083000B0089
S3150800320083000B0083000B0083000B0083000B0078
S3150800321083000B0082000B0083000B0083000B0069
S3150800322082000B0083000B0084000B0084000B0057
S315080032309E020B004D010B0084000B00A6000B003C
S3150800324084000B0084000B00A5000B0084000B0013
S3150800325084000B00DD000B0042000B0042000B004F
S3150800326042000B0042000B0042000B0042000B001C
S3150800327042000B0060000B0060000B0051000B00C1
S3150800328042000B0042000B0042000B0061000B00DD
S315080032904E000B004F000B004F000B0048000B00C0
S315080032A063000B005E020B005B020B005D020B0065
S315080032B05E020B005E020B005B020B005E020B0057
S315080032C063020B005F020B00C3000B0054000B00E7
S315080032D053000B0053000B0053000B0053000B0068
S315080032E053000B0053000B00A4000B00A5000B00B5
S315080032F053000B0053000B0052000B0053000B0049
S3150800330052000B0053000B0053000B0053000B0038
S3150800331053000B0053000B0053000B0052000B0028
S3150800332052000B0053000B0052000B0052000B001A
S31508003330A6000B004B010B0052000B0052000B00BD
S3150800334053000B0052000B0052000B0053000B00F9
S3150800335052000B006D000B006D000B006E000B0099
S315080033606E000B006F000B006E000B006E000B006A
S315080033706E000B006E000B006E000B006E000B005B
S315080033806E000B006E000B006E000B006E000B004B
S315080033906E000B006E000B006E000B006E000B003B
S315080033A06E000B006E000B006E000B006E000B002B
S315080033B06E000B006E000B006E000B006E000B001B
S315080033C06E000B006E000B0037000B0037000B0079
S315080033D037000B0037000B006F000B006E000B0068
S315080033E06E000B006F000B006F000B006E000B00E9
S315080033F06E000B006E000B006F000B006F000B00D9
S315080034006E000B006E000B006E000B006F000B00C9
S315080034106F000B006E000B006F000B006E000B00B8
S315080034206F000B006F000B006E000B006F000B00A7
S315080034306F000B006F000B006E000B006E000B0098
S3150800344037000B006F000B006F000B00A6000B0087
S31508003450A6000B006F000B006F000B006E000B0040
S315080034606E000B006E000B006E000B0037000B00A1
S315080034703C000B006E000B006E000B003E000B00BC
S315080034803E000B003E000B003D000B0086000B00C3
S315080034903D000B0084000B0084000B0041000B006C
S315080034A086000B007F000B007E000B0084000B00DB
S315080034B07D000B007C000B0087000B007C000B00D6
S315080034C07B000B005B020B0056020B0051020B003F
S315080034D04F020B0054020B0053020B0052020B0062
S315080034E057020B0059020B0057020B005E020B0035
S315080034F044000B0046000B0045000B0045000B007E
S3150800350045000B0045000B0045000B0045000B006D
S3150800351045000B0045000B0045000B0045000B005D
S3150800352045000B0045000B0045000B0045000B004D
S3150800353045000B008B000B008B000B008B000B006B
S315080035408D000B00C8020B00C3020B00BE020B0065
S31508003550BE020B00C1020B00C6020B00C8020B001C
S315080035608C000B008C000B008B000B008B000B00F3
S315080035708C000B004B000B004A000B0057000B0099
S3150800358057000B0057000B0058000B004A000B00B1
S315080035904A000B0057000B0057000B0057000B00A2
S315080035A057000B0057000B00AD000B0057000B002F
S315080035B0AE000B0057000B0057000B00AF000B00C6
S315080035C0AE000B00AE000B00B0000B0069010B004B
S315080035D0BD020B00B8020B00BD020B00BE020B00B9
S315080035E0BA020B00B6020B00B9020B00B7020B00B9
S315080035F0AB020B0094020B00AF000B0053000B004C
S3150800360053000B0053000B0053000B006D000B001A
S3150800361053000B0053000B0052000B0053000B0025
S3150800362053000B0052000B0052000B0052000B0017
S3150800363052000B0053000B0053000B0053000B0005
S3150800364053000B00A5000B00A6000B00A5000B00FD
S31508003650A6000B00A6000B00A5000B00A3020B009A
S315080036609B020B004B010B00DC000B00A6000B00B5
S3150800367052000B005B000B005B000B005B000B00AD
S3150800368058000B003A000B002B010B0029010B0018
S3150800369075000B0076000B0055000B0055000B005B
S315080036A075000B0074000B0056000B0056000B004B
S315080036B056000B0062000B0062000B0061000B0055
S315080036C061000B0062000B0062000B0057000B0044
S315080036D05B000B005A000B0062000B0057000B0042
S315080036E059000B0058000B006E000B006E000B0013
S315080036F058000B0058000B0058000B0058000B0030
S3150800370058000B0052000B004A000B0049000B0042
S3150800371049000B004A000B004A000B004A000B0048
S3150800372049000B0049000B0049000B0049000B003B
S3150800373049000B0049000B0049000B0049000B002B
S3150800374049000B0049000B0049000B0049000B001B
S3150800375049000B0049000B0056000B0057000B00F0
S3150800376057000B004A000B0049000B0049000B00EC
S3150800377049000B0049000B0049000B0049000B00EB
S315080037804A000B0049000B004A000B0023010B00FE
S3150800379027010B002D010B0076000B0075000B00AE
S315080037A075000B0075000B0076000B0075000B000A
S315080037B075000B0075000B0075000B0075000B00FB
S315080037C076000B0075000B0076000B0076000B00E8
S315080037D03A000B003A000B003A000B003A000B00C7
S315080037E03A000B003A000B003A000B003A000B00B7
S315080037F03A000B003A000B003A000B003A000B00A7
S315080038003A000B003A000B003A000B0075000B005B
S3150800381075000B005D020B0052020B0052020B00F2
S315080038202B010B002B010B002C010B002B010B00AD
S315080038302A010B002A010B002A010B002D010B009F
S3150800384075000B0075000B0075000B0075000B006A
S31508003850AE000B005D010B0075000B0075000B0038
S3150800386075000B0075000B0075000B0075000B004A
S3150800387075000B0074000B0075000B0075000B003B
S3150800388075000B0075000B0075000B0075000B002A
S3150800389075000B0075000B0058020B0052020B0056
S315080038A050020B0054020B004A020B004B020B009D
S315080038B051020B0057020B0051020B0029010B00A5
S315080038C02D010B0076000B0077000B0077000B002C
S315080038D076000B0076000B002A010B0029010B006D
S315080038E028010B0075000B0075000B0075000B0016
S315080038F075000B0010020B0010020B000F020B00E4
S3150800390010020B0012020B0010020B000D020B0036
S315080039100E020B0012020B0013020B0015020B001D
S3150800392015020B0012020B0013020B0045020B00D6
S3150800393051020B0059020B0052020B0050020B00F9
S3150800394054020B005A020B0054020B0090000B00A5
S3150800395076000B0076000B0041000B0042000B00BE
S315080039603A000B003B000B003A000B003A000B0034
S315080039703A000B003A000B003A000B003A000B0025
S315080039803A000B003A000B003B000B0076000B00D8
S3150800399075000B0099020B0097020B0097020B00AB
S315080039A094020B004C010B004D010B004D010B005E
S315080039B0A6000B004F010B004F010B004D010B0039
S315080039C04E010B0036000B0037000B0033000B00CE
S315080039D05F000B006E000B006F000B0085000B00EC
S315080039E06E000B0083000B006E000B006E000B00D0
S315080039F085000B006F000B006E000B006F000B00BC
S31508003A006E000B006E000B006E000B006E000B00C4
S31508003A106F000B006E000B006E000B006E000B00B3
S31508003A206E000B006E000B006E000B006E000B00A4
S31508003A306E000B006E000B006E000B006E000B0094
S31508003A406E000B006F000B006E000B006E000B0083
S31508003A506E000B006F000B006E000B006E000B0073
S31508003A606E000B006E000B006E000B006E000B0064
S31508003A706E000B006F000B006E000B006F000B0052
S31508003A806E000B006E000B006F000B0037000B007A
S31508003A9037000B0037000B006E000B006E000B00A2
S31508003AA037000B0037000B0037000B0037000B0000
S31508003AB037000B0037000B006D000B006D000B0084
S31508003AC06F000B0037000B0037000B0037000B00A8
S31508003AD06C000B006E000B006E000B006D000B00F7
S31508003AE037000B0037000B006D000B006E000B0053
S31508003AF06E000B0037000B0037000B0041000B006F
S31508003B0041000B0037000B0038000B0038000B0093
S31508003B1038000B0050000B006F000B0037000B003D
S31508003B2051000B006F000B006E000B006E000B00BF
S31508003B306F000B006F000B0037000B006E000B00C8
S31508003B406F000B006F000B006F000B006E000B0080
S31508003B506F000B006E000B006E000B006F000B0071
S31508003B606E000B006F000B0070000B001B030B00B0
S31508003B7021030B0023030B0023030B0040030B0058
S31508003B8059030B0053030B00A0000B009F000B000A
S31508003B9078010B0011010B009F000B000D010B00B3
S31508003BA00D010B009F000B009F000B006F000B0020
S31508003BB0A0000B006F000B0070000B009F000B00AD
S31508003BC09F000B006F000B0070000B0063000B00DA
S31508003BD06F000B006F000B0063000B0063000B0007
S31508003BE070000B0063000B0001070B00F5060B00C5
S31508003BF0F4060B00FD060B00FF060B0000070B0082
S31508003C000A070B000F070B0016070B00B9010B007C
S31508003C1088000B0088000B0088000B006F000B0063
S31508003C2037000B0088000B0088000B0088000B008B
S31508003C3088000B006F000B0088000B0089000B0042
S31508003C4089000B0038000B006F000B008B000B007F
S31508003C506F000B0089000B0037000B006F000B008C
S31508003C6089000B0089000B0089000B0037000B0048
S31508003C7089000B0089000B0089000B0089000B00E6
S31508003C8037000B0088000B0037000B0039000B00CB
S31508003C9039000B0037000B0038000B0039000B0009
S31508003CA039000B0037000B0037000B0037000B00FC
S31508003CB037000B0037000B0037000B0038000B00ED
S31508003CC037000B0037000B0037000B0038000B00DD
S31508003CD038000B0063000B0063000B0062000B004A
S31508003CE038000B0038000B0038000B0038000B00BA
S31508003CF038000B0038000B0038000B0038000B00AA
S31508003D0038000B0038000B0038000B0038000B0099
S31508003D1038000B0037000B0037000B0037000B008C
S31508003D2037000B0037000B006D000B0037000B0047
S31508003D3037000B0037000B0037000B0037000B006D
S31508003D4037000B0037000B0037000B0037000B005D
S31508003D5037000B0037000B0037000B0037000B004D
S31508003D6037000B0037000B0037000B0037000B003D
S31508003D7037000B0037000B0037000B0037000B002D
S31508003D8037000B0037000B0037000B0037000B001D
S31508003D9037000B0037000B0037000B0037000B000D
S31508003DA037000B0037000B0037000B0037000B00FD
S31508003DB037000B0037000B0037000B0037000B00ED
S31508003DC037000B0037000B0037000B0037000B00DD
S31508003DD037000B0037000B0037000B0037000B00CD
S31508003DE037000B0000000B0037000B0037000B00F4
S31508003DF037000B0037000B0037000B0037000B00AD
S31508003E0037000B0037000B0037000B0086000B004D
S31508003E1037000B0037000B0037000B0037000B008C
S31508003E2087000B0037000B0037000B0037000B002C
S31508003E3000000B0037000B0037000B0037000B00A3
S31508003E4037000B0000000B0037000B0037000B0093
S31508003E5037000B006D000B0000000B0037000B004D
S31508003E6000000B0037000B0037000B0037000B0073
S31508003E7037000B0037000B0037000B006F000B00F4
S31508003E806E000B006F000B0037000B006E000B0076
S31508003E906F000B006F000B006E000B006E000B002E
S31508003EA06F000B006F000B006F000B006F000B001C
S31508003EB06F000B006E000B006F000B006F000B000D
S31508003EC06F000B006E000B006D000B006F000B00FF
S31508003ED06F000B006E000B0037000B0037000B005D
S31508003EE06E000B006E000B006E000B006F000B00DF
S31508003EF06E000B006F000B006E000B0000000B003D
S31508003F006F000B0037000B0037000B0037000B0063
S31508003F1000000B0000000B0037000B0037000B00F9
S31508003F2037000B0037000B0037000B0037000B007B
S31508003F3037000B0000000B006E000B0000000B00A2
S31508003F4000000B0037000B0000000B0000000B0000
S31508003F5000000B0037000B0000000B0000000B00F0
S31508003F6000000B0000000B0037000B0000000000EB
S31508003F700000000001020304010203040607080901
S31508003F80A03F0008000000202000000008030008E9
S31508003F90C03F000820000020B006000024030008E7
S31508003FA00000003F00000000000000000090D00361
S31508003FB00090D0030100000010000000000000007F
S705080002CD23
