:020000040800F2
:10000000D00600206D030008BB1500080515000888
:10001000B915000873040008711C000800000000F6
:100020000000000000000000000000005B16000857
:100030007504000800000000591600085D1600084D
:100040008703000887030008870300088703000868
:100050008703000887030008870300088703000858
:100060008703000887030008870300088703000848
:100070008703000887030008870300088703000838
:100080008703000887030008870300088703000828
:100090008703000887030008870300088703000818
:1000A0008703000887030008870300088703000808
:1000B00087030008870300088703000887030008F8
:1000C00087030008870300088703000887030008E8
:1000D00087030008870300088703000887030008D8
:1000E000870300088703000800000000870300085A
:1000F00087030008870300088703000887030008B8
:1001000087030008870300088703000887030008A7
:100110008703000887030008870300088703000897
:100120008703000887030008870300088703000887
:100130008703000887030008870300088703000877
:1001400000000000000000000000000000000000AF
:100150008703000887030008870300088703000857
:100160008703000887030008870300088703000847
:1001700087030008870300088703000800000000C9
:100180008703000887030008870300088703000827
:100190008703000887030008870300088703000817
:1001A0008703000887030008870300080000000099
:1001B00087030008870300088703000887030008F7
:1001C000870300088703000800000000000000000B
:1001D000000000000000000087030008000000008D
:1001E000000000000000000000000000000000000F
:1001F00000000000000000008703000887030008DB
:100200008703000887030008000000008703000838
:100210008703000887030008870300088703000896
:1002200087030008000000008703000800000000AA
:100230008703000887030008000000008703000808
:100240008703000887030008870300088703000866
:100250008703000887030008870300088703000856
:100260008703000887030008870300088703000846
:1002700087030008870300088703000800000000C8
:100280008703000887030008870300088703000826
:10029000000000008703000887030008000000003A
:1002A0000000000087030008870300088703000898
:1002B00087030008870300088703000887030008F6
:1002C00087030008870300088703000800F002F88E
:1002D00000F03CF80AA090E8000C82448344AAF1A4
:1002E0000107DA4501D100F031F8AFF2090EBAE8A2
:1002F0000F0013F0010F18BFFB1A43F0010318475A
:100300008C2D0000AC2D0000103A24BF78C878C1B5
:10031000FAD8520724BF30C830C144BF04680C600B
:10032000704700000023002400250026103A28BF53
:1003300078C1FBD8520728BF30C148BF0B60704757
:100340001FB502F096FE1FBD10B510BD00F058F8A5
:100350001146FFF7F5FF02F081FE00F076F803B4D6
:10036000FFF7F2FF03BC00F07DF80000094880476A
:1003700009480047FEE7FEE7FEE7FEE7FEE7FEE787
:10038000FEE7FEE7FEE7FEE704480549054A064B9F
:1003900070470000F9160008CD020008D0000020C8
:1003A000D0060020D0020020D00200204FF0000232
:1003B00000B5134694469646203922BFA0E80C505B
:1003C000A0E80C50B1F12001BFF4F7AF090728BF36
:1003D000A0E80C5048BF0CC05DF804EB890028BFB2
:1003E00040F8042B08BF704748BF20F8022B11F0DB
:1003F000804F18BF00F8012B704770477047704757
:10040000754600F02BF8AE4605006946534620F0CD
:100410000700854618B020B5FFF7B6FFBDE82040BD
:100420004FF000064FF000074FF000084FF0000BB0
:1004300021F00701AC46ACE8C009ACE8C009ACE863
:10044000C009ACE8C0098D46704710B50446AFF34B
:1004500000802046BDE81040FFF781BF004870478C
:100460006C00002001491820ABBEFEE72600020008
:100470007047FEE7704772B6FEE7000070B50446AD
:1004800000F01CF90546601C02D0044800780444C2
:1004900000F014F9401BA042FAD370BD14000020F4
:1004A0002DE9F84F03247A4D00234FF001094FF056
:1004B000B04B4FF00F0AE4E009FA03F6324078D06F
:1004C0000F7907F00307012F01D0022F1AD1876897
:1004D0004FEA430ED1F80CC004FA0EF827EA0807D9
:1004E0000CFA0EFC4CEA070CC0F808C0476891F8FB
:1004F00004C0B743CCF3001C0CFA03FC4CEA070C15
:10050000C0F804C00E79F643B6070BD0C6684FEAB0
:1005100043088F6804FA08FC26EA0C0607FA08F775
:100520003743C7600E7906F00306022E12D1DE08AB
:100530000F694FEA437C00EB8606B646366A4FEAFF
:10054000DC6C0AFA0CF807FA0CF726EA08063743BF
:10055000CEF820700F7906684FEA430807F00307CA
:1005600004FA08FC07FA08F726EA0C063743076086
:100570004E6816F4403F1CD0464E376847F00207DD
:10058000376036689F0706F00206009623F00306E0
:1005900006F1B046B6463F0FD6F80864DFF8F8809B
:1005A0000AFA07FC404526EA0C0603D14FF0000C7E
:1005B0003AE065E0DFF8E4C0604502D14FF0010C9D
:1005C00032E0DFF8DCC0604502D14FF0020C2BE0D6
:1005D000DFF8D0C0604502D14FF0030C24E0DFF813
:1005E000C8C0604502D14FF0040C1DE0DFF8BCC06C
:1005F000604502D14FF0050C16E0DFF8B4C060454D
:1006000002D14FF0060C0FE0DFF8A8C0604502D120
:100610004FF0070C08E0DFF8A0C0604502D14FF0B2
:10062000090C01E04FF00A0C0CFA07FC4CEA060C2E
:10063000CEF808C44F68DBF80060FF0226EA020625
:1006400000D516435F46CBF80060D1F804C0DBF854
:1006500004605FEA8C2C26EA020600D516437E6011
:100660006E684F6826EA0206BF0300D516436E6027
:100670002E684F6826EA0206FF0300D516432E6057
:100680005B1C0A6832FA03F67FF416AFBDE8F88FF8
:1006900080000058F4440258000002580004025838
:1006A00000080258000C02580010025800140258AA
:1006B00000180258001C02580024025801488068A3
:1006C000704700001400002002488168027811443D
:1006D0008160704714000020032010B500F078F806
:1006E00000F0E0F90F4A104914681368C4F30322BC
:1006F00003F00F038A5CC95C02F01F0201F01F01C6
:10070000D0400A4A20FA01F11160094908600F201F
:1007100000F010F808B1012010BD00F02BF8002007
:1007200010BD0000184402587C3000081000002062
:100730000C00002070B50D4D04462878A0B14FF490
:100740007A71B1FBF0F00A490968B1FBF0F000F0F2
:10075000D8FC48B9102C07D200222146501E00F0C8
:1007600017F800206C6070BD012070BD14000020DF
:100770000C000020054808B5016841F00201016045
:10078000006800F00200009008BD0000F444025828
:100790000E4BF0B41B680D46C3F30223C3F10706EA
:1007A000042E00D90426191D072901D2002300E0D8
:1007B000DB1E012404FA06F19C40491E2940641EF8
:1007C000994014402143F0BC01F053BA0CED00E015
:1007D000064900F0070210B54FF6FF040868044B05
:1007E000204040EA02201843086010BD0CED00E0F4
:1007F0000000FA05134970B50A68D243520705D5BF
:10080000096801F00701814213D118E00A6822F05B
:10081000070202430A60FFF751FF0A4D4FF47A7650
:100820000446083D07E000BFFFF748FF001BB04249
:1008300001D9012070BD2868C0438004F4D4002091
:1008400070BD00000C4802582DE9F05F04000F460F
:100850007ED0DFF83882D8F8000000F00F00B842F0
:100860000CD2D8F8001021F00F013943C8F800105D
:10087000D8F8000000F00F00B84269D12078844D0C
:1008800040070AD52069296801F07001884204D91F
:10089000296821F070010143296020787C4E361DC3
:1008A00000070AD56069316801F07001884204D9F7
:1008B000316821F07001014331602078C0060AD50B
:1008C000A069316801F4E061884204D9316821F4FB
:1008D000E061014331602078DFF8B4B180060BF1AC
:1008E000080B0CD5E1695846DBF8002002F07002D5
:1008F000914204D9026822F070020A430260207813
:1009000080070AD5E068296801F00F01884204D900
:10091000296821F00F01014329602078C0073ED0EB
:100920005B49A2682868183920F470601043286079
:100930006068022818D0032819D00968012819D046
:10094000490700294ADADFF848A1AAF1080A00E0BD
:1009500044E0DAF8002022F007020243CAF800203F
:10096000FFF7ACFE814612E009688903E9E70968F0
:100970008901E6E7C905E4E7FFF7A0FEA0EB09015E
:1009800041F28830814202D90320BDE8F09F6168BE
:10099000DAF8000000F03800B0EBC10FECD120789D
:1009A00080070AD5E068296801F00F01884204D267
:1009B000296821F00F0101432960D8F80010404652
:1009C00001F00F01B9420BD9016821F00F01394341
:1009D0000160006800F00F00B84201D00120D4E7A8
:1009E000207840070AD52069296801F07001884203
:1009F00004D2296821F070010143296020780007A2
:100A00000AD56069316801F07001884204D231680A
:100A100021F07001014331602078C0060AD5A06939
:100A2000316801F4E061884204D2316821F4E06168
:100A300001433160207880060CD5E1695846DBF827
:100A4000002002F07002914204D2026822F070028B
:100A50000A43026000F026F80E492A682B68C2F3A8
:100A6000032203F00F038A5CC95C02F01F0201F04D
:100A70001F01D040084A20FA01F1116007490860BF
:100A800007480068BDE8F05FFFF754BE0020005241
:100A9000184402587C300008100000200C00002090
:100AA00018000020454970B545480968434B103B84
:100AB00011F0380208D00111082A03D0102A0BD0F7
:100AC000182A0BD0084670BD19688906FBD519682D
:100AD000C1F3C101C84070BD3A4870BD3749374DB8
:100AE00018310C1D24350A68096826682D6802F043
:100AF000030406F00102C1F30511C5F3CC0515FB93
:100B000002F200EE102AB8EE400AE9B32F4ADFEDF8
:100B10002E0AB7EE001A6CB1DFED2D1A012C01D0B0
:100B2000022C43D002EE101A1068F8EE422A81EE31
:100B3000A22A1EE01C68A40611D51B6801EE901ABB
:100B40001168C3F3C103F8EE612AD84001EE900AA0
:100B5000C1F30800F8EE611A81EEA22A0BE001EE63
:100B6000901ADFED1C2A00BFF8EE611A106882EEC1
:100B7000A12AC0F3080001EE900AF8EE611A40EED7
:100B8000201A31EE810A00E015E022EE000A10681A
:100B9000C0F34620401C00EE900AF8EE600A80EE9A
:100BA000201ABCEEC10A10EE100A70BD01EE901AB8
:100BB000DFED092AD8E7002070BD0000104402587C
:100BC0000090D00300366E01000000393044025816
:100BD0000024744A0024744C001BB74B2DE9F05FCD
:100BE00004007DD0FF4F2078FE4D1837DFF8F483E6
:100BF000103DC00748D0D8F80000396800F0380030
:100C0000102815D0182803D101F0030002280FD0B6
:100C10006068B0F5803F12D010B1B0F5A02F18D0A9
:100C2000286820F480302860286820F4802009E0BB
:100C30002868800328D560680028D2D024E028687E
:100C400040F480302860606888B1FFF737FD0646C1
:100C500009E0286840F480202860F0E7FFF72EFDC7
:100C6000801B64287ED828688003F7D50CE0FFF746
:100C700025FD064605E000BFFFF720FD801B642828
:100C8000F0D828688003F7D42078800756D5D8F8A4
:100C90000000DFF85093396810F03800A9F10C0912
:100CA0000ED0182801D188070AD0E068A8B32968B7
:100CB00021F0190101432960FFF700FD064628E0F5
:100CC0002868400702D5E06800288AD0E1682868D3
:100CD00020F0190008432860FFF7F0FC064606E004
:100CE000D2E000BFFFF7EAFC801B0228BAD82868D0
:100CF0004007F7D5217CD9F8002022F0FE4242EAD5
:100D00000161C9F8001019E0FFF7D8FC801B022828
:100D1000A8D828684007F7D5ECE7FFE7286820F057
:100D200001002860FFF7CAFC064604E0FFF7C6FC96
:100D3000801B022896D828684007F7D42078C00680
:100D400046D5D8F80000DFF89C92396800F03800EA
:100D5000A9F10409082812D0182805D101F00300D0
:100D6000012800E0CEE00AD0E0690028286820D001
:100D700040F080002860FFF7A1FC064615E02868D7
:100D8000C00502D5E06980287ED194F82010D9F8FA
:100D9000002022F07C5242EA0161C9F8001017E0FD
:100DA000FFF78CFC801B0228A0D82868C005F7D567
:100DB000EBE720F080002860FFF780FC064604E0A7
:100DC000FFF77CFC801B022890D82868C005F7D468
:100DD0002078000729D5834861696430002981465D
:100DE000016811D041F001010160FFF767FC064680
:100DF00005E000BFFFF762FC801B022888D8D9F805
:100E000000008007F6D510E021F001010160FFF736
:100E100055FC064605E000BFFFF750FC801B02288A
:100E200070D8D9F800008007F6D42078800623D542
:100E3000A0690028286810D040F480502860FFF78F
:100E40003DFC064605E000BFFFF738FC801B02288A
:100E500058D828688004F7D50EE020F48050286028
:100E6000FFF72CFC064604E0FFF728FC801B022855
:100E700048D828688004F7D42078400751D5DFF897
:100E80006891D9F8001000E015E141F48071C9F8CB
:100E90000010FFF713FC064605E000BFFFF70EFC4D
:100EA000801B64282ED8D9F80000C005F6D54D4E19
:100EB000A068603601280AD008B1052813D0306830
:100EC00020F001003060306820F0040002E030685B
:100ED00040F001003060A06841F2883A98B1FFF715
:100EE000EDFB81460AE0306840F004003060EEE738
:100EF000FFF7E4FBA0EB0901514503D830688007F8
:100F0000F6D50EE072E0FFF7D9FB814606E000BFA0
:100F1000FFF7D4FBA0EB0901514567D83068800783
:100F2000F6D4606A00287CD0DFF8B8A0D8F80010AA
:100F30000AF1200A4FF6F87B0AF10408C1F3C20156
:100F40000329AAF104096DD00228286820F08070D6
:100F5000286003D0FFF7B2FB044681E0FFF7AEFB49
:100F6000064604E0FFF7AAFB801B022875D8286814
:100F70008001F7D4E26A40F2F331386854F8283F30
:100F8000884340EA021018433860217B4FF4FE0C7E
:100F900022894FF0FE47208A4902267D521E401EBC
:100FA000A1F5007189B2C2F308021143761E0CEA62
:100FB00000400143484607EA06621143CAF80010A0
:100FC000D9F8001021F00101C9F80010D8F800305C
:100FD000266A23EA0B0343EAC601C8F80010D9F8D1
:100FE000001004E0104402580048025835E0A2699D
:100FF00021F00C011143C9F800100168E26921F0E9
:10100000020111430160016841F48031016001680F
:1010100041F400310160016841F480210160016800
:1010200001E06CE020E041F001010160286840F03F
:1010300080702860FFF742FB044604E0FFF73EFBA8
:10104000001B022809D828688001F7D557E000BFA7
:10105000FFF734FB001B022802D90320BDE8F09FF4
:1010600028688001F4D44AE039680128DAF80000E1
:1010700021D0A26A01F0030393421CD1E26AC1F3BA
:1010800005118A4217D1216BC0F30802491E8A421A
:1010900011D1616BC0F34622491E91420BD1A16B65
:1010A000C0F30642491E914205D1E16BC0F30660D0
:1010B000491E814201D00120D0E7A16C4646D8F8F4
:1010C0000000C0F3CC00814219D0D9F800004D4691
:1010D00020F00100C9F80000FFF7F0FA4FEA00071E
:1010E000FFF7ECFAB842FBD0A26C306820EA0B00A4
:1010F00040EAC2003060286840F00100286000200B
:10110000ACE7401EB0F1807F10B501D3012010BDC7
:101110004FF0E02460610F21601700F0AAFD00206D
:10112000A0610721216110BDF0B590F83C20012A93
:1011300041D0224E012480F83C40022280F83D201C
:1011400002681F4D5368B242D2F808C001D0AA42CB
:1011500003D14F6823F470033B430F6823F07003FF
:101160001F4357600268B24219D0B2F1804F16D0C7
:10117000144B9A4213D0144B9A4210D0134B9A42FC
:101180000DD0AA420BD0124B9A4208D0114B9A4272
:1011900005D0114B9A4202D0104B9A4204D1896873
:1011A0002CF0800319439160002180F83D4080F8C5
:1011B0003C100846F0BD0220F0BD000000000140D8
:1011C000000401400004004000080040000C004002
:1011D000001800400040014000E0004000E40040F2
:1011E00010B586B0044614216846FFF7DFF80D49B4
:1011F0002068884214D10C48016841F00201016066
:101200000068002100F00200059002208203009295
:10121000CDE90101CDE9031004486946FFF740F923
:1012200006B010BD00180040E04402580004025807
:1012300070B5044690F83C0000260D4601280BD0FE
:10124000012084F83C000C2A4AD007DC82B1042A31
:1012500020D0082A06D131E0022070BD102A53D0D8
:10126000142A63D00126002084F83C00304670BD6B
:10127000206800F01BFB2068816941F00801816152
:101280002068816921F00401816120682A698169EF
:10129000114311E0206800F05DFB2068816941F492
:1012A000006181612068816921F480618161206829
:1012B0002969826942EA01218161D4E7206800F04E
:1012C00095FB2068C16941F00801C1612068C169CE
:1012D00021F00401C16120682A69C169114311E04C
:1012E000206800F0CFFB2068C16941F40061C16152
:1012F0002068C16921F48061C16120682969C269DF
:1013000042EA0121C161AEE7206800F0F7FB2068E6
:10131000416D41F0080141652068416D21F00401F3
:10132000416520682A69416D114311E0206800F091
:101330001FFC2068416D41F4006141652068416DEA
:1013400021F48061416520682969426D42EA0121EA
:10135000416588E710B5040003D094F83D0010B152
:1013600007E0012010BD002084F83C00204600F07A
:1013700023F8022084F83D002068211D00F01CFAAB
:10138000012084F8480084F83E0084F83F0084F887
:10139000400084F8410084F8420084F8430084F857
:1013A000440084F8450084F8460084F8470084F837
:1013B0003D00002010BD000008B5006806498842C5
:1013C00008D10648016841F040010160006800F062
:1013D0004000009008BD000000180040E84402589A
:1013E00030B504464FF0020269B1042912D0082931
:1013F00017D00C291CD0102921D094F843000128C3
:1014000024D0012030BD94F83E000128F9D184F8A1
:101410003E201DE094F83F000128F2D184F83F20DF
:1014200016E094F840000128EBD184F840200FE04A
:1014300094F841000128E4D184F8412008E094F8B0
:1014400042000128DDD184F8422001E084F84320E5
:101450000122206800F01CFA1E4920681E4A1F4B1A
:10146000884209D0904207D0984205D01C4DA8422E
:1014700002D01C4DA84203D1456C45F4004545649B
:101480002068884218D0B0F1804F15D016498842A4
:1014900012D0164988420FD0154988420CD090428C
:1014A0000AD01449884207D0984205D01249884290
:1014B00002D01249884207D18168114A1140062999
:1014C00006D0B1F5803F03D0016841F00101016011
:1014D000002030BD000001400004014000400140F8
:1014E0000044014000480140000400400008004062
:1014F000000C00400018004000E0004000E4004004
:1015000007000100FEE700000D4808B5016841F042
:1015100080010160016801F080010091016841F0E3
:1015200002010160016801F002010091016841F0CF
:1015300001010160006800F00100009008BD00009A
:10154000E044025810B58AB0002468461C21079474
:1015500008940994FEF72AFF164840F2CF7117222B
:10156000134BC0E9024104618461C0E90032FFF716
:10157000F1FE08B1FEF77FFF0E4807A90794099412
:10158000FFF7D2FD08B1FEF776FF60204FF47A71C5
:101590008DE813000748042269460494FFF748FECB
:1015A00008B1FEF768FF0348FFF71AFE0AB010BD46
:1015B0000018004020000020FEE7FEE710B5204C98
:1015C000042102461F482DED028BB0EE408A94EDB7
:1015D000010A00F007FB9FED1C0A28EE000ABCEE92
:1015E000C00A10EE100AFEF749FFFFF767F8A1687E
:1015F000401A322814D9D4ED010A94F900009FED65
:10160000132BB7EEE01A00EE100AB8EEC00B00EE96
:10161000021BB7EEC10B84ED010AFFF74FF8A06083
:101620000C496068884202DD217849422170B0F19E
:101630007E5F02DA207840422070BDEC028B10BD44
:101640000000002020000020000048439A9999994A
:101650009999B93F0000204170477047FFF734B8AF
:1016600070B59CB04C216846FEF7A0FE202113A85F
:10167000FEF79CFE0220FFF7BDF81E48016821F42A
:10168000404101600168002401F440411B91016860
:101690008904FCD502200A9028230990C203012165
:1016A0000D910425CDE90012CDE90B030C2612940F
:1016B000CDE90E50CDE910646846FFF78FFA08B106
:1016C00072B6FEE740201A9008230501CDE91630D6
:1016D00013ABCDE918053F21032283E8160013A8B8
:1016E0001146FFF7B1F8002801D072B6FEE71CB032
:1016F00070BD0000184802582748F0B5274A016815
:1017000041F470010160106800F00F00072804D256
:10171000106820F00F00C01D106021490020204CEF
:1017200010340B681F4D43F001030B6020600B6801
:101730002B400B60136803F00F03072B04D91368C9
:1017400023F00F03DB1D1360154C174A1834174B99
:10175000261D371D2060124C154D28343060261D83
:101760003860371D23603B1D35601C1D3A60251D08
:101770002E1D1860331D22602860326018600A68D0
:1017800043F2D204064B0B4D22F4802260330A60F0
:1017900018602C60F0BD000088ED00E000200052D1
:1017A000004402587FEDF6EA8002010100020202C5
:1017B0000000FF01004000522DE9F0472A4B4FF096
:1017C000804A2A4D02689842294E2A4F2A4C09D055
:1017D000504507D0A84205D0B04203D0B84201D04E
:1017E000A04205D1D1F804C022F070024CEA0202F6
:1017F000DFF888C0DFF888809842DFF8889015D03D
:10180000504513D0A84211D0B0420FD0B8420DD0ED
:10181000A0420BD0604509D0404507D0484505D0CF
:10182000194DA84202D0194DA84203D1CD6822F427
:1018300040722A434D6922F080022A430260984296
:101840008A68C2620A68826207D0A04205D06045F9
:1018500003D0404501D0484501D109690163012108
:101860004161BDE8F0870000000001400004004035
:1018700000080040000C004000040140004001400E
:10188000004401400048014000E0004000E4004006
:1018900010B5046A012301F01F018B409C430462D0
:1018A0008A40016A1143016210BD00002DE9F04F2A
:1018B000026ADFF88880DFF8889022F00102DFF802
:1018C00084A0DFF884B0214F0262DFF884C0066A8A
:1018D0004268836926F002060D68B8428C6803EA04
:1018E0000C0323F0030344EA060445EA030507D08A
:1018F000404505D0484503D0504501D0584505D155
:10190000CB6824F00804234323F00404B84207D032
:10191000404505D0484503D0504501D0584505D134
:1019200022F44076D1E9053233431A43426085619F
:10193000496841630462BDE8F08F00000004014083
:1019400000400140004401400048014000000140C7
:101950008FFFFEFFF0B5026A1E4E1F4C22F01002F0
:10196000DFF878E00262056A4368826925F02005A5
:10197000D1F808C0A0420F6802EA060222F44072C1
:1019800045EA0C1542EA072201D0704506D1CE681F
:1019900025F0800545EA061525F04005A0420AD04D
:1019A000704508D00E4CA04205D00E4CA04202D08B
:1019B0000D4CA04207D1D1E9054623F4406343EA28
:1019C000840343EA86034360826149688163056258
:1019D000F0BD0000FF8FFFFE000001400004014049
:1019E000004001400044014000480140F0B5026A57
:1019F0001E4F1F4E22F48072DFF878E00262056A03
:101A00004368C26925F40075D1F808C0B0420C687B
:101A100002EA070222F0030245EA0C2544EA020426
:101A200001D0704506D1CF6825F4006242EA072252
:101A300022F48065B0420AD0704508D00E4A904228
:101A400005D00E4A904202D00D4A904207D123F4AD
:101A50004052D1E9053642EA031242EA06134360D6
:101A6000C4614968C1630562F0BD00008FFFFEFFDD
:101A700000000140000401400040014000440140DA
:101A800000480140F0B5026A174B164F22F480520D
:101A900098420262046A4268C36924F400548E6862
:101AA0000D6803EA070323F4407344EA063443EA6B
:101AB00005230BD00D4DA84208D00D4DA84205D0EE
:101AC0000C4DA84202D00C4DA84204D14D6922F41D
:101AD000804242EA85124260C3614968016404623F
:101AE000F0BD0000FF8FFFFE000001400004014038
:101AF000004001400044014000480140F0B5026A46
:101B0000DFF854C022F480320262056A4268446DF4
:101B100025F400350E896045104F0B6804EA070470
:101B200045EA064543EA04030BD00D4CA04208D019
:101B30000C4CA04205D00C4CA04202D00B4CA04251
:101B400004D14C6922F4803242EA042242604365A7
:101B5000496881650562F0BD000001408FFFFEFF0E
:101B600000040140004001400044014000480140A1
:101B7000F0B5026ADFF854C022F480120262046AEF
:101B80004268436D24F400140E896045104F0D68BF
:101B900003EA070344EA065443EA05230BD00D4D3C
:101BA000A84208D00C4DA84205D00C4DA84202D046
:101BB0000B4DA84204D14D6922F4802242EA8522CD
:101BC000426043654968C1650462F0BD00000140A0
:101BD000FF8FFFFE0004014000400140004401402F
:101BE00000480140002A30B439D0B5EEC00AF1EE09
:101BF00010FA34D310EE103A1A4CA3422FDC1B4BD0
:101C00009FED191AB3FBF2F20468C0EE010AE2621A
:101C100000EE102AC260B8EE400A20EE800ABCEE48
:101C2000C00A10EE102A61B104290DD008290ED087
:101C30000C290FD0036810290FD0DA6530BCFFF7EC
:101C4000CFBB03685A63F9E703689A63F6E7036852
:101C5000DA63F3E703681A64F0E79A65EEE730BCED
:101C6000704700000000C8420000C842009F2400E6
:101C7000FEE7090700284FEA116104DB00F1E020CC
:101C800080F80014704700F00F0000F1E02080F8A9
:101C9000141D70472DE9F05F2DED028B9FEDFE8A3C
:101CA0004FF4F774B7EE000A2046FFF787FC4FF4B5
:101CB000C475B7EE000A2846FFF780FCB0EE000AB4
:101CC0002046FFF77BFCB7EE000A2846FFF776FCBC
:101CD000B0EE000A2046FFF771FCB7EE000A284676
:101CE000FFF76CFC40F24B26B0EE000A3046FFF7DF
:101CF00065FCB7EE000A2846FFF760FC40F20B27B0
:101D0000B7EE000A3846FFF759FCB7EE000A38462E
:101D1000FFF754FCB7EE000A2846FFF74FFCB7EE7A
:101D2000000A2046FFF74AFCB7EE000A3846FFF7E4
:101D300045FCB7EE000A2046FFF740FCB7EE000A6C
:101D40002846FFF73BFCB0EE000A2046FFF736FCC2
:101D5000B7EE000A2846FFF731FCB0EE000A204635
:101D6000FFF72CFCB7EE000A2846FFF727FCB0EE81
:101D7000000A3046FFF722FCB7EE000A2846FFF7BC
:101D80001DFCB7EE000A3846FFF718FCB7EE000A54
:101D90003846FFF713FCB7EE000A2846FFF70EFCA3
:101DA000B7EE000A2046FFF709FCB7EE000A3846F6
:101DB000FFF704FCB7EE000A2046FFF7FFFBB7EE83
:101DC000000A2846FFF7FAFBB0EE000A2046FFF7AC
:101DD000F5FBB7EE000A2846FFF7F0FBB0EE000A6D
:101DE0002046FFF7EBFBB7EE000A2846FFF7E6FBBD
:101DF000B0EE000A3046FFF7E1FBB7EE000A2846D6
:101E0000FFF7DCFBB7EE000A3846FFF7D7FBB7EE6B
:101E1000000A3846FFF7D2FBB7EE000A2846FFF764
:101E2000CDFBB7EE000A2046FFF7C8FBB7EE000A6D
:101E30003846FFF7C3FBB7EE000A2046FFF7BEFBAC
:101E4000B7EE000A2846FFF7B9FBB0EE000A2046BD
:101E5000FFF7B4FBB7EE000A2846FFF7AFFBB0EE82
:101E6000000A2046FFF7AAFBB7EE000A2846FFF754
:101E7000A5FBB0EE000A3046FFF7A0FBB7EE000A64
:101E80002846FFF79BFBB7EE000A3846FFF796FBA4
:101E9000B7EE000A3846FFF791FBB7EE000A284676
:101EA000FFF78CFB4FF49378B0EE000A4046FFF743
:101EB00085FB4FF4A57AB1EE080A5046FFF77EFB8A
:101EC000B0EE000A4046FFF779FBB0EE000A50463C
:101ED000FFF774FBB0EE000A4046FFF76FFBB0EE71
:101EE000000A5046FFF76AFBB1EE000A2846FFF7EA
:101EF00065FBB1EE000A3846FFF760FBB1EE000A61
:101F00002046FFF75BFBB1EE000A5046FFF756FB99
:101F1000B0EE000A4046FFF751FBB1EE080A50460A
:101F2000FFF74CFBB0EE000A4046FFF747FBB0EE70
:101F3000000A5046FFF742FBB0EE000A4046FFF7AA
:101F40003DFBB0EE000A5046FFF738FBB2EE000A48
:101F50003846FFF733FBB0EE000A2046FFF72EFBB2
:101F6000B1EE000A3046FFF729FBB2EE040A5046F4
:101F7000FFF724FBB0EE000A4046FFF71FFBB0EE70
:101F8000000A5046FFF71AFBB0EE000A4046FFF782
:101F900015FBB0EE000A5046FFF710FBB1EE000A49
:101FA0002046FFF70BFBB1EE000A3846FFF706FBB1
:101FB000B1EE000A2046FFF701FBB1EE000A5046E1
:101FC000FFF7FCFAB0EE000A4046FFF7F7FAB1EE71
:101FD000080A5046FFF7F2FAB0EE000A4046FFF753
:101FE000EDFAB0EE000A5046FFF7E8FAB0EE000A4C
:101FF0004046FFF7E3FAB0EE000A5046FFF7DEFA7C
:10200000B1EE000A2046FFF7D9FAB1EE000A3846D1
:10201000FFF7D4FAB2EE040A3046FFF7CFFA0020F9
:10202000B1EE000AFFF7CAFAB0EE000A5046FFF719
:10203000C5FA0020B0EE480AFFF7C0FAB0EE000A79
:102040005046FFF7BBFAB7EE000A4046FFF7B6FA74
:10205000B0EE080A5046FFF7B1FAB0EE000A40466B
:10206000FFF7ACFAB0EE000A5046FFF7A7FAB0EE61
:10207000000A2846FFF7A2FA0020B0EE000AFFF798
:102080009DFAB0EE000A5046FFF798FA0020B0EE35
:10209000480AFFF793FA01E0CDCC4C3EB0EE000ABF
:1020A0005046FFF78BFAB7EE000A4046FFF786FA74
:1020B000B0EE080A5046FFF781FAB0EE000A40463B
:1020C000FFF77CFAB0EE000A5046FFF777FAB1EE60
:1020D000000A2846FFF772FA4FF48379B1EE080A36
:1020E0004846FFF76BFA0020B0EE000AFFF766FAE9
:1020F000B0EE000A5046FFF761FA0020B0EE480A41
:10210000FFF75CFAB0EE000A5046FFF757FAB7EE59
:10211000000A4046FFF752FAB0EE080A5046FFF7B1
:102120004DFAB0EE000A4046FFF748FAB0EE000A5A
:102130004846FFF743FAB0EE000A4046FFF73EFA82
:102140000020B0EE000AFFF739FAB0EE000A504660
:10215000FFF734FA0020B0EE480AFFF72FFAB0EE8E
:10216000000A5046FFF72AFAB7EE000A4046FFF78A
:1021700025FAB0EE080A5046FFF720FAB0EE000A42
:102180004046FFF71BFAB0EE000A5046FFF716FA7A
:10219000B0EE000A2846FFF711FA0020B0EE000A60
:1021A000FFF70CFAB0EE000A5046FFF707FA0020DE
:1021B000B0EE480AFFF702FAB0EE000A5046FFF709
:1021C000FDF9B7EE000A4046FFF7F8F9B0EE080A4D
:1021D0005046FFF7F3F9B0EE000A4046FFF7EEF97C
:1021E000B0EE000A5046FFF7E9F9B1EE000A3846B2
:1021F000FFF7E4F9B1EE080A4846FFF7DFF90020DF
:10220000B0EE000AFFF7DAF9B0EE000A5046FFF729
:10221000D5F90020B0EE480AFFF7D0F9B0EE000A79
:102220005046FFF7CBF9B7EE000A4046FFF7C6F974
:10223000B0EE080A5046FFF7C1F9B0EE000A40467A
:10224000FFF7BCF9F720B0EE000AFFF7B7F9DC2082
:10225000B7EE000AFFF7B2F9C420B1EE040AFFF7A7
:10226000ADF90020B7EE000AFFF7A8F9C420B7EED9
:10227000000AFFF7A3F90020B0EE480AFFF79EF925
:10228000C420B7EE000AFFF799F90020B0EE480A23
:10229000FFF794F9C420B7EE000AFFF78FF9B1EE0B
:1022A000000A2846FFF78AF9B0EE080A5046FFF701
:1022B00085F9B7EE000A4046FFF780F9B0EE000A54
:1022C0004846FFF77BF90020B0EE480AFFF776F9A1
:1022D000B1EE000A4846FFF771F90020B7EE000A98
:1022E000FFF76CF9B0EE000A4846FFF767F99FED7B
:1022F000FE0A0020FFF762F9B0EE000A4846FFF739
:102300005DF9B0EE000A4046FFF758F9B0EE000A5A
:102310005046FFF753F9DC20B1EE080AFFF74EF9FB
:102320000020B0EE000AFFF749F9DC20B0EE000A09
:10233000FFF744F9B0EE000A5046FFF73FF9B0EE60
:10234000000A4046FFF73AF9B0EE000A4846FFF7A8
:1023500035F9B1EE080A4046FFF730F90020B0EE3B
:10236000000AFFF72BF9B1EE000A5046FFF726F9F5
:10237000B1EE000A40F25D10FFF720F9B1EE080A55
:10238000AB462846FFF71AF9B0EE000A5046FFF7B1
:1023900015F9B0EE000A5846FFF710F9B7EE000A3B
:1023A0005046FFF70BF9B0EE080A5846FFF706F95A
:1023B000B1EE000AA2462046FFF700F9B1EE080A86
:1023C0003846FFF7FBF8B0EE000A4C464846FFF7E8
:1023D000F5F8B0EE000A45464046FFF7EFF8B0EEDC
:1023E000000A4FF4A570FFF7E9F8B1EE000A58466D
:1023F000FFF7E4F84FF4DC78B1EE000A4046FFF74F
:10240000DDF8B7EE000A5846FFF7D8F8B0EE080A34
:102410004046FFF7D3F8B7EE000A5846FFF7CEF86C
:10242000DFEDB28A0020B0EE680AFFF7C7F8B0EE21
:10243000080A5846FFF7C2F80020B0EE680AFFF716
:10244000BDF8B1EE000A5846FFF7B8F8B2EE000A40
:102450002846FFF7B3F8B1EE000A4FF4A570FFF776
:10246000ADF8B1EE000A40F25D10FFF7A7F8B1EE4B
:10247000080A5846FFF7A2F8B0EE000A4FF4A5701C
:10248000FFF79CF8B0EE000A5846FFF797F8B7EE52
:10249000000A4FF4A570FFF791F8B0EE080A58460D
:1024A000FFF78CF8B1EE000A5046FFF787F8B1EE5F
:1024B000080A3846FFF782F8B0EE000A2046FFF718
:1024C0007DF8B0EE000A2846FFF778F8B0EE000A73
:1024D0004FF4A570FFF772F8B1EE000A5046FFF70F
:1024E0006DF8B1EE080A4046FFF768F80020B0EE3C
:1024F000480AFFF763F8B0EE000A4046FFF75EF8BF
:10250000B7EE000A5846FFF759F8B0EE080A404601
:10251000FFF754F8B1EE000A3846FFF74FF8B1EE76
:10252000080A3046FFF74AF80020B0EE000AFFF72D
:1025300045F8B0EE000A5846FFF740F8B0EE000A42
:102540003846FFF73BF8B7EE000A5046FFF736F87B
:10255000B2EE080A3846FFF731F80020B1EE000A63
:10256000FFF72CF80020B0EE000AFFF727F8B0EED6
:10257000000A4FF4A570FFF721F80020B0EE480ADA
:10258000FFF71CF8B0EE000A4FF4A570FFF716F83D
:10259000B7EE000A2846FFF711F8B0EE080A4FF42C
:1025A000A570FFF70BF8B0EE000A2846FFF706F813
:1025B000B0EE000A4FF4A570FFF700F8B0EE000A85
:1025C0005846FEF7FBFF0020B0EE000AFEF7F6FFCC
:1025D000B0EE000A4FF4A570FEF7F0FF0020B0EE59
:1025E000480AFEF7EBFFB0EE000A4FF4A570FEF7C5
:1025F000E5FFB7EE000A2846FEF7E0FFB0EE080A56
:102600004FF4A570FEF7DAFFB0EE000A2846FEF799
:10261000D5FFB0EE000A4FF4A570FEF7CFFFB1EE84
:10262000000A5846FEF7CAFFB1EE080A2046FEF738
:10263000C5FF0020B0EE000AFEF7C0FFB0EE000AB2
:102640004FF4A570FEF7BAFF0020B0EE480AFEF77F
:10265000B5FFB0EE000A4FF4A570FEF7AFFFB7EE7E
:10266000000A2846FEF7AAFFB0EE080A4FF4A5704C
:10267000FEF7A4FFB0EE000A2846FEF79FFFB0EE7B
:10268000000A2046FEF79AFFB0EE000A2846FEF741
:1026900095FF0020B0EE000AFEF790FFB0EE000AB2
:1026A0004FF4A570FEF78AFFB0EE000A4FF4A57054
:1026B000FEF784FFB7EE000A2846FEF77FFFB0EE74
:1026C000080A4FF4A570FEF779FFB0EE000A28461D
:1026D000FEF774FFB0EE000A4FF4A570FEF76EFF30
:1026E000B0EE000A584603E0CDCC4C3DCDCCCC3DFD
:1026F000FEF764FF0020B0EE000AFEF75FFFB0EEC9
:10270000000A4FF4A570FEF759FF0020B0EE480A0A
:10271000FEF754FFB0EE000A4FF4A570FEF74EFF2F
:10272000B7EE000A2846FEF749FFB0EE080A4FF45C
:10273000A570FEF743FFB0EE000A2846FEF73EFF05
:10274000B0EE000A4FF4A570FEF738FFB1EE000AB4
:102750003846FEF733FFB1EE080A2046FEF72EFF9B
:102760000020B0EE000AFEF729FFB0EE000A4FF499
:10277000A570FEF723FFB0EE000A4FF4A570FEF738
:102780001DFFB7EE000A2846FEF718FFB0EE080A54
:102790004FF4A570FEF712FFB0EE000A2846FEF7D0
:1027A0000DFFF720B0EE000AFEF708FFDC20B7EEC1
:1027B000000AFEF703FFC420B1EE040AFEF7FEFE96
:1027C0000020B7EE000AFEF7F9FEC420B7EE000ABB
:1027D000FEF7F4FE0020B0EE480AFEF7EFFEC4203C
:1027E000B7EE000AFEF7EAFE0020B0EE480AFEF758
:1027F000E5FEC420B7EE000AFEF7E0FEB1EE000AE7
:102800005846FEF7DBFEB0EE080A4FF4A570FEF75F
:10281000D5FEB7EE000A2846FEF7D0FEB0EE000A5D
:102820002046FEF7CBFE0020B0EE480AFEF7C6FEBB
:10283000B1EE000A2046FEF7C1FE0020B7EE000A06
:10284000FEF7BCFEB0EE000A2046FEF7B7FE002001
:10285000B0EE480AFEF7B2FEB0EE000A2046FEF7E0
:10286000ADFEB0EE000A2846FEF7A8FEB0EE000A64
:102870004FF4A570FEF7A2FEDC20B1EE080AFEF7C9
:102880009DFE0020B0EE000AFEF798FEDC20B0EEC0
:10289000000AFEF793FEB0EE000A4FF4A570FEF7B3
:1028A0008DFEB0EE000A2846FEF788FEB0EE000A64
:1028B0002046FEF783FEB2EE040A2846FEF77EFEAF
:1028C0000020B1EE000AFEF779FEB1EE000A4FF4E7
:1028D000A570FEF773FEB1EE000A40F25D10FEF740
:1028E0006DFEB1EE080A5846FEF768FEB0EE000A2B
:1028F0004FF4A570FEF762FEB0EE000A5846FEF7F0
:102900005DFEB7EE000A4FF4A570FEF757FEB0EE7D
:10291000080A5846FEF752FEB1EE000A5046FEF78E
:102920004DFEB1EE080A3846FEF748FEB0EE000A4A
:102930002046FEF743FEB0EE000A2846FEF73EFEB4
:10294000B0EE000A4FF4A570FEF738FEB1EE000AB3
:102950005846FEF733FEB1EE040A4046FEF72EFE5F
:10296000B7EE000A5846FEF729FEB0EE000A4046D0
:10297000FEF724FEB7EE000A5846FEF71FFE0020C1
:10298000B0EE480AFEF71AFEB0EE080A5846FEF707
:1029900015FE0020B0EE680AFEF710FEB0EE000A49
:1029A0002846FEF70BFE0020B0EE680AFEF706FE92
:1029B000B2EE000A2846FEF701FEB1EE000A4FF41F
:1029C000A570FEF7FBFDB1EE000A40F25D10FEF7C8
:1029D000F5FDB1EE000A5846FEF7F0FD0020B6EE18
:1029E000000AFEF7EBFDB0EE000A5846FEF7E6FDE2
:1029F000B7EE000A4FF4A570FEF7E0FDB0EE080A4E
:102A00005846FEF7DBFDB1EE000A3046FEF7D6FD74
:102A1000B1EE080A3846FEF7D1FDB0EE000A2046B6
:102A2000FEF7CCFDB0EE000A2846FEF7C7FDB0EE7B
:102A3000000A4FF4A570FEF7C1FDB1EE000A38465A
:102A4000FEF7BCFDB1EE040A4046FEF7B7FDB7EE57
:102A5000000A5846FEF7B2FDB0EE000A4046FEF707
:102A6000ADFDB7EE000A5846FEF7A8FDB0EE080A25
:102A70004046FEF7A3FDB1EE000A3846FEF79EFD84
:102A8000B1EE080A3046FEF799FD0020B0EE000ACC
:102A9000FEF794FDB0EE000A2846FEF78FFDB0EE7B
:102AA000000A4FF4A570FEF789FDB7EE000A28462C
:102AB000FEF784FDB2EE080A2046FEF77FFD0020F7
:102AC000B1EE000AFEF77AFDB1EE000A4FF4A570F0
:102AD000FEF774FDB1EE000A40F25D10FEF76EFDE8
:102AE000B1EE080A5846FEF769FDB0EE000A4FF451
:102AF000A570FEF763FDB0EE000A5846FEF75EFDD6
:102B0000B7EE000A4FF4A570FEF758FDB0EE080AC4
:102B10005846FEF753FDB1EE000A5046FEF74EFD53
:102B2000B1EE080A3846FEF749FDB0EE000A20462D
:102B3000FEF744FDB0EE000A2846FEF73FFDB0EE7A
:102B4000000A4FF4A570FEF739FDB1EE000A5846B1
:102B5000FEF734FDB1EE040A4046FEF72FFDB7EE56
:102B6000000A5846FEF72AFDB0EE000A4046FEF77E
:102B700025FDB7EE000A5846FEF720FD0020B0EE16
:102B8000680AFEF71BFDB0EE080A5846FEF716FD70
:102B90000020B0EE680AFEF711FDB1EE000A5846BB
:102BA000FEF70CFDB2EE000A2846FEF707FDB1EE77
:102BB000000A4FF4A570FEF701FDB1EE000A40F2E5
:102BC0005D10FEF7FBFCB1EE080A5846FEF7F6FC76
:102BD000B0EE000A4FF4A570FEF7F0FCB0EE000A6C
:102BE0005846FEF7EBFCB7EE000A4FF4A570FEF76F
:102BF000E5FCB0EE080A5846FEF7E0FCB1EE000A2C
:102C00005046FEF7DBFCB1EE080A3846FEF7D6FC6C
:102C1000B0EE000A2046FEF7D1FCB0EE000A2846CE
:102C2000FEF7CCFCB0EE000A4FF4A570FEF7C6FC30
:102C3000B1EE000A3846FEF7C1FCB1EE080A404684
:102C4000FEF7BCFC0020B0EE480AFEF7B7FCB0EE81
:102C5000000A4046FEF7B2FCB7EE000A5846FEF7FF
:102C6000ADFCB0EE080A4046FEF7A8FCB1EE000A43
:102C70003846FEF7A3FCB1EE080A3046FEF79EFC8C
:102C8000B1EE000A4FF4A570FEF798FCB1EE000A11
:102C900040F25D10FEF792FCB1EE080A5846FEF7CE
:102CA0008DFCB0EE000A4FF4A570FEF787FCB0EE85
:102CB000000A5846FEF782FCB7EE000A4FF4A570F2
:102CC000FEF77CFCB0EE080A5846FEF777FCB1EE42
:102CD000000A5046FEF772FCB1EE080A3846FEF7CD
:102CE0006DFCB0EE000A2046FEF768FCB0EE000A6C
:102CF0002846FEF763FCB0EE000A4FF4A570FEF71D
:102D00005DFCB1EE000A5846FEF758FCB1EE040A2D
:102D10004046FEF753FCB7EE000A5846FEF74EFC5D
:102D2000B0EE000A4046FEF749FCB7EE000A5846EE
:102D3000FEF744FC0020B0EE680AFEF73FFCB0EE60
:102D4000080A5846FEF73AFC0020B0EE680AFEF783
:102D500035FCB1EE000A5846FEF730FCB2EE000A30
:102D60002846FEF72BFCB1EE000A4FF4A570FEF7E3
:102D700025FCB1EE000A40F25D10FEF71FFCB1EE3B
:102D8000000A5846FEF71AFC0020B7EE000AFEF7CC
:102D900015FCB0EE000A5846FEF710FCB7EE000A2C
:102DA0004FF4A570FEF70AFCB0EE080A5846FEF78D
:102DB00005FCB1EE000A3046FEF700FCB1EE080A51
:102DC0003846FEF7FBFBB0EE000A2046FEF7F6FBA6
:102DD000B0EE000A2846FEF7F1FBB0EE000A4FF411
:102DE000A570FEF7EBFBB1EE000A3846FEF7E6FBF6
:102DF000B1EE040A4046FEF7E1FBB7EE000A584682
:102E0000FEF7DCFBB0EE000A4046FEF7D7FBB7EE5C
:102E1000000A5846FEF7D2FBB0EE080A4046FEF71D
:102E2000CDFBB1EE000A3846FEF7C8FBB1EE080A4A
:102E30003046FEF7C3FB0020B0EE000AFEF7BEFBF3
:102E4000B0EE000A5846FEF7B9FBB0EE000A38466D
:102E5000FEF7B4FBB7EE000A5046FEF7AFFBB2EE4A
:102E6000080A3846FEF7AAFB0020B1EE000AFEF77A
:102E7000A5FBB1EE000A4FF4A570FEF79FFBB1EE83
:102E8000000A2846FEF79AFBB1EE000A2046FEF73C
:102E900095FBB1EE000A5846FEF790FBB1EE000A32
:102EA0002046FEF78BFBB1EE000A2846FEF786FBB4
:102EB000B1EE000A4FF4A570FEF780FBB1EE000AF8
:102EC00040F25D10FEF77AFBB1EE000A5846FEF7BD
:102ED00075FBB1EE000A40F25D10FEF76FFBB1EE3C
:102EE000000A4FF4A570FEF769FBB1EE000A284610
:102EF000FEF764FBB1EE000A2046FEF75FFBB1EE81
:102F0000000A2846FEF75AFBB1EE000A4FF4A570FE
:102F1000FEF754FBB1EE000A40F25D10FEF74EFBE7
:102F2000B1EE000A4FF4A570FEF748FBB1EE000ABF
:102F30002846FEF743FBB1EE000A2046FEF73EFBB3
:102F4000B1EE000A5846FEF739FBB1EE000A4FF425
:102F5000A570FEF733FBB1EE000A2846FEF72EFB04
:102F6000B1EE000A4FF4A570FEF728FBB1EE000A9F
:102F700040F25D10FEF722FBB1EE000A5846FEF764
:102F80001DFBB1EE000A40F25D10FEF717FBB1EE3B
:102F9000000A4FF4A570FEF711FBB1EE000A2846B7
:102FA000FEF70CFBB1EE000A4FF4A570FEF706FB2E
:102FB000B1EE000A2846FEF701FBB1EE000A4FF41D
:102FC000A570FEF7FBFAB1EE000A40F25D10FEF7C5
:102FD000F5FAB1EE000A4FF4A570FEF7EFFAB1EE84
:102FE000000A2846FEF7EAFAB1EE000A2046FEF78C
:102FF000E5FAB1EE000A5846FEF7E0FAB1EE000A33
:103000002046FEF7DBFAB1EE000A2846FEF7D6FAB4
:10301000B1EE000A4FF4A570FEF7D0FAB1EE000A47
:1030200040F25D10FEF7CAFAB1EE000A5846FEF70C
:10303000C5FAB1EE000A40F25D10FEF7BFFAB1EE3C
:10304000000A4FF4A570FEF7B9FABDEC028B2846D2
:10305000B1EE000ABDE8F05FFEF7B0BAFDF73CFB49
:10306000FEF7FEFAFEF750FAFEF76CFAFEF712FED4
:10307000FEE74FF04070E1EE100A704700000000DC
:10308000010203040102030406070809AC3000082A
:10309000000000202000000008030008CC300008D9
:1030A00020000020B00600002403000801000000FA
:1030B0000000803F000000000090D0030090D0038B
:0C30C000010000001000000000000000F3
:04000005080002CD20
:00000001FF
