:020000040800F2
:10000000C80600206D0300080F16000859150008E7
:100010000D160008730400086D1C000800000000A5
:10002000000000000000000000000000571600085B
:100030007504000800000000551600085916000855
:100040008703000887030008870300088703000868
:100050008703000887030008870300088703000858
:100060008703000887030008870300088703000848
:100070008703000887030008870300088703000838
:100080008703000887030008870300088703000828
:100090008703000887030008870300088703000818
:1000A0008703000887030008870300088703000808
:1000B00087030008870300088703000887030008F8
:1000C00087030008870300088703000887030008E8
:1000D00087030008870300088703000887030008D8
:1000E000870300088703000800000000870300085A
:1000F00087030008870300088703000887030008B8
:1001000087030008870300088703000887030008A7
:100110008703000887030008870300088703000897
:100120008703000887030008870300088703000887
:100130008703000887030008870300088703000877
:1001400000000000000000000000000000000000AF
:100150008703000887030008870300088703000857
:100160008703000887030008870300088703000847
:1001700087030008870300088703000800000000C9
:100180008703000887030008870300088703000827
:100190008703000887030008870300088703000817
:1001A0008703000887030008870300080000000099
:1001B00087030008870300088703000887030008F7
:1001C000870300088703000800000000000000000B
:1001D000000000000000000087030008000000008D
:1001E000000000000000000000000000000000000F
:1001F00000000000000000008703000887030008DB
:100200008703000887030008000000008703000838
:100210008703000887030008870300088703000896
:1002200087030008000000008703000800000000AA
:100230008703000887030008000000008703000808
:100240008703000887030008870300088703000866
:100250008703000887030008870300088703000856
:100260008703000887030008870300088703000846
:1002700087030008870300088703000800000000C8
:100280008703000887030008870300088703000826
:10029000000000008703000887030008000000003A
:1002A0000000000087030008870300088703000898
:1002B00087030008870300088703000887030008F6
:1002C00087030008870300088703000800F002F88E
:1002D00000F03CF80AA090E8000C82448344AAF1A4
:1002E0000107DA4501D100F031F8AFF2090EBAE8A2
:1002F0000F0013F0010F18BFFB1A43F0010318475A
:100300002435000044350000103A24BF78C878C175
:10031000FAD8520724BF30C830C144BF04680C600B
:10032000704700000023002400250026103A28BF53
:1003300078C1FBD8520728BF30C148BF0B60704757
:100340001FB501F0B0FC1FBD10B510BD00F058F88E
:100350001146FFF7F5FF01F09BFC00F076F803B4BF
:10036000FFF7F2FF03BC00F07DF80000094880476A
:1003700009480047FEE7FEE7FEE7FEE7FEE7FEE787
:10038000FEE7FEE7FEE7FEE704480549054A064B9F
:1003900070470000F5160008CD020008C8000020D4
:1003A000C8060020C8020020C80200204FF000024A
:1003B00000B5134694469646203922BFA0E80C505B
:1003C000A0E80C50B1F12001BFF4F7AF090728BF36
:1003D000A0E80C5048BF0CC05DF804EB890028BFB2
:1003E00040F8042B08BF704748BF20F8022B11F0DB
:1003F000804F18BF00F8012B704770477047704757
:10040000754600F02BF8AE4605006946534620F0CD
:100410000700854618B020B5FFF7B6FFBDE82040BD
:100420004FF000064FF000074FF000084FF0000BB0
:1004300021F00701AC46ACE8C009ACE8C009ACE863
:10044000C009ACE8C0098D46704710B50446AFF34B
:1004500000802046BDE81040FFF781BF004870478C
:100460006800002001491820ABBEFEE7260002000C
:100470007047FEE7704772B6FEE7000070B5104C9B
:10048000104D287804EB8001B1F9021011B934F84D
:1004900020205AB100EE101A34F92000B8EEC00A3C
:1004A00001F0B6F82878401C2870EAE7BDE87040F3
:1004B0000122064804219FED040A01F091BB0000CF
:1004C0004C1E000800000020000000001C0000205E
:1004D00070B5044600F01CF90546601C02D00448C3
:1004E0000078044400F014F9401BA042FAD370BD18
:1004F000100000202DE9F84F03247A4D00234FF01F
:1005000001094FF0B04B4FF00F0AE4E009FA03F68F
:10051000324078D00F7907F00307012F01D0022F66
:100520001AD187684FEA430ED1F80CC004FA0EF8CE
:1005300027EA08070CFA0EFC4CEA070CC0F808C0C2
:10054000476891F804C0B743CCF3001C0CFA03FCD5
:100550004CEA070CC0F804C00E79F643B6070BD07E
:10056000C6684FEA43088F6804FA08FC26EA0C06BE
:1005700007FA08F73743C7600E7906F00306022E24
:1005800012D1DE080F694FEA437C00EB8606B646BF
:10059000366A4FEADC6C0AFA0CF807FA0CF726EA1E
:1005A00008063743CEF820700F7906684FEA4308F3
:1005B00007F0030704FA08FC07FA08F726EA0C0616
:1005C000374307604E6816F4403F1CD0464E3768EC
:1005D00047F00207376036689F0706F0020600966C
:1005E00023F0030606F1B046B6463F0FD6F808647E
:1005F000DFF8F8800AFA07FC404526EA0C0603D12A
:100600004FF0000C3AE065E0DFF8E4C0604502D14D
:100610004FF0010C32E0DFF8DCC0604502D14FF052
:10062000020C2BE0DFF8D0C0604502D14FF0030C84
:1006300024E0DFF8C8C0604502D14FF0040C1DE093
:10064000DFF8BCC0604502D14FF0050C16E0DFF8C2
:10065000B4C0604502D14FF0060C0FE0DFF8A8C02F
:10066000604502D14FF0070C08E0DFF8A0C06045FC
:1006700002D14FF0090C01E04FF00A0C0CFA07FC14
:100680004CEA060CCEF808C44F68DBF80060FF02A5
:1006900026EA020600D516435F46CBF80060D1F883
:1006A00004C0DBF804605FEA8C2C26EA020600D561
:1006B00016437E606E684F6826EA0206BF0300D5C7
:1006C00016436E602E684F6826EA0206FF0300D5C7
:1006D00016432E605B1C0A6832FA03F67FF416AFED
:1006E000BDE8F88F80000058F4440258000002581A
:1006F0000004025800080258000C0258001002586A
:100700000014025800180258001C02580024025815
:10071000014880687047000010000020024881688E
:10072000027811448160704710000020032010B54A
:1007300000F078F800F0E0F90F4A104914681368E7
:10074000C4F3032203F00F038A5CC95C02F01F02AA
:1007500001F01F01D0400A4A20FA01F11160094955
:1007600008600F2000F010F808B1012010BD00F063
:100770002BF8002010BD000018440258143800085F
:100780000C0000200800002070B50D4D04462878AC
:10079000A0B14FF47A71B1FBF0F00A490968B1FBDE
:1007A000F0F000F0D8FC48B9102C07D20022214606
:1007B000501E00F017F800206C6070BD012070BD65
:1007C0001000002008000020054808B5016841F02D
:1007D00002010160006800F00200009008BD000006
:1007E000F44402580E4BF0B41B680D46C3F30223C9
:1007F000C3F10706042E00D90426191D072901D2CA
:10080000002300E0DB1E012404FA06F19C40491E8F
:100810002940641E994014402143F0BC01F027BADE
:100820000CED00E0064900F0070210B54FF6FF049A
:100830000868044B204040EA02201843086010BDBD
:100840000CED00E00000FA05134970B50A68D243C8
:10085000520705D5096801F00701814213D118E05C
:100860000A6822F0070202430A60FFF751FF0A4DAF
:100870004FF47A760446083D07E000BFFFF748FFD3
:10088000001BB04201D9012070BD2868C04380041C
:10089000F4D4002070BD00000C4802582DE9F05F30
:1008A00004000F467ED0DFF83882D8F8000000F050
:1008B0000F00B8420CD2D8F8001021F00F013943D4
:1008C000C8F80010D8F8000000F00F00B84269D155
:1008D0002078844D40070AD52069296801F070010D
:1008E000884204D9296821F07001014329602078E9
:1008F0007C4E361D00070AD56069316801F0700131
:10090000884204D9316821F07001014331602078B8
:10091000C0060AD5A069316801F4E061884204D9B3
:10092000316821F4E061014331602078DFF8B4B12F
:1009300080060BF1080B0CD5E1695846DBF8002066
:1009400002F07002914204D9026822F070020A4358
:100950000260207880070AD5E068296801F00F015D
:10096000884204D9296821F00F01014329602078C9
:10097000C0073ED05B49A2682868183920F470602F
:10098000104328606068022818D0032819D009682D
:10099000012819D0490700294ADADFF848A1AAF14D
:1009A000080A00E044E0DAF8002022F007020243DF
:1009B000CAF80020FFF7ACFE814612E009688903FF
:1009C000E9E709688901E6E7C905E4E7FFF7A0FE62
:1009D000A0EB090141F28830814202D90320BDE831
:1009E000F09F6168DAF8000000F03800B0EBC10F4A
:1009F000ECD1207880070AD5E068296801F00F0162
:100A0000884204D2296821F00F0101432960D8F8F7
:100A10000010404601F00F01B9420BD9016821F0E6
:100A20000F0139430160006800F00F00B84201D0A7
:100A30000120D4E7207840070AD52069296801F011
:100A40007001884204D2296821F0700101432960B5
:100A5000207800070AD56069316801F0700188428A
:100A600004D2316821F07001014331602078C00662
:100A70000AD5A069316801F4E061884204D2316886
:100A800021F4E06101433160207880060CD5E169F2
:100A90005846DBF8002002F07002914204D202684E
:100AA00022F070020A43026000F026F80E492A681C
:100AB0002B68C2F3032203F00F038A5CC95C02F0C7
:100AC0001F0201F01F01D040084A20FA01F1116015
:100AD0000749086007480068BDE8F05FFFF754BEAB
:100AE0000020005218440258143800080C0000205E
:100AF0000800002014000020454970B545480968E9
:100B0000434B103B11F0380208D00111082A03D0E2
:100B1000102A0BD0182A0BD0084670BD1968890618
:100B2000FBD51968C1F3C101C84070BD3A4870BD1A
:100B30003749374D18310C1D24350A680968266875
:100B40002D6802F0030406F00102C1F30511C5F39C
:100B5000CC0515FB02F200EE102AB8EE400AE9B30C
:100B60002F4ADFED2E0AB7EE001A6CB1DFED2D1A19
:100B7000012C01D0022C43D002EE101A1068F8EEBE
:100B8000422A81EEA22A1EE01C68A40611D51B6829
:100B900001EE901A1168C3F3C103F8EE612AD84040
:100BA00001EE900AC1F30800F8EE611A81EEA22A64
:100BB0000BE001EE901ADFED1C2A00BFF8EE611A7F
:100BC000106882EEA12AC0F3080001EE900AF8EE48
:100BD000611A40EE201A31EE810A00E015E022EEA3
:100BE000000A1068C0F34620401C00EE900AF8EEA0
:100BF000600A80EE201ABCEEC10A10EE100A70BD29
:100C000001EE901ADFED092AD8E7002070BD000040
:100C1000104402580090D00300366E0100000039E5
:100C2000304402580024744A0024744C001BB74B13
:100C30002DE9F05F04007DD0FF4F2078FE4D18377E
:100C4000DFF8F483103DC00748D0D8F800003968B9
:100C500000F03800102815D0182803D101F0030047
:100C600002280FD06068B0F5803F12D010B1B0F507
:100C7000A02F18D0286820F480302860286820F43D
:100C8000802009E02868800328D560680028D2D039
:100C900024E0286840F480302860606888B1FFF75D
:100CA00037FD064609E0286840F480202860F0E718
:100CB000FFF72EFD801B64287ED828688003F7D5B7
:100CC0000CE0FFF725FD064605E000BFFFF720FD1D
:100CD000801B6428F0D828688003F7D42078800728
:100CE00056D5D8F80000DFF85093396810F0380076
:100CF000A9F10C090ED0182801D188070AD0E068A4
:100D0000A8B3296821F0190101432960FFF700FD0C
:100D1000064628E02868400702D5E06800288AD007
:100D2000E168286820F0190008432860FFF7F0FC0C
:100D3000064606E0D2E000BFFFF7EAFC801B02286F
:100D4000BAD828684007F7D5217CD9F8002022F0CE
:100D5000FE4242EA0161C9F8001019E0FFF7D8FC31
:100D6000801B0228A8D828684007F7D5ECE7FFE7E2
:100D7000286820F001002860FFF7CAFC064604E05E
:100D8000FFF7C6FC801B022896D828684007F7D4D6
:100D90002078C00646D5D8F80000DFF89C92396864
:100DA00000F03800A9F10409082812D0182805D14C
:100DB00001F00300012800E0CEE00AD0E06900283D
:100DC000286820D040F080002860FFF7A1FC06468C
:100DD00015E02868C00502D5E06980287ED194F826
:100DE0002010D9F8002022F07C5242EA0161C9F8B3
:100DF000001017E0FFF78CFC801B0228A0D82868A1
:100E0000C005F7D5EBE720F080002860FFF780FCF5
:100E1000064604E0FFF77CFC801B022890D8286877
:100E2000C005F7D42078000729D58348616964306C
:100E300000298146016811D041F001010160FFF7EE
:100E400067FC064605E000BFFFF762FC801B022836
:100E500088D8D9F800008007F6D510E021F001010C
:100E60000160FFF755FC064605E000BFFFF750FCA8
:100E7000801B022870D8D9F800008007F6D42078AB
:100E8000800623D5A0690028286810D040F480503F
:100E90002860FFF73DFC064605E000BFFFF738FC81
:100EA000801B022858D828688004F7D50EE020F46B
:100EB00080502860FFF72CFC064604E0FFF728FC72
:100EC000801B022848D828688004F7D4207840077F
:100ED00051D5DFF86891D9F8001000E015E141F430
:100EE0008071C9F80010FFF713FC064605E000BF4B
:100EF000FFF70EFC801B64282ED8D9F80000C0052F
:100F0000F6D54D4EA068603601280AD008B10528F4
:100F100013D0306820F001003060306820F0040009
:100F200002E0306840F001003060A06841F2883A89
:100F300098B1FFF7EDFB81460AE0306840F004000D
:100F40003060EEE7FFF7E4FBA0EB0901514503D861
:100F500030688007F6D50EE072E0FFF7D9FB8146D6
:100F600006E000BFFFF7D4FBA0EB0901514567D8AD
:100F700030688007F6D4606A00287CD0DFF8B8A01B
:100F8000D8F800100AF1200A4FF6F87B0AF104089D
:100F9000C1F3C2010329AAF104096DD0022828680F
:100FA00020F08070286003D0FFF7B2FB044681E098
:100FB000FFF7AEFB064604E0FFF7AAFB801B022802
:100FC00075D828688001F7D4E26A40F2F3313868B6
:100FD00054F8283F884340EA021018433860217BC8
:100FE0004FF4FE0C22894FF0FE47208A4902267DED
:100FF000521E401EA1F5007189B2C2F308021143CE
:10100000761E0CEA00400143484607EA0662114397
:10101000CAF80010D9F8001021F00101C9F8001039
:10102000D8F80030266A23EA0B0343EAC601C8F861
:101030000010D9F8001004E010440258004802588B
:1010400035E0A26921F00C011143C9F800100168D4
:10105000E26921F0020111430160016841F480312D
:101060000160016841F400310160016841F48021B0
:101070000160016801E06CE020E041F001010160E5
:10108000286840F080702860FFF742FB044604E0C7
:10109000FFF73EFB001B022809D828688001F7D51E
:1010A00057E000BFFFF734FB001B022802D90320E2
:1010B000BDE8F09F28688001F4D44AE0396801282F
:1010C000DAF8000021D0A26A01F0030393421CD198
:1010D000E26AC1F305118A4217D1216BC0F30802FD
:1010E000491E8A4211D1616BC0F34622491E9142CA
:1010F0000BD1A16BC0F30642491E914205D1E16BB1
:10110000C0F30660491E814201D00120D0E7A16CE6
:101110004646D8F80000C0F3CC00814219D0D9F877
:1011200000004D4620F00100C9F80000FFF7F0FA7A
:101130004FEA0007FFF7ECFAB842FBD0A26C306828
:1011400020EA0B0040EAC2003060286840F001004D
:1011500028600020ACE7401EB0F1807F10B501D3BD
:10116000012010BD4FF0E02460610F21601700F0F6
:101170007EFD0020A0610721216110BDF0B590F82F
:101180003C20012A41D0224E012480F83C4002221A
:1011900080F83D2002681F4D5368B242D2F808C063
:1011A00001D0AA4203D14F6823F470033B430F6878
:1011B00023F070031F4357600268B24219D0B2F1A6
:1011C000804F16D0144B9A4213D0144B9A4210D031
:1011D000134B9A420DD0AA420BD0124B9A4208D020
:1011E000114B9A4205D0114B9A4202D0104B9A42B1
:1011F00004D189682CF0800319439160002180F8A4
:101200003D4080F83C100846F0BD0220F0BD0000D3
:1012100000000140000401400004004000080040BC
:10122000000C0040001800400040014000E0004079
:1012300000E4004010B586B0044614216846FFF76C
:10124000B5F80D492068884214D10C48016841F076
:10125000020101600068002100F0020005900220F8
:1012600082030092CDE90101CDE9031004486946EB
:10127000FFF740F906B010BD00180040E0440258E6
:101280000004025870B5044690F83C0000260D4654
:1012900001280BD0012084F83C000C2A4AD007DC3E
:1012A00082B1042A20D0082A06D131E0022070BD84
:1012B000102A53D0142A63D00126002084F83C0061
:1012C000304670BD206800F0EFFA2068816941F077
:1012D000080181612068816921F004018161206831
:1012E0002A698169114311E0206800F031FB206810
:1012F000816941F4006181612068816921F4806124
:10130000816120682969826942EA01218161D4E70B
:10131000206800F069FB2068C16941F00801C161E3
:101320002068C16921F00401C16120682A69C1698E
:10133000114311E0206800F0A3FB2068C16941F46B
:101340000061C1612068C16921F48061C1612068C8
:101350002969C26942EA0121C161AEE7206800F053
:10136000CBFB2068416D41F0080141652068416D6B
:1013700021F00401416520682A69416D114311E0A3
:10138000206800F0F3FB2068416D41F40061416585
:101390002068416D21F48061416520682969426DB2
:1013A00042EA0121416588E710B5040003D094F8B2
:1013B0003D0010B107E0012010BD002084F83C0082
:1013C000204600F023F8022084F83D002068211D0B
:1013D00000F0F0F9012084F8480084F83E0084F819
:1013E0003F0084F8400084F8410084F8420084F80B
:1013F000430084F8440084F8450084F8460084F8EB
:10140000470084F83D00002010BD000008B50068CA
:101410000649884208D10648016841F04001016050
:10142000006800F04000009008BD00000018004077
:10143000E844025830B504464FF0020269B104296D
:1014400012D0082917D00C291CD0102921D094F8CB
:101450004300012824D0012030BD94F83E0001282B
:10146000F9D184F83E201DE094F83F000128F2D124
:1014700084F83F2016E094F840000128EBD184F86E
:1014800040200FE094F841000128E4D184F8412085
:1014900008E094F842000128DDD184F8422001E000
:1014A00084F843200122206800F0F0F91E492068EA
:1014B0001E4A1F4B884209D0904207D0984205D05F
:1014C0001C4DA84202D01C4DA84203D1456C45F4E6
:1014D000004545642068884218D0B0F1804F15D08F
:1014E0001649884212D0164988420FD015498842C1
:1014F0000CD090420AD01449884207D0984205D0B7
:101500001249884202D01249884207D18168114AA3
:101510001140062906D0B1F5803F03D0016841F0A3
:1015200001010160002030BD0000014000040140C5
:1015300000400140004401400048014000040040D8
:1015400000080040000C00400018004000E000408F
:1015500000E4004007000100FEE700000D4808B568
:10156000016841F080010160016801F08001009193
:10157000016841F002010160016801F0020100917F
:10158000016841F001010160006800F00100009075
:1015900008BD0000E044025810B58AB00024684637
:1015A0001C21079408940994FEF700FF164840F2A6
:1015B000CF711722134BC0E9024104618461C0E975
:1015C0000032FFF7F1FE08B1FEF755FF0E4807A9FC
:1015D00007940994FFF7D2FD08B1FEF74CFF602095
:1015E0004FF47A718DE81300074804226946049489
:1015F000FFF748FE08B1FEF73EFF0348FFF71AFE6B
:101600000AB010BD001800401C000020FEE7FEE7F5
:1016100010B50D4902460D482DED028BB0EE408A03
:1016200091ED010A042100F0DBFA9FED090A28EE92
:10163000000ABDEC028BBCEEC00ABDE8104010EE03
:10164000100AFEF745BF0000000000201C0000202B
:101650000000484370477047FFF760B870B59CB012
:101660004C216846FEF7A2FE202113A8FEF79EFE3D
:101670000220FFF7E9F81E48016821F440410160AB
:101680000168002401F440411B9101688904FCD5E4
:1016900002200A9028230990C20301210D910425FC
:1016A000CDE90012CDE90B030C261294CDE90E50C2
:1016B000CDE910646846FFF7BBFA08B172B6FEE7E1
:1016C00040201A9008230501CDE9163013ABCDE96F
:1016D00018053F21032283E8160013A81146FFF7DF
:1016E000DDF8002801D072B6FEE71CB070BD000026
:1016F000184802582748F0B5274A016841F470019C
:101700000160106800F00F00072804D2106820F074
:101710000F00C01D106021490020204C10340B68C0
:101720001F4D43F001030B6020600B682B400B60E2
:10173000136803F00F03072B04D9136823F00F037A
:10174000DB1D1360154C174A1834174B261D371D27
:101750002060124C154D28343060261D3860371D2E
:1017600023603B1D35601C1D3A60251D2E1D186031
:10177000331D22602860326018600A6843F2D20488
:10178000064B0B4D22F4802260330A6018602C60F7
:10179000F0BD000088ED00E0002000520044025837
:1017A0007FEDF6EA80020101000202020000FF0163
:1017B000004000522DE9F0472A4B4FF0804A2A4D55
:1017C00002689842294E2A4F2A4C09D0504507D02A
:1017D000A84205D0B04203D0B84201D0A04205D102
:1017E000D1F804C022F070024CEA0202DFF888C08F
:1017F000DFF888809842DFF8889015D0504513D0E4
:10180000A84211D0B0420FD0B8420DD0A0420BD0A8
:10181000604509D0404507D0484505D0194DA8423C
:1018200002D0194DA84203D1CD6822F440722A4358
:101830004D6922F080022A43026098428A68C2629F
:101840000A68826207D0A04205D0604503D04045B7
:1018500001D0484501D10969016301214161BDE819
:10186000F087000000000140000400400008004034
:10187000000C0040000401400040014000440140D1
:101880000048014000E0004000E4004010B5046A58
:10189000012301F01F018B409C4304628A40016ACE
:1018A0001143016210BD00002DE9F04F026ADFF81C
:1018B0008880DFF8889022F00102DFF884A0DFF84A
:1018C00084B0214F0262DFF884C0066A42688369EF
:1018D00026F002060D68B8428C6803EA0C0323F078
:1018E000030344EA060445EA030507D0404505D052
:1018F000484503D0504501D0584505D1CB6824F068
:101900000804234323F00404B84207D0404505D01F
:10191000484503D0504501D0584505D122F44076C2
:10192000D1E9053233431A43426085614968416316
:101930000462BDE8F08F0000000401400040014057
:101940000044014000480140000001408FFFFEFFBD
:10195000F0B5026A1E4E1F4C22F01002DFF878E04C
:101960000262056A4368826925F02005D1F808C043
:10197000A0420F6802EA060222F4407245EA0C1502
:1019800042EA072201D0704506D1CE6825F08005D5
:1019900045EA061525F04005A0420AD0704508D05A
:1019A0000E4CA04205D00E4CA04202D00D4CA042DD
:1019B00007D1D1E9054623F4406343EA840343EAAF
:1019C000860343608261496881630562F0BD00005F
:1019D000FF8FFFFE00000140000401400040014075
:1019E0000044014000480140F0B5026A1E4F1F4EFE
:1019F00022F48072DFF878E00262056A4368C26907
:101A000025F40075D1F808C0B0420C6802EA07025C
:101A100022F0030245EA0C2544EA020401D0704595
:101A200006D1CF6825F4006242EA072222F48065DD
:101A3000B0420AD0704508D00E4A904205D00E4AF6
:101A4000904202D00D4A904207D123F44052D1E98E
:101A5000053642EA031242EA06134360C46149684C
:101A6000C1630562F0BD00008FFFFEFF0000014072
:101A70000004014000400140004401400048014092
:101A8000F0B5026A174B164F22F480529842026258
:101A9000046A4268C36924F400548E680D6803EA3E
:101AA000070323F4407344EA063443EA05230BD0CA
:101AB0000D4DA84208D00D4DA84205D00C4DA842AE
:101AC00002D00C4DA84204D14D6922F4804242EA72
:101AD00085124260C361496801640462F0BD000080
:101AE000FF8FFFFE00000140000401400040014064
:101AF0000044014000480140F0B5026ADFF854C0DC
:101B000022F480320262056A4268446D25F4003591
:101B10000E896045104F0B6804EA070445EA064544
:101B200043EA04030BD00D4CA04208D00C4CA04259
:101B300005D00C4CA04202D00B4CA04204D14C6901
:101B400022F4803242EA042242604365496881659A
:101B50000562F0BD000001408FFFFEFF0004014060
:101B6000004001400044014000480140F0B5026AD5
:101B7000DFF854C022F480120262046A4268436DA6
:101B800024F400140E896045104F0D6803EA070322
:101B900044EA065443EA05230BD00D4DA84208D071
:101BA0000C4DA84205D00C4DA84202D00B4DA842C6
:101BB00004D14D6922F4802242EA852242604365C5
:101BC0004968C1650462F0BD00000140FF8FFFFE5F
:101BD0000004014000400140004401400048014031
:101BE000002A30B439D0B5EEC00AF1EE10FA34D381
:101BF00010EE103A1A4CA3422FDC1B4B9FED191A22
:101C0000B3FBF2F20468C0EE010AE26200EE102AB1
:101C1000C260B8EE400A20EE800ABCEEC00A10EEA8
:101C2000102A61B104290DD008290ED00C290FD03B
:101C3000036810290FD0DA6530BCFFF7FBBB0368DF
:101C40005A63F9E703689A63F6E70368DA63F3E730
:101C500003681A64F0E79A65EEE730BC704700004D
:101C60000000C8420000C842009F2400FEE70907A8
:101C700000284FEA116104DB00F1E02080F8001435
:101C8000704700F00F0000F1E02080F8141D70474D
:101C9000FEF74CFDFFF7E2FCFFF760FCFFF77CFC72
:101CA000FEF7ECFBFEE74FF04070E1EE100A7047E4
:101CB000B80113019302130193021301930213015C
:101CC00093022602930213014B0213010B0213012C
:101CD0000B0289004B0289000B021301EE01130174
:101CE000B80126027003130170031301700313017E
:101CF0007003130170032602700313011003130114
:101D0000930213011003130110031301BA0213010C
:101D100093024C0493021301700313017003130127
:101D20001003130193022602930213014B021301C5
:101D30000B0213014B0213010B021301EE011301FD
:101D4000B80126024A0126024A0113010B021301BF
:101D50000B021301EE011301B8012602B8011301B1
:101D6000930213014B0213014B0289000B028900FD
:101D7000EE01130188011301B8014C04B8011301ED
:101D8000930213019302130193021301930226029B
:101D9000930213014B0213010B0213010B02890082
:101DA0004B0289000B021301EE011301B801260258
:101DB0007003130170031301700313017003130107
:101DC0007003260270031301100313019302130121
:101DD0001003130110031301BA02130193024C0400
:101DE0009302130170031301700313011003130115
:101DF00093022602930213014B0213010B021301FB
:101E00004B0213010B021301EE011301B80126026C
:101E10004A0126024A0113010B0213010B021301AE
:101E2000EE011301B8012602B80113019302130158
:101E30004B0213014B0289000B028900EE011301D2
:101E400088011301B8014C0400000000EE010100FC
:101E500088010100EE01020088010100EE0102008C
:101E6000880101004B020200880101000B02010001
:101E70000B02010088010100EE0101000B020100CC
:101E8000EE01010088010100EE010200880101005D
:101E9000EE010200880101004B02020088010100EE
:101EA0000B0201000B02010088010100EE0101009C
:101EB0000B020100EE01010088010100EE010200A9
:101EC00088010100EE010200880101004B020200BE
:101ED000880101000B0201000B02010088010100D2
:101EE000EE0101000B020100EE010100880101007A
:101EF000EE01020088010100EE01020088010100EC
:101F00004B020200880101000B0201000B020100DC
:101F100088010100260102004A0106002601020094
:101F20004A010200260102004A0102008801040061
:101F30000B020400EE0104004A0104002601020025
:101F40004A010600260102004A01020026010200A1
:101F50004A0102000B020800EE0102004B020400DD
:101F60004A010A00260102004A010200260102007D
:101F70004A010200EE0104000B020400EE0104001D
:101F80004A010400260102004A010600260102005F
:101F90004A010200260102004A010200EE0104008B
:101FA0000B0204004B020A00000004004A01020078
:101FB000000000004A010200260101004A0103005E
:101FC000260102004A01020088010200000002000E
:101FD0004A010200000000004A010200260101003F
:101FE0004A010300260102004A01020088010400A0
:101FF00006010600000002004A0102000000000085
:102000004A010200260101004A01030026010200E4
:102010000601020026010200000002004A0102003F
:10202000000000004A010200260101004A010300ED
:10203000260102004A01020088010200000002009D
:102040004A010200000000004A01020026010100CE
:102050004A010300260102004A0102000B020400AB
:1020600006010600000002004A0102000000000014
:102070004A010200260101004A0103002601020074
:10208000F7000200DC000100C400050000000100B0
:10209000C400010000000000C400010000000000B6
:1020A000C4000100880104004A0103002601010068
:1020B000060102000000000006010400000001000B
:1020C00006010200000000000601020026010200D5
:1020D0004A010200DC00060000000200DC000200F1
:1020E0004A01020026010200060102002601060044
:1020F000000002004A0104005D010400880106009E
:102100004A010200880102004A010100880103001F
:10211000EE0104000B020600060102002601020087
:102120004A01020088010400B8010400880101008E
:10213000B8010300880101000000000088010300CD
:102140000000000088010400260108004A01040084
:102150005D010400880106004A01020088010200B6
:102160004A01010088010300EE0104000B02060091
:1021700006010200260102004A010200EE010400ED
:10218000B801060000000000B8010200880101004B
:10219000B80103000B0204004B0206004A010400D0
:1021A00026010200000004004A0104005D01040051
:1021B000880106004A010200880102004A0101006C
:1021C00088010300EE0104000B0206000601020074
:1021D000260102004A01020088010400B80105003E
:1021E00088010100B8010200880101000000000020
:1021F000880103000000000026010200000000002A
:10220000260108004A0104005D0104008801040061
:1022100000000000880102004A010100880103005B
:102220004B0204000B020600060102002601020018
:102230004A0102000B020400B801050088010100F8
:10224000B801020088010100B80103000B0204007C
:102250004B020600260102004A010200260101008D
:1022600006010C00000004004A0104005D010400A6
:10227000880106004A010200880102004A010100AB
:1022800088010300EE0104000B02060006010200B3
:10229000260102004A010200EE010400B801060016
:1022A00000000000B801020088010100B80103002D
:1022B0008801010000000000880103000000000008
:1022C0002601020000000000260108004A01040067
:1022D0005D01040088010400000000008801020084
:1022E0004A010100880103004B0204000B020600B2
:1022F00006010200260102004A01020088010400D2
:10230000B801040088010100B80103008801010040
:102310000000000088010300000000002601020008
:1023200000000000260108004A0104005D010400CD
:10233000880106004A010200880102004A010100EA
:1023400088010300EE0104000B02060006010200F2
:10235000260102004A01020088010400B8010500BC
:1023600088010100B801020088010100000000009E
:1023700088010300000000002601020000000000A8
:10238000260108004A0104005D01040088010400E0
:1023900000000000880102004A01010088010300DA
:1023A0004B0204000B020600060102002601020097
:1023B0004A0102000B020400B80105008801010077
:1023C000B80102008801010000000000880103003C
:1023D00000000000260102000000000026010800A5
:1023E0004A0104005D010400880106004A01020060
:1023F000880102004A01010088010300EE01040087
:102400000B02060006010200260102004A0102003A
:10241000EE010400B801060000000000B80102004F
:1024200088010100B80103008801010000000000DC
:1024300088010300000000002601020000000000E7
:10244000260108004A0104005D010400880104001F
:1024500000000000880102004A0101008801030019
:102460004B0204000B0206000601020026010200D6
:102470004A01020088010400B8010400880101003B
:10248000B80103008801010000000000880103007A
:1024900000000000260102000000000026010800E4
:1024A0004A0104005D0104008801040000000000EE
:1024B000880102004A010100880103004B02040068
:1024C0000B02060006010200260102004A0102007A
:1024D00088010400B801040088010100B80103006C
:1024E00088010100000000008801030000000000D6
:1024F0002601020000000000260108004A01040035
:102500005D01040088010400000000008801020051
:102510004A01020088010400B80105008801010099
:10252000B8010200880101000000000088010300DA
:102530000000000026010200000000002601080043
:102540004A0104005D010400880106004A010200FE
:10255000880102004A01010088010300EE01040025
:102560000B02060006010200260102004A010200D9
:1025700088010400B801040088010100B8010300CB
:102580008801010000000000880103000000000035
:102590002601020000000000260108004A01040094
:1025A0005D010400880104000000000088010200B1
:1025B0004A010100880103004B0204000B020600DF
:1025C00006010200260102004A010200EE01040099
:1025D000B801060000000000B801020088010100F7
:1025E000B801030088010100000000008801030019
:1025F0000000000026010200000000002601080083
:102600004A0104005D01040088010400000000008C
:10261000880102004A010100880103004B02040006
:102620000B02060006010200260102004A01020018
:1026300088010400B801050088010100B80102000A
:102640008801010000000000880103000000000074
:102650002601020000000000260108004A010400D3
:102660005D010400880106004A01020088010200A1
:102670004A01010088010300EE0104000B0206007C
:1026800006010200260102004A010200EE010400D8
:10269000B801060000000000B80102008801010036
:1026A000B801030088010100000000008801030058
:1026B00000000000260102000000000026010800C2
:1026C0004A0104005D0104008801040000000000CC
:1026D000880102004A010100880103004B02040046
:1026E0000B02060006010200260102004A01020058
:1026F00088010400B801050088010100B80102004A
:1027000088010100000000008801030000000000B3
:102710002601020000000000260108004A01040012
:102720005D010400880106004A01020088010200E0
:102730004A01010088010300EE0104000B020600BB
:1027400006010200260102004A010200EE01040017
:10275000B801060000000000B80102008801010075
:10276000B801030088010100000000008801030097
:102770000000000026010200000000002601080001
:102780004A0104005D01040088010400000000000B
:10279000880102004A010100880103004B02040085
:1027A0000B02060006010200260102004A01020097
:1027B00088010400B801040088010100B801030089
:1027C00088010100000000008801030000000000F3
:1027D0002601020000000000260108004A01040052
:1027E0005D010400880106004A0102008801020020
:1027F0004A01010088010300EE0104000B020600FB
:1028000006010200260102004A010200EE01040056
:10281000B801060000000000B801020088010100B4
:10282000B8010300880101000000000088010300D6
:102830000000000026010200000000002601080040
:102840004A0104005D01040088010400000000004A
:10285000880102004A010100880103004B020400C4
:102860000B02060006010200260102004A010200D6
:1028700088010400B801040088010100B8010300C8
:102880008801010000000000880103000000000032
:102890002601020000000000260108004A01040091
:1028A0005D010400880106004A010200880102005F
:1028B0004A01010088010300EE0104000B0206003A
:1028C00006010200260102004A010200EE01040096
:1028D000B801060000000000B801020088010100F4
:1028E000B801030088010100000000008801030016
:1028F0000000000026010200000000002601080080
:102900004A0104005D010400880104000000000089
:10291000880102004A010100880103004B02040003
:102920000B02060006010200260102004A01020015
:1029300088010400B801040088010100B801030007
:102940008801010000000000880103000000000071
:102950002601020000000000260108004A010400D0
:102960005D010400880106004A010200880102009E
:102970004A01010088010300EE0104000B02060079
:1029800006010200260102004A010200EE010400D5
:10299000B801060000000000B80102008801010033
:1029A000B801030088010100000000008801030055
:1029B00000000000260102000000000026010800BF
:1029C0004A0104005D0104008801040000000000C9
:1029D000880102004A010100880103004B02040043
:1029E0000B02060006010200260102004A01020055
:1029F00088010400B801050088010100B801020047
:102A000088010100000000008801030000000000B0
:102A10002601020000000000260108004A0104000F
:102A20005D010400880106004A01020088010200DD
:102A30004A01010088010300EE0104000B020600B8
:102A400006010200260102004A010200EE01040014
:102A5000B801060000000000B80102008801010072
:102A6000B801030088010100000000008801030094
:102A700000000000260102000000000026010800FE
:102A80004A0104005D010400880104000000000008
:102A9000880102004A010100880103004B02040082
:102AA0000B02060006010200260102004A01020094
:102AB00088010400B801040088010100B801030086
:102AC00088010100000000008801030000000000F0
:102AD0002601020000000000260108004A0104004F
:102AE0005D010400880106004A010200880102001D
:102AF0004A01010088010300EE0104000B020600F8
:102B000006010200260102004A010200EE01040053
:102B1000B801060000000000B801020088010100B1
:102B2000B8010300880101000000000088010300D3
:102B3000000000002601020000000000260108003D
:102B40004A0104005D010400880104000000000047
:102B5000880102004A010100880103004B020400C1
:102B60000B02060006010200260102004A010200D3
:102B700088010400B801050088010100B8010200C5
:102B8000880101000000000088010300000000002F
:102B90002601020000000000260108004A0104008E
:102BA0005D010400880106004A010200880102005C
:102BB0004A01010088010300EE0104000B02060037
:102BC00006010200260102004A010200EE01040093
:102BD000B801060000000000B801020088010100F1
:102BE000B801030088010100000000008801030013
:102BF000000000002601020000000000260108007D
:102C00004A0104005D010400880104000000000086
:102C1000880102004A010100880103004B02040000
:102C20000B02060006010200260102004A01020012
:102C300088010400B801040088010100B801030004
:102C4000880101000000000088010300000000006E
:102C50002601020000000000260108004A010400CD
:102C60005D010400880106004A010200880102009B
:102C70004A01010088010300EE0104000B02060076
:102C800006010200260102004A010200EE010400D2
:102C9000B801060000000000B80102008801010030
:102CA000B801030088010100000000008801030052
:102CB00000000000260102000000000026010800BC
:102CC0004A0104005D0104008801040000000000C6
:102CD000880102004A010100880103004B02040040
:102CE0000B02060006010200260102004A01020052
:102CF00088010400B801050088010100B801020044
:102D000088010100000000008801030000000000AD
:102D10002601020000000000260108004A0104000C
:102D20005D010400880106004A01020088010200DA
:102D30004A01010088010300EE0104000B020600B5
:102D400006010200260102004A010200EE01040011
:102D5000B801060000000000B8010200880101006F
:102D6000B801030088010100000000008801030091
:102D700000000000260102000000000026010800FB
:102D80004A0104005D010400880104000000000005
:102D9000880102004A010100880103004B0204007F
:102DA0000B02060006010200260102004A01020091
:102DB00088010400B801040088010100B801030083
:102DC00088010100000000008801030000000000ED
:102DD0002601020000000000260108004A0104004C
:102DE0005D010400880106004A010200880102001A
:102DF0004A01010088010300EE0104000B020600F5
:102E000006010200260102004A010200EE01040050
:102E1000B801060000000000B801020088010100AE
:102E2000B8010300880101000000000088010300D0
:102E3000000000002601020000000000260108003A
:102E40004A0104005D010400880104000000000044
:102E5000880102004A010100880103004B020400BE
:102E60000B02060006010200260102004A010200D0
:102E700088010400B801040088010100B8010300C2
:102E8000880101000000000088010300000000002C
:102E90002601020000000000260108004A0104008B
:102EA0005D010400880106004A0102008801020059
:102EB0004A01010088010300EE0104000B02060034
:102EC00006010200260102004A010200EE01040090
:102ED000B801060000000000B801020088010100EE
:102EE000B801030088010100000000008801030010
:102EF000000000002601020000000000260108007A
:102F00004A0104005D010400880104000000000083
:102F1000880102004A010100880103004B020400FD
:102F20000B02060006010200260102004A0102000F
:102F300088010400B801040088010100B801030001
:102F4000880101000000000088010300000000006B
:102F50002601020000000000260108004A010400CA
:102F60005D010400880106004A0102008801020098
:102F70004A01010088010300EE0104000B02060073
:102F800006010200260102004A010200EE010400CF
:102F9000B801060000000000B8010200880101002D
:102FA000B80103008801010000000000880103004F
:102FB00000000000260102000000000026010800B9
:102FC0004A0104005D0104008801040000000000C3
:102FD000880102004A010100880103004B0204003D
:102FE0000B02060006010200260102004A0102004F
:102FF00088010400B801040088010100B801030041
:1030000088010100000000008801030000000000AA
:103010002601020000000000260108004A01040009
:103020005D010400880106004A01020088010200D7
:103030004A01010088010300EE0104000B020600B2
:1030400006010200260102004A010200EE0104000E
:10305000B801060000000000B8010200880101006C
:10306000B80103008801010000000000880103008E
:1030700000000000260102000000000026010800F8
:103080004A0104005D010400880104000000000002
:10309000880102004A010100880103004B0204007C
:1030A0000B02060006010200260102004A0102008E
:1030B00088010400B801050088010100B801020080
:1030C00088010100000000008801030000000000EA
:1030D0002601020000000000260108004A01040049
:1030E0005D010400880106004A0102008801020017
:1030F0004A01010088010300EE0104000B020600F2
:1031000006010200260102004A010200EE0104004D
:10311000B801060000000000B801020088010100AB
:10312000B8010300880101000000000088010300CD
:103130000000000026010200000000002601080037
:103140004A0104005D010400880104000000000041
:10315000880102004A010100880103004B020400BB
:103160000B02060006010200260102004A010200CD
:1031700088010400B801040088010100B8010300BF
:103180008801010000000000880103000000000029
:103190002601020000000000260108004A01040088
:1031A0005D010400880106004A0102008801020056
:1031B0004A01010088010300EE0104000B02060031
:1031C00006010200260102004A010200EE0104008D
:1031D000B801060000000000B801020088010100EB
:1031E000B80103008801010000000000880103000D
:1031F0000000000026010200000000002601080077
:103200004A0104005D010400880104000000000080
:10321000880102004A010100880103004B020400FA
:103220000B02060006010200260102004A0102000C
:1032300088010400B801050088010100B8010200FE
:103240008801010000000000880103000000000068
:103250002601020000000000260108004A010400C7
:103260005D010400880106004A0102008801020095
:103270004A01010088010300EE0104000B02060070
:1032800006010200260102004A010200EE010400CC
:10329000B801060000000000B8010200880101002A
:1032A000B80103008801010000000000880103004C
:1032B00000000000260102000000000026010800B6
:1032C0004A0104005D0104008801040000000000C0
:1032D000880102004A010100880103004B0204003A
:1032E0000B02060006010200260102004A0102004C
:1032F00088010400B801040088010100B80103003E
:1033000088010100000000008801030000000000A7
:103310002601020000000000260108004A01040006
:103320005D010400880106004A01020088010200D4
:103330004A01010088010300EE0104000B020600AF
:1033400006010200260102004A010200EE0104000B
:10335000B801060000000000B80102008801010069
:10336000B80103008801010000000000880103008B
:1033700000000000260102000000000026010800F5
:103380004A0104005D0104008801040000000000FF
:10339000880102004A010100880103004B02040079
:1033A0000B02060006010200260102004A0102008B
:1033B00088010400B801050088010100B80102007D
:1033C00088010100000000008801030000000000E7
:1033D0002601020000000000260108004A01040046
:1033E0005D010400880106004A0102008801020014
:1033F0004A01010088010300EE0104000B020600EF
:1034000006010200260102004A010200EE0104004A
:10341000B801060000000000B801020088010100A8
:10342000B8010300880101000000000088010300CA
:103430000000000026010200000000002601080034
:103440004A0104005D01040088010400000000003E
:10345000880102004A010100880103004B020400B8
:103460000B02060006010200260102004A010200CA
:1034700088010400B801040088010100B8010300BC
:103480008801010000000000880103000000000026
:103490002601020000000000260108004A01040085
:1034A0005D010400880106004A0102008801020053
:1034B0004A01010088010300EE0104000B0206002E
:1034C00006010200260102004A010200EE0104008A
:1034D000B801060000000000B801020088010100E8
:1034E000B80103008801010000000000880103000A
:1034F0000000000026010200000000002601080074
:103500004A0104005D01040088010400000000007D
:10351000880102004A010100880103004B020400F7
:103520000B02060006010200260102004A01020009
:1035300088010400B801050088010100B8010200FB
:103540008801010000000000880103000000000065
:103550002601020000000000260108004A010400C4
:103560005D010400880106004A0102008801020092
:103570004A01010088010300EE0104000B0206006D
:1035800006010200260102004A010200EE010400C9
:10359000B801060000000000B80102008801010027
:1035A000B801030088010100000000008801030049
:1035B00000000000260102000000000026010800B3
:1035C0004A0104005D0104008801040000000000BD
:1035D000880102004A010100880103004B02040037
:1035E0000B02060006010200260102004A01020049
:1035F00088010400B801040088010100B80103003B
:1036000088010100000000008801030000000000A4
:103610002601020000000000260108004A01040003
:103620005D010400880106004A01020088010200D1
:103630004A01010088010300EE0104000B020600AC
:1036400006010200260102004A010200EE01040008
:10365000B801060000000000B80102008801010066
:10366000B801030088010100000000008801030088
:1036700000000000260102000000000026010800F2
:103680004A0104005D0104008801040000000000FC
:10369000880102004A010100880103004B02040076
:1036A0000B02060006010200260102004A01020088
:1036B00088010400B801050088010100B80102007A
:1036C00088010100000000008801030000000000E4
:1036D0002601020000000000260108004A01040043
:1036E0005D010400880106004A0102008801020011
:1036F0004A01010088010300EE0104000B020600EC
:1037000006010200260102004A010200EE01040047
:10371000B801060000000000B801020088010100A5
:10372000B8010300880101000000000088010300C7
:103730000000000026010200000000002601080031
:103740004A0104005D01040088010400000000003B
:10375000880102004A010100880103004B020400B5
:103760000B02060006010200260102004A010200C7
:1037700088010400B801040088010100B8010300B9
:103780008801010000000000880103000000000023
:103790002601020000000000260108004A01040082
:1037A0005D010400880106004A0102008801020050
:1037B0004A01010088010300EE0104000B0206002B
:1037C00006010200260102004A010200EE01040087
:1037D000B801060000000000B801020088010100E5
:1037E000B801030088010100000000008801030007
:1037F0000000000026010200000000002601080071
:103800004A0104005D01040088010400000000007A
:103810000000000000000000010203040102030494
:103820000607080944380008000000201C000000BA
:1038300008030008603800081C000020AC060000E7
:1038400024030008000000000000003F0090D003A7
:103850000090D003010000001000000000000000F4
:04000005080002CD20
:00000001FF
